:020000042000DA
:1000000000000120910100207F03002081030020D7
:1000100083030020850300208703002000000000E8
:100020000000000000000000000000008903002024
:100030008B030020000000008D0300208F030020B0
:100040009103002093030020691200208D120020EC
:10005000990300209B0300209D0300209F030020A4
:10006000A1030020A3030020A5030020A703002074
:10007000A9030020AB03002011280020AF030020BB
:10008000B1030020B3030020B5030020F9070020CE
:10009000B9030020BB030020BD030020BF030020E4
:1000A000C1030020C3030020C50300200114002069
:1000B000F9140020CB030020CD030020CF03002043
:1000C000D1030020D3030020D503002051280020B5
:1000D000AD280020DB030020DD030020DF0300202B
:1000E000E1030020E3030020E5030020E7030020F4
:1000F000E9030020EB030020ED030020EF030020C4
:10010000F1030020F3030020F5030020F703002093
:10011000F9030020FB030020FD030020FF03002063
:10012000010400200304002005040020070400202F
:10013000090400200B0400200D0400200F040020FF
:1001400011040020130400201504002017040020CF
:10015000190400201B0400201D0400201F0400209F
:10016000210400202304002025040020270400206F
:10017000290400202B0400202D0400202F0400203F
:1001800031040020330400200000000000000000C3
:100190004FF0000BDFF8BE020068DFF8B612096806
:1001A00001F0030100F01C00142801D14BF0020BF8
:1001B000002901D04BF0010BBBF1000F05D0A7487F
:1001C000A749DFF8722200F09FF8A64880470BF09D
:1001D000020ABAF1000F0CD0DFF86E02DFF86E12DF
:1001E00002680B680FB44FF000024FF0FF0302608B
:1001F0000B609D4800220123022808D1DFF83E123F
:100200000A60DFF842120A60DFF836120B6001283C
:1002100008D1DFF82E120A60DFF82A120A60DFF830
:100220001E120B609148002809D191489149924AC9
:1002300000F032F891489249924A00F02DF8924825
:100240009249934A00F028F892489349DFF8E62152
:1002500000F05AF8BBF1000F12D090489049DFF837
:10026000DA2100F051F80BF0020ABAF1000F07D0C2
:100270000FBC02600B6000BFAFF30080AFF30080E3
:10028000DFF820020FF2030E00474FF000004FF09E
:100290000001DFF814F2FEE72DE9F841884225D08D
:1002A000B2EB010200D5FEE740EA010313F00303BD
:1002B00002D000F01DF819E04FF000039046121133
:1002C000F7D09A421CBFF0C8F0C103F10103F8D186
:1002D00008F00F08B8F1000F08D004780C7000F196
:1002E000010001F10101B8F10108F6D1BDE8F88182
:1002F00008B54FF0000303780B7000F1010001F125
:100300000101013AF7D108BD884237D000F0030659
:10031000002E14D04FF00405A5EB06044FF008079B
:1003200007FB06F8914669FA08F9002C07D080F817
:10033000009069FA07F900F10100013CF5E74FF080
:1003400000060F46091A88460911914614461546BB
:10035000B14206D018BFA0E8340206F10106B1424E
:10036000F8D108F00F08B8F1000F07D002704FEA7B
:10037000322200F10100B8F10108F4E77047FEE70E
:10038000FEE7FEE7FEE7FEE7FEE7FEE7FEE7FEE745
:10039000FEE7FEE7FEE7FEE7FEE7FEE7FEE7FEE735
:1003A000FEE7FEE7FEE7FEE7FEE7FEE7FEE7FEE725
:1003B000FEE7FEE7FEE7FEE7FEE7FEE7FEE7FEE715
:1003C000FEE7FEE7FEE7FEE7FEE7FEE7FEE7FEE705
:1003D000FEE7FEE7FEE7FEE7FEE7FEE7FEE7FEE7F5
:1003E000FEE7FEE7FEE7FEE7FEE7FEE7FEE7FEE7E5
:1003F000FEE7FEE7FEE7FEE7FEE7FEE7FEE7FEE7D5
:10040000FEE7FEE7FEE7FEE7FEE7FEE7FEE7FEE7C4
:10041000FEE7FEE7FEE7FEE7FEE7FEE7FEE7FEE7B4
:10042000FEE7FEE7FEE7FEE7FEE7FEE7FEE7FEE7A4
:10043000FEE7FEE7704700000000A2A2A2A2008033
:100440000340088003401080034030800340348024
:1004500003403880034018080240000000F00020EC
:1004600000000120512200200000000000000000D8
:10047000000000200000002090010020B0040020B7
:10048000B0040020086500201065002010650020E1
:10049000F06E0020F06E0020D0710020D07100209E
:1004A00000F00020A13000206D2600200000000098
:1004B00010B5054C237833B9044B13B10448AFF39E
:1004C00000800123237010BDF06E002000000000AA
:1004D000D46400200C4B43B10C4810B50C49AFF369
:1004E00000800C48036823B910BD0A48036833B97B
:1004F0007047094B002BF7D0BDE810401847064B5A
:10050000002BF5D0184700BF00000000D464002085
:10051000F46E0020106500200000000080B586B059
:1005200000AF03463960FB710F4B7B61FB791B0108
:1005300043F47C633B610A235B005AB240235BB205
:1005400013435BB2FB730A233A687969184600F0DB
:100550004DF80A233A683969184600F047F800BF99
:100560001837BD4680BD00BFD00FFC0080B586B0F7
:1005700000AF03463960FB71FB795B005AB2402340
:100580005BB213435BB243F001035BB2FB75002324
:100590003B610023FB600021386801F0C9F9FB7D55
:1005A0001946386801F058FAF8600021386801F0FF
:1005B00053FA03461B043B610021386801F04CFAF2
:1005C00003461B023A6913433B610021386801F07E
:1005D00043FA02463B6913433B610021386801F04E
:1005E000F0F93B6918461837BD4680BD80B586B026
:1005F00000AF0346B9607A60FB73FB7B5B005AB2C5
:1006000040235BB213435BB2FB75BB681B0CBB752D
:10061000BB681B0A7B75BB683B750021786801F0DD
:1006200087F9FB7D1946786801F016FA3861BB7DC1
:100630001946786801F010FA38617B7D19467868B0
:1006400001F00AFA38613B7D1946786801F004FA36
:1006500038610021786801F0B4F900BF1837BD4651
:1006600080BD000090B585B000AF03463960FB71D6
:10067000FB7939681846FFF779FFF860FB68B3F536
:10068000000F03D3FB6803F17F43FB60F86802F0BF
:100690007FFA4FF00002094B02F01AFC03460C46A9
:1006A000184621464FF00002054B02F011FC0346AC
:1006B0000C46184621461437BD4690BD00006041E7
:1006C0000000084080B582B000AF03463A60FB717D
:1006D0000B46BB71B979F8793B68002200F004F849
:1006E00000BF0837BD4680BD80B586B000AF3B6017
:1006F0000346FB710B46BB7113467B7108233968B7
:100700001846FFF733FF3861FB799B00FB7300232A
:100710007B61FB7903F00103DBB2002B05D17B7910
:10072000DA00BB7913437B6104E07A79BB795B0023
:1007300013437B61FB7B0F2202FA03F3DB431A4670
:100740003B6913403B61FB7B7A6902FA03F33A6928
:1007500013433B6108233A6839691846FFF746FF9F
:1007600000BF1837BD4680BD016070470068704704
:100770000EB503FA01F303EA020301686FEA02020D
:1007800001EA020141EA030101600EBD006800EACE
:10079000020020FA01F0704701807047008870471E
:1007A0000EB503FA01F303EA020301886FEA0202BD
:1007B00001EA020141EA030101800EBD008800EA5E
:1007C000020020FA01F0704701707047007870470E
:1007D0000EB503FA01F303EA020301786FEA02029D
:1007E00001EA020141EA030101700EBD007800EA4E
:1007F000020020FA01F0704780B582B000AF0F4BC5
:100800005B68FB710D4B9B68DAB2FB791340FB719F
:10081000FB7903F00203BB71BB79002B01D000F020
:10082000E5F8FB7903F001037B717B79002B01D0A4
:1008300000F006F800BF0837BD4680BD00600140EB
:1008400080B584B000AF624B1B78022B3DD0052BE6
:1008500068D0012B40F0AA805E4B1B889BB2002B16
:100860002FD05D4B1A685B4B1B889BB21946104614
:1008700000F00AFAF860574B1B889BB21A46FB68D7
:100880009A420FD9534B1B889AB2FB689BB2D31A7A
:100890009AB2504B1A80504B1A68FB6813444E4A68
:1008A000136090E04B4B00221A804C4B1B68002BCE
:1008B00003D0474B02221A7085E0454B03221A7081
:1008C00081E000BE00F0BAF97DE0444B1B68002BCC
:1008D00024D0434B1A68414B1B681946104600F060
:1008E000D3F9B8603D4B1B68BA689A420CD23B4BB7
:1008F0001A68BB68D31A394A1360394B1A68BB6847
:100900001344374A13605EE0364A364B9B6823F047
:10091000010393602E4B03221A7054E000BE00F0D6
:100920008DF950E02D4B1B68002B1BD12E4B1B6803
:10093000002B14D02C4B1B68294898470246274BA4
:100940001A60264B1B68002B0CD1264A254B9B684E
:1009500023F0010393601E4B03221A7002E000BED5
:1009600000F06CF91D4B1B68002B09D11D4A1D4B73
:100970009B6823F001039360154B03221A7022E059
:10098000174B1A68154B1B681946104600F07CF986
:100990007860124B1A687B68D31A104A1360104BA8
:1009A0001A687B6813440E4A13600CE00D4A0D4B25
:1009B0009B6823F001039360002000F01FF9044BB3
:1009C00000221A7000BF00BF1037BD4680BD00BFB7
:1009D000316F0020146F0020106F00201C6F00206A
:1009E000186F0020006001402C6F002080B584B09B
:1009F00000AF7C4B1B69FB81FB8923F4FF4323F091
:100A00007F03BB81FB89FB72774B1B78052B00F2C0
:100A1000D68001A252F823F0310A0020AB0B00204F
:100A2000AB0B0020890A0020D70A00207F0B002092
:100A3000BB89002B00F0CA80FB7AF12B06D0FB7A31
:100A4000BB72BB7A184600F04FF9BFE0674B00223B
:100A50001A80674B1B68654A128892B21344FA7A6F
:100A60001A70624B1B889BB201339AB25F4B1A809B
:100A70005F4B1B685D4A128892B2134400221A70C1
:100A8000594B04221A70A1E0BB89002B00F0A08012
:100A9000FB7A7B72574B1B78DBB27A7A9A4215D17C
:100AA000524B00221A80524B1B68504A128892B255
:100AB00013447A7A1A704D4B1B889BB201339AB259
:100AC0004A4B1A80484B04221A7081E07B7A184600
:100AD00000F00AF97CE0BB89002B06D0FB7A3B7260
:100AE0003B7A184600F000F974E0414B1A683F4B1E
:100AF0001B889BB2013B13441B78F12B16D13C4B56
:100B00001B683A4A128892B21344FA7A1A70384B28
:100B10001A68364B1B889BB2013B13441B7818465E
:100B200000F0E2F8304B00221A7053E02F4B1B8884
:100B30009AB2314B1B889A4210D2FB7AFB712C4B34
:100B40001B682A4A128892B21344FA791A70274B0A
:100B50001B889BB201339AB2244B1A80234B1B880B
:100B60009AB2254B1B889A4234D1204B1B889BB2EA
:100B7000184600F043F81C4B00221A702AE0BB898B
:100B8000002B0BD11A4B1B680133FA7A1A70022022
:100B900000F034F8144B00221A701EE0FB7ABB718F
:100BA000BB79184600F0A0F817E0BB89002B13D0E2
:100BB000FB7A7B717B79184600F096F80CE00020F8
:100BC00000F01CF8084B00221A7006E000BF04E099
:100BD00000BF02E000BF00E000BF00BF1037BD460D
:100BE00080BD00BF00600140316F0020266F0020F3
:100BF000206F00200C6F0020246F002080B582B091
:100C000000AF0346FB800A4B1B68002B0CD0084B3F
:100C10001B68084A1268F98810469847044B00225E
:100C20001A60054B00221A7000BF0837BD4680BD10
:100C3000286F0020206F0020306F002080B582B028
:100C400000AF0E4B1B78DBB2002B13D00C4B1B8874
:100C50009BB21846FFF7D2FF0A4A0A4B1B6843F0C3
:100C600001031360074B1B6803F001037B607B6883
:100C7000002BF7D100BF0837BD4680BD306F002084
:100C8000266F00200060014080B485B000AF78601E
:100C90003960144A134B1B6823F0040313600023CC
:100CA000FB60104B5B6803F00103BB600DE00D4976
:100CB0007A68FB6813441B780B61FB680133FB60A7
:100CC000084B5B6803F00103BB60BB68002B03D0DB
:100CD000FA683B689A42EAD3FB6818461437BD4667
:100CE00080BC70470060014080B582B000AF034611
:100CF000FB71064B1B68002B04D0044B1B68FA7970
:100D00001046984700BF0837BD4680BD346F0020AD
:100D100080B483B000AF0346FB71094997F90730EF
:100D20005B09FA7902F01F02012000FA02F2603337
:100D300041F8232000BF0C37BD4680BC704700BF80
:100D400000E100E080B58AB000AF78607B681B6886
:100D50001B687B627B681B689B693B627B681B68C6
:100D60005B68FB617B681B689B6ABB617B681B6877
:100D70001B6B7B617B681B685B6B3B617B681B68E3
:100D8000DB69FB607B68354A93421DD17B68344A3E
:100D90001A607B6802221A71324A324B9B6C43F410
:100DA000007393640220FFF7B3FF2E4A2D4B9B6C18
:100DB00023F4007393647B681B687A681268126876
:100DC00022F000421A601CE07B68274A1A607B68A8
:100DD00003221A71234A234B9B6C43F48063936470
:100DE0000320FFF795FF1F4A1E4B9B6C23F4806383
:100DF00093647B681B687A681268126822F000426C
:100E00001A607B6A23F001037B627B681B687A6A45
:100E10001A607B681B683A6A9A617B681B68FA698A
:100E20005A607B681B687A681268126842F0010297
:100E30001A607B681B68BA699A627B681B687A696A
:100E40001A637B681B683A695A637B681B68FA6897
:100E5000DA6100BF2837BD4680BD00BFC0700020EA
:100E600000100040008003400010014080B485B0B5
:100E700000AF78600023FB600DE07B681B687A6838
:100E800091687A6812690A4412785A617B681B6912
:100E90005A1C7B681A617B681B689B6803F480732B
:100EA000002B05D17B681A697B68DB689A42E4D322
:100EB0007B681A697B68DB689A421BD30DE07B680C
:100EC0001B687A6851697A68D2690A4412785A6153
:100ED0007B68DB695A1C7B68DA617B681B689B68EE
:100EE00003F48073002B05D17B68DA697B689B690A
:100EF0009A42E4D37B685B6A002B1DD07B681A6939
:100F00007B68DB689A4217D37B68DA697B689B69E8
:100F10009A4211D306E07B681B6800225A61FB6885
:100F20000133FB607B681B689B6803F48073002BB4
:100F300002D1FB681F2BEED900BF1437BD4680BC21
:100F4000704780B584B000AF78607B6893F88030DC
:100F5000022B15D10CE07B681B681B69FB607B686A
:100F60005B6F002B04D07B685B6FFA681046984774
:100F70007B681B689B6803F04003002BEBD02FE0DD
:100F80007B6893F88030012B23D116E07B681B68C7
:100F90001B69FB607B681A6B7B68DB6A9A4207D22D
:100FA0007B689A6A7B681B6B1344FA68D2B21A702A
:100FB0007B681B6B5A1C7B681A637B681B689B6889
:100FC00003F04003002BE1D00AE07B681B681B693B
:100FD000FB607B681B689B6803F04003002BF4D028
:100FE00000BF1037BD4680BD80B586B000AF7860C9
:100FF0007B681B6820337B617B686B4A934204D01B
:101000007B686A4A934200D000BE7B691B6803F08C
:101010000203002B4ED07B6893F88030022B15D151
:101020000CE07B681B681B69FB607B685B6F002BB7
:1010300004D07B685B6FFA68104698477B681B6832
:101040009B6803F04003002BEBD02FE07B6893F804
:101050008030012B23D116E07B681B681B69FB6085
:101060007B681A6B7B68DB6A9A4207D27B689A6A54
:101070007B681B6B1344FA68D2B21A707B681B6BD7
:101080005A1C7B681A637B681B689B6803F04003EB
:10109000002BE1D00AE07B681B681B69FB607B6862
:1010A0001B689B6803F04003002BF4D07B681B682F
:1010B0000222DA607B691B6803F00103002B11D068
:1010C0007B6893F88030022B05D17B681B687A68B7
:1010D000926F5A6102E07868FFF7C8FE7B681B6870
:1010E0000122DA607B691B6803F01003002B20D01B
:1010F0007868FFF726FF7B681B6A002B0AD07B68A5
:101100001B6A7A68906A7A68126B11469847786809
:10111000FFF7ACFE7B6801225A627B681B687A6825
:101120001268926A22F010029A627B681B68102291
:10113000DA607B691B6803F00403002B0ED07B6828
:101140001B687A681268D26A42F00402DA62786830
:10115000FFF7F8FD7B681B680422DA607B691B6877
:1011600003F00803002B32D07B681B687A68126892
:10117000D26A42F00802DA627B6893F88030022B70
:1011800016D17B681A687B681B681B6823F47F0391
:1011900023F47F4343F4807313607B681B687A6891
:1011A000926F5A610FE000BFC07000203C700020B9
:1011B0007B6893F88030012B05D17B6800221A618F
:1011C0007868FFF753FE7B681B680822DA607B694A
:1011D0001B6803F02003002B41D07868FFF7B1FEB5
:1011E0007B681B6B3B617B681B6A002B17D07B689D
:1011F00000225A627B6800225A617B6800229A6151
:101200007B680022DA617B681B681022DA607B68E9
:101210001B687A681268926A42F010029A627B68D0
:1012200000221A617B681B687A681268D26A42F0F1
:101230000C02DA627868FFF719FE7B6800221A63F5
:101240007B68DB6F002B06D07B68DB6F7A68926A65
:101250003969104698477B681B682022DA6000BF16
:101260001837BD4680BD00BF684620F007018D4697
:1012700089B500AF0448FFF7B7FE00BFBD46BDE823
:1012800089408546704700BFC0700020684620F046
:1012900007018D4689B500AF0448FFF7A5FE00BFE2
:1012A000BD46BDE889408546704700BF3C700020C0
:1012B00090B484B000AFF860B9607A60FB704C48BD
:1012C0004C4B1A68F97813469B001344DB01034426
:1012D00003F5E27319604849464B1A6813469B00B0
:1012E00013449B000B440433FA681A604249414B93
:1012F0001A6813469B0013449B000B440833BA68DA
:101300001A603D483B4B19683B4C3A4B1A681346F0
:101310009B0013449B0023440C331B681A0C1204DB
:101320000B469B000B449B0003440C331A607B6804
:10133000B3F5803F0FD97B68A3F580332F4A136143
:10134000BB6803F580332D4AD360FB6803F5803317
:101350002A4A936019E02848264B1A68264C254BE8
:1013600019680B469B000B449B0023440C331B68FD
:10137000796889B2194313469B0013449B000344C8
:101380000C3319601D4B00221A611B48194B1A6857
:10139000194C184B19680B469B000B449B002344C7
:1013A0000C331B6843F4E00113469B0013449B007D
:1013B00003440C3319600E490E4B1A6813469B0008
:1013C0001344DB010B4403F5E07301221A60084962
:1013D000084B1A6813469B001344DB010B4403F5CA
:1013E000E67300221A6000BF1037BD4690BC7047FC
:1013F00000002842506F002000400140386F00205C
:10140000684620F007018D4691B500AF354A364B4E
:101410001B6803F52873012142F823103348324B2F
:101420001A68324C304B19680B469B000B449B00EA
:1014300023440C331B6823F4E00113469B00134440
:101440009B0003440C331960274B1B680133264A69
:101450001360254B1B68042B02D1234B00221A601A
:10146000234B1B69002B17D0224B1B68042B03D185
:10147000204B00221A6004E01E4B1B6801331D4AFA
:1014800013601B4B98681A4BD968194B1A69184B93
:101490001B7DFFF70DFF1EE01449134B1A6813461E
:1014A0009B0013449B000B440C331B6803F4E003C4
:1014B000002B10D10C4B00221A600E4B00221A6038
:1014C0000B4B01221A700A4B5B68002B03D0084BB0
:1014D0005B680120984700BFBD46BDE89140854646
:1014E000704700BF00002842546F002000400140B8
:1014F000386F0020506F0020684620F007018D46AD
:1015000081B583B000AF384B1B683B603B6803F488
:1015100070633B603B68002B2FD03449344B1A6812
:1015200013469B001344DB010B4403F502731B6855
:10153000002B0AD02F4B02221A702E4B5B68002B17
:1015400003D02C4B5B68022098472849284B1A6827
:1015500013469B001344DB010B4403F503731B6824
:10156000002B0AD0234B03221A70224B5B68002BFE
:1015700003D0204B5B68032098471B4B1B683B60E4
:101580003B6803F470433B603B68002B0AD0194B67
:1015900004221A70174B5B68002B03D0154B5B6855
:1015A0000420984700237B6014E010497A681346B2
:1015B0009B001344DB010B4403F5E47301221A6022
:1015C0000A4A7B6803F52873012142F823107B68DF
:1015D00001337B607B68032BE7D900BF0C37BD4626
:1015E000BDE8814085467047004001400000284228
:1015F000546F0020386F002080B586B000AFF860CF
:10160000B96011461A460B46FB8013467B71FB6896
:10161000002B00D100BE7B79072B00D900BEFB88D0
:10162000B3F5005F00D300BEFB68002B69D07B7967
:10163000072B66D8FB88B3F5005F62D2BB6808331E
:10164000FA88D2B211461846FFF7BEF8BB6803F11C
:101650000C007A79FB885B1103F4FF63134319468E
:10166000FFF7B2F8FB68BA681A60FB681B680833BA
:101670001846FFF7ABF80346BB82FB681B680C33C8
:101680001846FFF7A3F80346FB74FB7C23F007031F
:10169000BB74BB7C9BB25B019AB2BB8A1343BB8217
:1016A000FB7C03F00703FB74BA8AFB889A4200D0E4
:1016B00000BEFA7C7B799A4200D000BEFB681B68B2
:1016C00010331846FFF782F8034603F00203FB7558
:1016D00011E0FB681B6804331846FFF777F80346F0
:1016E0007B74FB681B6810331846FFF76FF80346DE
:1016F00003F00203FB75FB7D002BEAD1FB6800229F
:101700001A7100BF1837BD4680BD90B589B000AFD3
:10171000F860B9607A600023BB61FB68002B00D1E0
:1017200000BEBB68002B00D100BE7B68002B00D13F
:1017300000BEFB68002B43D0BB68002B40D07B6809
:10174000002B3DD00023BB61FB681B68103318469B
:10175000FFF73CF80346FB75FB681A79FB7D1343E2
:10176000DAB2FB681A71FB7D03F00203FB7720E01D
:10177000BA68BB69D418FB681B6804331846FFF7C6
:1017800025F803462370BB690133BB61FB681B6806
:1017900010331846FFF71AF80346FB75FB681A79F1
:1017A000FB7D1343DAB2FB681A71FB7D03F0020381
:1017B000FB77FB7F002B03D0BA697B689A42D7D3B3
:1017C000BB6918462437BD4690BD80B485B000AFD4
:1017D0007860FF23FB737B68002B00D100BE7B6821
:1017E000002B09D07B681B799B10DBB203F0070349
:1017F000FB737B6800221A71FB7B18461437BD46C9
:1018000080BC704780B584B000AFF860B960134603
:10181000FB80FB68002B00D100BEBB68002B00D111
:1018200000BEFB88202B00D900BEFB88002B00D116
:1018300000BEFB68002B42D0BB68002B3FD0482283
:101840000021F86801F0DEFCFB68BA681A60FB88CA
:10185000202B07D8FB88002B04D0FB68FA88A3F85C
:10186000442003E0FB680122A3F84420FB681868C9
:10187000002301220021FEF7ABFFFB681B68243325
:1018800000211846FEF7A0FFFB681B681C330321EC
:101890001846FEF799FFFB681B680433FF211846C2
:1018A000FEF792FFFB681B68183300211846FEF70D
:1018B0008BFFFB681B6803211846FEF785FF00BFFE
:1018C0001037BD4680BD80B582B000AF78607B68C0
:1018D000002B00D100BE7B68002B25D07B681868E8
:1018E000002301220021FEF773FF7B68002283F8AA
:1018F00046207B681B681C3303211846FEF764FFF3
:101900007B681B680433FF211846FEF75DFF7B6888
:101910001B68183300211846FEF756FF7B681B68CA
:1019200003211846FEF750FF00BF0837BD4680BDB3
:1019300080B584B000AF78600B46FB700023FB736A
:101940007B68002B00D100BEFB78072B00D900BEBE
:101950007B68002B31D0FB78072B2ED87B681B6867
:10196000022201211846FEF741FF0346002B24D036
:101970007B681B682033102204211846FEF736FFCF
:101980000346012B02D1786800F0A5F87B681B683C
:1019900024331846FEF71AFF03461946FB78012246
:1019A00002FA03F3DBB20B43FB737B681B6824333F
:1019B000FA7B11461846FEF707FF00BF1037BD46F9
:1019C00080BD80B584B000AF78600B46FB7000230B
:1019D000FB737B68002B00D100BEFB78072B00D97E
:1019E00000BE7B68002B33D0FB78072B30D87B6898
:1019F0001B68022201211846FEF7F8FE0346002B61
:101A000026D07B681B682033102204211846FEF77D
:101A1000EDFE0346012B02D1786800F05CF87B688C
:101A20001B6824331846FEF7D1FE03461946FB789F
:101A3000012202FA03F3DBB2DB43DBB20B40FB73A0
:101A40007B681B682433FA7B11461846FEF7BCFE00
:101A500000BF1037BD4680BD80B584B000AF786050
:101A600039600023FB607B68002B00D100BE7B68DF
:101A7000002B2BD07B681B68022201211846FEF741
:101A8000B5FE0346002B21D07B681B681C33032165
:101A90001846FEF799FE7B681B682833396818469C
:101AA000FEF762FE00BF7B681B6820330222012123
:101AB0001846FEF79BFE0346012BF4D17B681B689A
:101AC00008331846FEF752FE0346FB60FB681846D3
:101AD0001037BD4680BD80B582B000AF78607B68AE
:101AE0001868002301220021FEF772FE7B681B6844
:101AF0001C3303211846FEF767FE7B681B6804331E
:101B0000FF211846FEF760FE7B681868012301225A
:101B10000021FEF75DFE00BF0837BD4680BD80B5E1
:101B200084B000AFF860B9607A603B60FB68BA6867
:101B30001A60FB681B68083300211846FEF744FE54
:101B4000FB681B680C3300211846FEF73DFEFB685E
:101B50001B6879681846FEF707FE3B68002B00D12A
:101B600000BEFB681B68043339681846FEF7FCFDAD
:101B7000FB681B68103300211846FEF7F5FDFB6873
:101B80001B68183300211846FEF7EEFDFB681B6842
:101B9000203300211846FEF7E7FDFB681B68283359
:101BA00000211846FEF7E0FDFB681B68303300217A
:101BB0001846FEF7D9FDFB681B683833002118462C
:101BC000FEF7D2FDFB681B68403300211846FEF784
:101BD000CBFDFB681B68483300211846FEF7C4FDA7
:101BE000FB681B68503300211846FEF7BDFDFB68FB
:101BF0001B68583300211846FEF7B6FDFB681B68CA
:101C0000603300211846FEF7AFFDFB681B686833A0
:101C100000211846FEF7A8FDFB681B687033002101
:101C20001846FEF7A1FDFB681B68783300211846B3
:101C3000FEF79AFDFB681B68803300211846FEF70B
:101C400093FDFB681B68883300211846FEF78CFD66
:101C500000BF1037BD4680BD80B584B000AF78604E
:101C60000B46FB70FB78002B00D100BEFB78102BDD
:101C700000D900BEFB78002B32D0FB78102B2FD878
:101C8000FB78194AD35CFB73FB78082B14D87B686C
:101C90001B6808331846FEF799FD0346BB73BA7BF1
:101CA000FB7B1343BB737B681B680833BA7B11460D
:101CB0001846FEF789FD13E07B681B680C33184655
:101CC000FEF784FD0346BB73BA7BFB7B1343BB73F8
:101CD0007B681B680C33BA7B11461846FEF774FD0F
:101CE00000BF1037BD4680BD4061002080B584B084
:101CF00000AF78600B46FB70FB78002B00D100BE74
:101D0000FB78102B00D900BEFB78002B36D0FB7877
:101D1000102B33D8FB781B4AD35CFB73FB78082B62
:101D200016D87B681B6808331846FEF74FFD03463C
:101D3000BB73FB7BDB43DAB2BB7B1340BB737B68BB
:101D40001B680833BA7B11461846FEF73DFD15E0C7
:101D50007B681B680C331846FEF738FD0346BB73DF
:101D6000FB7BDB43DAB2BB7B1340BB737B681B6836
:101D70000C33BA7B11461846FEF726FD00BF10371C
:101D8000BD4680BD4061002080B588B000AFF860DE
:101D90000B467A60FB72FB7A002B00D100BEFB7A07
:101DA000102B00D900BEFB681B6804331846FEF7F1
:101DB000DDFCF8617A68FB699A4200D900BEFB7AC3
:101DC000002B3AD0FB7A102B37D87B68002B05D13B
:101DD000FB7A1946F868FFF789FF2EE0FB681A685E
:101DE000FB7A184951F82330134400211846FEF7B6
:101DF000BBFCFB681A68FB7A134951F82330134483
:101E000079681846FEF7B0FCFB7A0F4A52F8233087
:101E1000BB61FB681A68BB6913441846FEF7D6FC21
:101E20000346FB757B68DBB2FA7D9A4200D000BEA8
:101E3000FB7A1946F868FFF70FFF00BF2037BD4651
:101E400080BD00BF546100209861002080B586B03D
:101E500000AFF860B9601346FB710023FB75BB68E7
:101E60003B61FB68BA681A60FB68FA791A71002353
:101E7000FB75BB683B6109E000213869FEF7A4FCF3
:101E80003B6904333B61FB7D0133FB75FB7D1F2BFD
:101E9000F2D9FB681B79012B0DD0022B02D0002B4D
:101EA0001AD036E0FB681B6880334FF0FF311846CC
:101EB000FEF75AFC2FE0FB681B6880334FF6FF717A
:101EC0001846FEF769FCFB681B6884334FF6FF7108
:101ED0001846FEF761FC1EE0FB681B688033FF219B
:101EE0001846FEF771FCFB681B688433FF21184617
:101EF000FEF76AFCFB681B688833FF211846FEF773
:101F000063FCFB681B688C33FF211846FEF75CFC02
:101F100001E000BE00BF00BF1837BD4680BD80B5E0
:101F200086B000AFF8600B467A60FB72FB7A1F2B1D
:101F300000D900BEFB7A1F2B14D8FB681B687B619D
:101F4000FB7A9B001A467B6913447B617968786948
:101F5000FEF70AFC7869FEF709FC02467B689A42A4
:101F600000D000BE00BF1837BD4680BD80B582B02E
:101F700000AF786039607B681B79012B0CD0022B95
:101F800002D0002B1DD047E07B681B68A033396866
:101F90001846FEF7E9FB41E07B681B68A0333A680E
:101FA00092B211461846FEF7F7FB7B681B6803F1F7
:101FB000A4023B681B0C9BB219461046FEF7ECFBD3
:101FC0002CE07B681B68A0333A68D2B211461846F1
:101FD000FEF7FAFB7B681B6803F1A4023B681B0A4F
:101FE000DBB219461046FEF7EFFB7B681B6803F176
:101FF000A8023B681B0CDBB219461046FEF7E4FB57
:102000007B681B6803F1AC023B681B0EDBB2194610
:102010001046FEF7D9FB01E000BE00BF786800F073
:1020200009F802463B689A4200D000BE00BF08375C
:10203000BD4680BD80B584B000AF78600023FB60F2
:102040007B681B79012B0CD0022B02D0002B20D0F7
:102050004FE07B681B68A0331846FEF787FBF860EB
:1020600049E07B681B68A0331846FEF797FB0346E0
:102070001A46FB681343FB607B681B68A433184651
:10208000FEF78CFB03461B041A46FB681343FB60F8
:1020900031E07B681B68A0331846FEF77FFB0346E0
:1020A0001A46FB681343FB607B681B68A433184621
:1020B000FEF774FB03461B021A46FB681343FB60E2
:1020C0007B681B68A8331846FEF768FB03461B04B1
:1020D0001A46FB681343FB607B681B68AC331846E9
:1020E000FEF75CFB03461B061A46FB681343FB60C6
:1020F00001E000BE00BFFB6818461037BD4680BD3A
:1021000080B584B000AF78600B46FB707B681B68BD
:10211000FB60FB781F2B00D900BEFB781F2B12D869
:10212000FB789B001A46FB681344FB60F868FEF7D7
:102130004DFB0346BB60BB6843F00803BB60B96856
:10214000F868FEF741FB00BF1037BD4680BD80B583
:1021500084B000AF78600B46FB707B681B68FB6047
:10216000FB781F2B00D900BEFB781F2B12D8FB7801
:102170009B001A46FB681344FB60F868FEF726FBD9
:102180000346BB60BB6823F00803BB60B968F8680E
:10219000FEF71AFB00BF1037BD4680BD80B584B086
:1021A00000AF78600B46FB70FB78012202FA03F364
:1021B000FB607B681B79012B0CD0022B02D0002B1B
:1021C0001AD03FE07B681B688033F9681846FEF739
:1021D000CBFA39E07B681B688033F9681846FEF754
:1021E000DBFA7B681B6803F18402FB681B0C194651
:1021F0001046FEF7D1FA27E07B681B688033F96848
:102200001846FEF7E1FA7B681B6803F18402FB685D
:102210001B0A19461046FEF7D7FA7B681B6803F1C4
:102220008802FB681B0C19461046FEF7CDFA7B6846
:102230001B6803F18C02FB681B0E19461046FEF763
:10224000C3FA01E000BE00BF00BF1037BD4680BD2D
:1022500080B500AF00F0FAF8044A044B5B6943F420
:1022600000735361FEF7E6F800BF80BD00ED00E0AB
:1022700080B588B000AF304BD3F8983003F080635E
:10228000FB61FB69002B4CD12B4BD3F8983003F446
:102290008053BB61BB69002B15D1284B284A1A60BB
:1022A000284B274A1A60284B254A1A60274B284A90
:1022B0001A60284B284A1A60284B214A1A60284B7A
:1022C0001F4A1A6034E0274A3B1D92E8030083E866
:1022D0000300194BD3F89C309B0903F007037B6183
:1022E0003A1D7B6913441B78FB74FB7C012B0AD0DD
:1022F000022B0DD0002B0FD100F038F8F860F868F1
:1023000000F052F814E04FF4004000F04DF80FE0F8
:10231000154800F049F80BE0134800F045F800BFFD
:1023200006E000F023F8F860F86800F03DF8FFE7F9
:1023300000BF2037BD4680BD0080034014650020EB
:10234000003B5808186500201C650020206500200F
:10235000C00E160224650020801D2C042865002074
:102360002C650020DC61002040420F0080B483B067
:1023700000AF0A4BD3F8503103F004033B603B68D5
:10238000002B02D1064B7B6001E0064B7B607B6833
:1023900018460C37BD4680BC704700BF0080034024
:1023A00040787D0180F0FA0280B483B000AF78609D
:1023B0000C4A7B6813600C4A7B6813600B4A7B688D
:1023C00013600B4B0B4A1A600B4A7B6813600B4A75
:1023D0007B6813600A4A7B68136000BF0C37BD46F8
:1023E00080BC704714650020186500201C65002023
:1023F00020650020C00E16022465002028650020FC
:102400002C65002080B483B000AF0E4BD3F84C3164
:102410003B603B684FF60202934203D00A4A934264
:1024200003D005E001237B6005E002237B6002E02E
:1024300000237B6000BF7B6818460C37BD4680BC1C
:10244000704700BF0080034002F8010080B582B0F1
:1024500000AFFFF7D7FF78607B68012B00D002E068
:1024600000F006F800BF00BF0837BD4680BD000081
:1024700080B400AF094A094BD3F8983043F4807315
:10248000C2F89830054A054BD3F8983023F08063A2
:10249000C2F8983000BFBD4680BC70470080034042
:1024A00080B483B000AF0346FB71084997F9073049
:1024B0005B09FA7902F01F02012000FA02F241F8EA
:1024C000232000BF0C37BD4680BC704700E100E010
:1024D00080B483B000AF0346FB71094997F9073018
:1024E0005B09FA7902F01F02012000FA02F22033A0
:1024F00041F8232000BF0C37BD4680BC704700BFA9
:1025000000E100E080B483B000AF0346FB710949ED
:1025100097F907305B09FA7902F01F02012000FAEF
:1025200002F2603341F8232000BF0C37BD4680BC67
:10253000704700BF00E100E080B483B000AF034605
:102540003960FB7197F90730002B0BDA0D49FB79E5
:1025500003F00F03043B3A68D2B21201D2B20B442B
:102560001A7609E0084997F907303A68D2B21201A1
:10257000D2B20B4483F8002300BF0C37BD4680BCA9
:10258000704700BF00ED00E000E100E080B582B0E0
:1025900000AF0346FB710E20FFF79AFF104A104B65
:1025A0009B6C23F0400393644FF0402300225A6554
:1025B0000C4B0022C3F880210A4B0022C3F888216B
:1025C000084AFB79C2F884314FF0402301221A6196
:1025D0000E20FFF797FF00BF0837BD4680BD00BF44
:1025E000008003400000084280B400AF034B01228A
:1025F000C3F8802100BFBD4680BC70470000084280
:1026000080B483B000AF78604FF040227B685360A5
:1026100000BF0C37BD4680BC7047000080B500AFDE
:10262000044B0122C3F888210E20FFF739FF00BFB9
:1026300080BD00BF0000084280B500AF044B0022FF
:10264000C3F888210E20FFF743FF00BF80BD00BF05
:102650000000084280B400AF4FF0402301221A610D
:10266000BFF34F8F00BFBD4680BC704780B58AB0B6
:1026700000AF03F0A7FB574800F03AFD40F69F7308
:1026800004224FF0A0415448FFF749FAC82000F057
:1026900025F9524800F02CFD4FF4FA7000F01EF9B5
:1026A00008224F494F48FFF7ADF84E48FFF70BF9A6
:1026B0004C490320FDF732FF4A4A03210120FEF76F
:1026C00001F83B4620220021184600F09BFD012323
:1026D000252245494548FEF78FFF454800F008FD93
:1026E000FFF7C6FD022243494348FFF7AFFB05222F
:1026F00000214148FFF713FC052201213E48FFF766
:102700000EFC052202213C48FFF709FC3B4B1B68ED
:1027100019463948FFF72AFC432200213648FFF7C3
:10272000FEFB432201213448FFF7F9FB0522022179
:102730003148FFF7F4FB324800F0DAFC00212E4864
:10274000FFF7DEFC01212C48FFF7DAFC2320FFF71E
:10275000A7FE2420FFF7A4FE06212320FFF7ECFEAE
:1027600005212420FFF7E8FE264B1A6813469B003C
:1027700013443B620020FFF709FF386AFFF740FF70
:10278000FFF732FFFFF74AFF1F4800F0B1FC174880
:10279000FFF71BF80346002B06D13B4620221946C3
:1027A0001248FEF7B2FF78627B6A002BEFD03B78CD
:1027B000412BECD1154800F09BFC00233B7001221B
:1027C00001210548FFF7E0FA002201210248FFF746
:1027D000DBFADCE7E46100209C7100201462002039
:1027E0000040005054710020002000504C71002027
:1027F0004C62002000100030447100203065002041
:10280000686200201865002080620020A06200201D
:1028100098B500AF03F0D6FA0B490120FDF722FF6F
:1028200007A3D3E9002300F029FA03460C461A4611
:102830002346064800F05CFCFFF70CFF00BF98BD84
:10284000E17A14AE47E1024054710020C0620020DA
:1028500080B500AF00211248FFF779FC0121104834
:10286000FFF775FC03F0AEFA0E4800F041FC0021C2
:102870000B48FFF793FC01210948FFF78FFC00216B
:102880000748FFF73DFC01210548FFF739FC0648E2
:1028900000F02EFC4FF47A6000F020F8F7E700BF5C
:1028A00044710020DC620020F462002080B500AF9B
:1028B000FFF7C2FE00210648FFF749FC03F082FA49
:1028C000044800F015FC044800F012FC00BF80BD75
:1028D00044710020086300205463002080B485B058
:1028E00000AF78600023FB6002E0FB680133FB600F
:1028F0007B6841F6641202FB03F2FB689A42F4DC47
:1029000000BF1437BD4680BC7047000081F0004115
:1029100002E000BF83F0004330B54FEA41044FEAC4
:10292000430594EA050F08BF90EA020F1FBF54EA5F
:10293000000C55EA020C7FEA645C7FEA655C00F0FB
:10294000E2804FEA5454D4EB5555B8BF6D420CDDCC
:102950002C4480EA020281EA030382EA000083EA4F
:10296000010180EA020281EA0303362D88BF30BDEF
:1029700011F0004F4FEA01314FF4801C4CEA113145
:1029800002D0404261EB410113F0004F4FEA0333A4
:102990004CEA133302D0524263EB430394EA050F2F
:1029A00000F0A780A4F10104D5F1200E0DDB02FA9E
:1029B0000EFC22FA05F2801841F1000103FA0EF232
:1029C000801843FA05F359410EE0A5F120050EF1F8
:1029D000200E012A03FA0EFC28BF4CF0020C43FA29
:1029E00005F3C01851EBE37101F0004507D54FF036
:1029F000000EDCF1000C7EEB00006EEB0101B1F586
:102A0000801F1BD3B1F5001F0CD349085FEA3000CB
:102A10004FEA3C0C04F101044FEA445212F5800FD6
:102A200080F09A80BCF1004F08BF5FEA500C50F173
:102A3000000041EB045141EA050130BD5FEA4C0C56
:102A4000404141EB010111F4801FA4F10104E9D1DF
:102A500091F0000F04BF01460020B1FA81F308BFD6
:102A60002033A3F10B03B3F120020CDA0C3208DDA2
:102A700002F1140CC2F10C0201FA0CF021FA02F17D
:102A80000CE002F11402D8BFC2F1200C01FA02F1ED
:102A900020FA0CFCDCBF41EA0C019040E41AA2BF12
:102AA00001EB0451294330BD6FEA04041F3C1CDADA
:102AB0000C340EDC04F11404C4F1200220FA04F0FA
:102AC00001FA02F340EA030021FA04F345EA0301A4
:102AD00030BDC4F10C04C4F1200220FA02F001FA66
:102AE00004F340EA0300294630BD21FA04F02946E8
:102AF00030BD94F0000F83F4801306BF81F4801181
:102B00000134013D4EE77FEA645C18BF7FEA655CF3
:102B100029D094EA050F08BF90EA020F05D054EAC5
:102B2000000C04BF1946104630BD91EA030F1EBFCA
:102B30000021002030BD5FEA545C05D140004941CE
:102B400028BF41F0004130BD14F580043CBF01F5C1
:102B5000801130BD01F0004545F0FE4141F47001A7
:102B60004FF0000030BD7FEA645C1ABF1946104682
:102B70007FEA655C1CBF0B46024650EA013406BF83
:102B800052EA033591EA030F41F4002130BD00BF42
:102B900090F0000F04BF0021704730B54FF48064FF
:102BA00004F132044FF000054FF0000150E700BF80
:102BB00090F0000F04BF0021704730B54FF48064DF
:102BC00004F1320410F0004548BF40424FF00001CC
:102BD0003EE700BF42004FEAE2014FEA31014FEA0F
:102BE00002701FBF12F07F4393F07F4F81F060515E
:102BF000704792F0000F14BF93F07F4F704730B5CD
:102C00004FF4607401F0004521F0004120E700BF5F
:102C100050EA010208BF704730B54FF000050AE0E6
:102C200050EA010208BF704730B511F0004502D5E7
:102C3000404261EB41014FF4806404F132045FEAE9
:102C4000915C3FF4DCAE4FF003025FEADC0C18BF8E
:102C500003325FEADC0C18BF033202EBDC02C2F184
:102C6000200300FA03FC20FA02F001FA03FE40EA16
:102C70000E0021FA02F11444C1E600BF70B54FF016
:102C8000FF0C4CF4E06C1CEA11541DBF1CEA1355F8
:102C900094EA0C0F95EA0C0F00F0DEF82C4481EA60
:102CA000030621EA4C5123EA4C5350EA013518BF80
:102CB00052EA033541F4801143F4801338D0A0FB6D
:102CC00002CE4FF00005E1FB02E506F00042E0FB1A
:102CD00003E54FF00006E1FB03569CF0000F18BF20
:102CE0004EF0010EA4F1FF04B6F5007F64F54074C8
:102CF00004D25FEA4E0E6D4146EB060642EAC6215B
:102D000041EA55514FEAC52040EA5E504FEACE2EC7
:102D1000B4F1FD0C88BFBCF5E06F1ED8BEF1004FCA
:102D200008BF5FEA500E50F1000041EB045170BD46
:102D300006F0004646EA010140EA020081EA03018A
:102D4000B4EB5C04C2BFD4EB0C0541EA045170BD86
:102D500041F480114FF0000E013C00F3AB8014F100
:102D6000360FDEBF002001F0004170BDC4F1000449
:102D7000203C35DA0C341BDC04F11404C4F12005CA
:102D800000FA05F320FA04F001FA05F240EA020025
:102D900001F0004221F0004110EBD37021FA04F65B
:102DA00042EB06015EEA430E08BF20EAD37070BD15
:102DB000C4F10C04C4F1200500FA04F320FA05F074
:102DC00001FA04F240EA020001F0004110EBD37076
:102DD00041F100015EEA430E08BF20EAD37070BDE6
:102DE000C4F1200500FA05F24EEA020E20FA04F3BF
:102DF00001FA05F243EA020321FA04F001F000416E
:102E000021FA04F220EA020000EBD3705EEA430EDE
:102E100008BF20EAD37070BD94F0000F0FD101F00D
:102E20000046400041EB010111F4801F08BF013C46
:102E3000F7D041EA060195F0000F18BF704703F084
:102E40000046520043EB030313F4801F08BF013D0B
:102E5000F7D043EA0603704794EA0C0F0CEA1355C7
:102E600018BF95EA0C0F0CD050EA410618BF52EA81
:102E70004306D1D181EA030101F000414FF0000087
:102E800070BD50EA410606BF1046194652EA430695
:102E900019D094EA0C0F02D150EA013613D195EA09
:102EA0000C0F05D152EA03361CBF104619460AD151
:102EB00081EA030101F0004141F0FE4141F470015B
:102EC0004FF0000070BD41F0FE4141F4780170BD4B
:102ED00070B54FF0FF0C4CF4E06C1CEA11541DBFB0
:102EE0001CEA135594EA0C0F95EA0C0F00F0A7F8B2
:102EF000A4EB050481EA030E52EA03354FEA0131DF
:102F000000F088804FEA03334FF0805545EA1313F1
:102F100043EA12634FEA022245EA111545EA1065B9
:102F20004FEA00260EF000419D4208BF964244F150
:102F3000FD0404F5407402D25B084FEA3202B61A6F
:102F400065EB03055B084FEA32024FF480104FF443
:102F5000002CB6EB020E75EB030E22BFB61A7546B7
:102F600040EA0C005B084FEA3202B6EB020E75EB4A
:102F7000030E22BFB61A754640EA5C005B084FEAB2
:102F80003202B6EB020E75EB030E22BFB61A75467F
:102F900040EA9C005B084FEA3202B6EB020E75EB8A
:102FA000030E22BFB61A754640EADC0055EA060E4B
:102FB00018D04FEA051545EA16754FEA06164FEA8E
:102FC000C30343EA52734FEAC2025FEA1C1CC0D13A
:102FD00011F4801F0BD141EA00014FF000004FF0C7
:102FE000004CB6E711F4801F04BF01430020B4F188
:102FF000FD0C88BFBCF5E06F3FF6AFAEB5EB030C40
:1030000004BFB6EB020C5FEA500C50F1000041EB3C
:10301000045170BD0EF0004E4EEA113114EB5C0409
:10302000C2BFD4EB0C0541EA045170BD41F48011DC
:103030004FF0000E013C90E645EA060E8DE60CEAE4
:10304000135594EA0C0F08BF95EA0C0F3FF43BAF01
:1030500094EA0C0F0AD150EA01347FF434AF95EAB8
:103060000C0F7FF425AF104619462CE795EA0C0F9C
:1030700006D152EA03353FF4FDAE1046194622E769
:1030800050EA410618BF52EA43067FF4C5AE50EA43
:1030900041047FF40DAF52EA43057FF4EBAE12E733
:1030A00070B50F4E0F4D761BB61018BF002405D01B
:1030B000013455F8043B9847A642F9D10A4E0B4D0E
:1030C00003F008FA761BB61018BF002406D00134AE
:1030D00055F8043B9847A642F9D170BD70BD00BFBA
:1030E000EC640020EC640020F4640020EC64002018
:1030F0000FB410B5074B82B004AC54F8042B186819
:1031000023468168019400F00BF902B0BDE810403D
:1031100004B0704734650020844641EA000313F090
:10312000030349D1403A23D30B6803604B684360E3
:103130008B688360CB68C3600B6903614B69436133
:103140008B698361CB69C3610B6A03624B6A43621B
:103150008B6A8362CB6AC3620B6B03634B6B436303
:103160008B6B8363CB6BC36340304031403ADBD21F
:1031700030320BD30B6803604B6843608B6883600D
:10318000CB68C36010301031103AF3D20C3205D343
:1031900051F8043B40F8043B043AF9D2043208D019
:1031A000D2071CBF11F8013B00F8013B01D30B888B
:1031B00003806046704700BF082A13D38B07B1D045
:1031C00010F00303AED0C3F10403D21ADB071CBF17
:1031D00011F8013B00F8013BA4D331F8023B20F881
:1031E000023B9FE7043AD9D3013A11F8013B00F8BA
:1031F000013BF9D20B7803704B7843708B78837066
:103200006046704770B4860746D0541E002A41D0ED
:10321000CAB2034602E014F1FF343BD303F8012B9A
:103220009D07F8D1032C2ED9CDB245EA05250F2CE8
:1032300045EA054519D9264603F11002103E0F2E26
:1032400042F8105C42F80C5C42F8085C42F8045CFE
:1032500002F11002F2D8A4F1100222F00F0204F0E1
:103260000F041032032C13440DD91E462246043A93
:10327000032A46F8045BFAD8221F22F00302043224
:10328000134404F003042CB1C9B21C4403F8011B1D
:103290009C42FBD170BC704714460346C2E700BF96
:1032A0002DE9F84F4B6E93469C042FD59368126816
:1032B00053B30E46074602F1080919E920045FEAF4
:1032C0009A0817D00024043D01E0A04510D03246F2
:1032D00055F8041F384601F0B5F8431C04F1010409
:1032E000F3D10023CBF80830CBF80430BDE8F88FD9
:1032F000DBF808302AF0030AA3EB0A03CBF8083006
:1033000009F10809002BD8D10020EAE701F004FAFE
:103310000023CBF80830CBF80430BDE8F88F00BFAD
:103320002DE9F04FADB01D468B46904607930690B1
:1033300018B1836B002B00F0F380DBF86430BBF92D
:103340000C00DF0781B202D48E0540F1FC808C04B2
:103350000AD4DBF8643040F4005123F40053ABF896
:103360000C10CBF8643089B2080740F1B380DBF869
:103370001030002B00F0AE8001F01A030A2B00F091
:10338000B58000230DF1700AD1460B93039311937E
:103390001093CDF83CA0CDF810B098F8003044461A
:1033A000FBB1252B02D11CE0252B03D014F8013FE3
:1033B000002BF9D1A4EB08059DB1109B119A0133A4
:1033C0002A44072BC9F80080C9F8045011921093C1
:1033D0007ADD002A40F0B584D146039B10922B443D
:1033E00003932378002B00F0E58300204FF00003C7
:1033F00004F101088DF83730627806460546034629
:103400004FF0FF3408F10108A2F12001582900F221
:10341000D982DFE811F02802D702D7023002D702A2
:10342000D702D702D702D702D702A0008802D7025C
:10343000A800B802D702A601AB01AB01AB01AB01FA
:10344000AB01AB01AB01AB01AB01D702D702D70295
:10345000D702D702D702D702D702D702D702B901C3
:10346000D702D702D702D702D702D702D702D70294
:10347000D702D7029E01D702D702D702D702D702BE
:10348000A201D702D7025A02D702D702D702D70227
:10349000D702D702D702D702D702D702610222028F
:1034A000D702D702D70276022202D702D7027B02C6
:1034B000D702FC0189011002D202D7029502D7027D
:1034C000AD00D702D702350209F10809039B2B444E
:1034D000039386E75946069800F0AAFD18BBBBF88F
:1034E0000C1001F01A030A2B7FF44BAFBBF90E301E
:1034F000002BFFF646AFDBF86430DB0705D48F0501
:1035000003D4DBF8580001F0BDFA2B464246594679
:10351000069800F049FD039003982DB0BDE8F08FA8
:1035200000F0EEFE09E7DBF86430D90704D4BBF8FD
:103530000C309A0540F1AE844FF0FF3303930398AB
:103540002DB0BDE8F08FDBF8580001F099FABBF917
:103550000C0081B2FBE607990A460D680432002D83
:10356000079202DA6D4243F0040398F8002049E71D
:1035700008959E0600F15A840799DD060A4600F177
:10358000EF83580640F1EC83002701220E880431B6
:1035900007914FF0000100258DF83710611C00F0F5
:1035A000178123F08001029156EA070140F015814E
:1035B000002C40F05B83002A40F0B68313F0010337
:1035C000059300F0558430230DF1B00B0BF8413D0D
:1035D000059BA342B8BF234601930DB1013301936C
:1035E000029B13F00203099302D0019B0233019363
:1035F000029B13F084030A9340F01582089B019A02
:103600009D1A002D40F30F82102D40F38484109BEF
:10361000CE461027A146119AC54E1946069C07E0D2
:1036200001F1020C01460EF1080E103D102D11DDC6
:10363000481C1032072811928EE8C0001090EFDD70
:10364000002A40F0D981103D102D11464FF0010C99
:10365000D646EDDC4C466146F1462A4407291192D4
:10366000C9F80060C9F80450109100F3EB829DF88E
:10367000375009F10809481C002D40F0DC81099BF6
:10368000002B00F0F68102210EAB0A4407281192AC
:103690001090C9F80410C9F8003040F3E681002A00
:1036A00040F095830A9B0120802B1146D14640F0C3
:1036B000E481089B019D5E1B002E40F3DE81102EED
:1036C00040F33C84CC461027A1469A4D069C07E067
:1036D00001F1020E01460CF1080C103E102E11DD16
:1036E000481C1032072811928CE8A0001090EFDDE2
:1036F000002A40F09B82103E102E4FF0010E114622
:10370000D446EDDC4C46E1463244BEF1070F11923F
:1037100089E86000CDF840E000F3668309F108090C
:103720000EF101007146A8E1089513F0200240F067
:10373000898313F0100140F0198313F0400200F068
:10374000158307980A460146043106880027079129
:103750001FE7089543F01003E7E7089543F01003CF
:1037600007E743F0800398F800204BE60025A2F11C
:10377000300118F8012B05EB850501EB4505A2F199
:1037800030010929F5D93FE60895002840F0028468
:1037900043F010039E0600F13D830799DD060A46BB
:1037A00000F1F082580640F1ED82B1F90060043278
:1037B000F717304639460792002871F10002C0F22F
:1037C0005A83611C9DF837504FF001027FF4E9AE37
:1037D00056EA070100F04B820293012A00F08A8228
:1037E000022A40F05A82D3460B98330943EA077302
:1037F000390906F00F020F461E46835C0BF8013DA7
:1038000056EA0703F1D1AAEB0B030593E0E6002883
:1038100040F0BD83990600F15983DA0600F1E58096
:103820005B0640F1E280079A136804320792BDF804
:103830000C201A80B1E5782230210895079D8DF87B
:1038400039202A1D07923C4A2E680B9243F002034E
:103850008DF83810002702229BE60895002899D0A1
:103860008DF8376096E798F80020002E7FF4CAADF7
:1038700001202026C6E543F0010398F80020C1E5A9
:103880000895002840F080832B490B919F0600F19A
:10389000E5820798DE06014600F16F825D0640F181
:1038A0006C820027043106880791D80740F12082F6
:1038B00056EA070100F01C8230218DF8392043F0D0
:1038C00002038DF83810022263E60895002840F0C4
:1038D00055831A490B91D9E70122079811460192A5
:1038E00002684FF000048DF8482002460432089523
:1038F0008DF83740059107920DF1480B0293002493
:103900006EE643F0400398F800207BE598F800202D
:103910006C2A03BF98F8012043F0200308F1010846
:1039200043F010036EE598F8002001202B2669E58E
:103930009C630020AC630020806300206C63002047
:103940004FF0000207990895D1F800B08DF83720A4
:103950000D1DBBF1000F00F0E482671C00F0C38274
:10396000224600215846019301F0BEFB019B00282E
:1039700000F0E882A0EB0B020795059202939DF8F8
:103980003750002424E698F8002008F101072A2A7D
:1039900000F0E982A2F130010929B8464FF0000495
:1039A0003FF632AD18F8012B04EB840401EB44041C
:1039B000A2F130010929F5D926E543F0200398F852
:1039C00000201FE50895002840F0DB82002A00F067
:1039D000F18001218DF848204FF0000201918DF80F
:1039E000372005910DF1480B88E7079A13680432D8
:1039F0000792039A1A60D0E40FAA04992046FFF7B1
:103A00004FFC002840F043811099D646119A01F1ED
:103A1000010C0AE60FAA04990698FFF741FC00285A
:103A200040F03581D14610999DF83750119A481CC5
:103A3000002D3FF424AE01210DF137050A4407287B
:103A400011921090C9F80410C9F8005040F3098190
:103A5000002A40F0AF81099B002B3FF423AE0222E5
:103A60000846D1460EAB1D921C93014609F1080988
:103A700001300A9B802B3FF41CAE059BE41A002CFE
:103A80002FDD102C40F32082CE461026B24D069F2B
:103A9000DDF8109006E0881C19460EF1080E103C67
:103AA000102C10DD4B1C1032072B11928EE8600099
:103AB0001093F0DD002A65D1103C102C4FF001006E
:103AC0001146D646EEDCF146224407281192C9F889
:103AD0000050C9F80440109000F3858009F10809EE
:103AE0000130059907280A441192C9F800B0C9F8B5
:103AF0000410109040F38280002A40F01881029B4D
:103B00001092580735D5089B01995C1A002C40F398
:103B1000E780D146102C40F30D82102510998F4E6E
:103B2000069FDDF810B006E0881C194609F1080967
:103B3000103C102C11DD4B1C1032072B1192C9F8D0
:103B40000060C9F804501093EEDD42BB103C102C0D
:103B50004FF001001146D146EDDC224407281192B6
:103B6000C9F80060C9F80440109051DD002A40F007
:103B70009A81039B089A01998A42ACBF9B185B18F3
:103B800003934EE00FAA49463846FFF789FB002809
:103B900040F03E811099D646119A481C7FE70FAA43
:103BA00059463846FFF77CFB60B91099D146119A07
:103BB000481CBDE7119BDDF810B0002B40F0CA8116
:103BC00000231093DBF8643013F0010FBBF80C30C6
:103BD00002D19A0540F1DD805B063FF5ADAC03985C
:103BE0002DB0BDE8F08F002A40F005810123D146B9
:103BF000059ACDF870B01D921192109309F1080941
:103C0000029B590704D5089B01995C1A002C81DCA2
:103C1000039B089901988142ACBF5B181B18039362
:103C200072BB0023D1461093FFF7B7BB0FAA0499CC
:103C30002046FFF735FB50BB1099D446119A01F18D
:103C4000010E4AE5002A7FF4E5AE9DF83710002901
:103C500000F01A810122D14610460DF137011D9264
:103C60001C91014609F10809013008E5029B012A6F
:103C700000F09780022A0DD1029300260027B2E5BA
:103C80000FAA04990698FFF70BFB0028C9D0DDF8AE
:103C900010B097E7002600270293514600E05946EE
:103CA000F20842EA4772F80806F00703074616468C
:103CB000303356EA070201F8013C01F1FF3BEED137
:103CC000029AD6077FF59FAD302B3FF49CAD302391
:103CD00002390BF8013CAAEB010305938B4677E40C
:103CE000039B089A8A42ACBF9B185B18039398E722
:103CF00002224EE4002F08BF0A2E51D3D34630468D
:103D000039460A22002301F0ABFE30320BF8012DB8
:103D10003046394600230A2201F0A2FE06460F462D
:103D200056EA0703EBD16EE50594D34650E40FAA9B
:103D300004990698FFF7B4FA0028A8D1D146119A41
:103D40005EE70FAA04990698FFF7AAFA00289ED109
:103D5000D146FFF7BBBB00BFAC6300209C630020D3
:103D60000431166800270122079112E40798002702
:103D700001460431066807910BE40E68043107918F
:103D8000002792E516680432F71707923046394645
:103D900012E5DBF8580000F075FEBBF80C301BE7AD
:103DA000029B029301230DF1B00B30360BF8416DED
:103DB00005930DE40FAA04990698FFF771FA0028FD
:103DC0007FF465AF1099D146119A481C57E40FAAA9
:103DD00004990698FFF764FA00287FF458AF109909
:103DE000D146119A481C44E6002A40F08780012001
:103DF0001146D14641E60FAA04990698FFF750FAFA
:103E000000287FF444AF1098D146119A013068E63B
:103E1000CB46D7E6079D073525F0070505F10802D3
:103E2000D5E90001079206460F46C5E4079D073510
:103E300025F0070202F10801D2E90067079101228B
:103E4000FFF7A7BB079D073525F0070202F1080120
:103E5000D2E9006707910022FFF79BBB079D07355A
:103E600025F0070101F108000790D1E900671CE582
:103E7000D346FFF7ADBB2D25764267EB47078DF89C
:103E800037500122FFF78ABB099BB3B911460120C5
:103E9000D146F2E5DBF8580000F0F4FD4FF0FF33B7
:103EA0000393FFF74CBB0FAA04990698FFF7F8F9A4
:103EB00000287FF4ECAE119AAAE602220EAB1D9206
:103EC0001C930120D146D0E5344DFDE5079A1346F9
:103ED00004330793039B1168DD171A462B46C1E98B
:103EE0000023FFF75ABA58460795029301F0BEFB2C
:103EF000002405909DF83750FFF76ABB0FAA04997C
:103F00000698FFF7CDF900287FF4C1AE1099D1468D
:103F1000119A481CB1E51099119A0131204EFFF712
:103F20009CBB062C28BF0624079505940194DFF856
:103F300074B0E3E410981A4E01300EE68646174D31
:103F4000FFF7E2BB05940795029304469DF83750AE
:103F5000FFF73EBB06980FAA5946FFF7A1F90028C4
:103F60003FF42EAE2EE6079998F801200C68043134
:103F700044EAE474B8460791FFF744BA8DF8376015
:103F8000A7E48DF8376021E58DF837607CE48DF883
:103F900037603FE48DF83760FFF7FABBAC63002071
:103FA0009C630020946300202DE9F0410C464FF003
:103FB000000E4FF48065064617469846626EE38908
:103FC0008989ADF58D6D21F002011992ADF80E30A1
:103FD000E269636AADF80C1016A81AA9CDF818E0CA
:103FE00007920993009104910295059500F044FD14
:103FF00043463A4669463046FFF792F9051E07DB0D
:104000003046694600F024F9002818BF4FF0FF350C
:10401000BDF80C305B0603D5A38943F04003A381B0
:10402000169800F02BFD28460DF58D6DBDE8F0814A
:1040300038B5304B054618680C4610B1836B002B21
:1040400038D0B4F90C2093B218070CD52069A8B168
:1040500013F001021ED000226369A2605B42A361DB
:10406000F0B1002038BDD9063BD5580725D42069CA
:1040700042F00803A3819BB20028E9D103F4207227
:10408000B2F5007FE4D02846214600F02BFDA3893D
:104090002069DDE7990758BF6269A2600028E0D176
:1040A000B4F90C301A06DDD543F04003A3814FF07C
:1040B000FF3038BD00F024F9C3E7216B51B104F1A2
:1040C0004003994204D0284600F040FAB4F90C208D
:1040D000002323630023206922F0240284E80900DE
:1040E000C6E7092342F040022B604FF0FF30A28167
:1040F00038BD00BF34650020024B13B1024800F008
:1041000005B87047000000007943002000230146F5
:104110001A46184601F07CBBB1F90C302DE9F0418C
:104120009AB20D46110780463AD46A6843F4006398
:10413000002AAB8170DDAC6A002C4AD000229BB211
:10414000D8F80060C8F8002013F4805268D02A6DB7
:104150005F0705D569682B6B521A0BB1EB6BD21A4E
:104160000023E9694046A047441C3DD00021B5F931
:104170000C302A6923F40063AB81DB0469602A6098
:1041800048D4296BC8F8006019B305F1400399427F
:1041900002D0404600F0DAF900202863BDE8F08143
:1041A0002E69B6B1910718BF00232C6808BF6B6950
:1041B0002E60A41BAB600AE0234632466F6AE969B1
:1041C0004046B8470028A4EB0004064404DD002C58
:1041D000F2DC0020BDE8F081AB894FF0FF3043F006
:1041E0004003AB81BDE8F081D8F800401D2CF3D826
:1041F000164BE340DB4313F00103EDD1B5F90C207E
:10420000296922F40062AA81D2046B602960B8D5C2
:10421000002CB6D12865B4E7EA6B002A8BDCD8E71E
:104220000123E9694046A047431C024602D0AB89FE
:10423000AC6A8DE7D8F80030002BF8D01D2B01D0E8
:10424000162BC9D1C8F80060C3E700BF01004020A9
:1042500038B50D46044608B1836BBBB1B5F90C0007
:1042600088B16B6EDB0701D4810517D5204629463E
:10427000FFF752FF6B6E0446DA0702D4AB899B0549
:1042800007D5204638BD0446204638BD00F038F832
:10429000E4E7A86D00F0F6FB204638BDA86D00F0FD
:1042A000EFFBE3E7014900F0B1BB00BFF958002084
:1042B000002310B504468181C2810360436083609E
:1042C0004366036143618361194608225C30FEF74F
:1042D00099FF07480749084A084B2062E461616278
:1042E000A262E36204F15800BDE8104000F0C4BBD4
:1042F000E55500200956002045560020655600204F
:1043000010B50446144800F0BBFBA26BFAB90320B9
:10431000124904F53B73C4F8E832C4F8E022C4F84B
:10432000E402E16360680421FFF7C2FFA068012294
:104330000921FFF7BDFFE06802221221FFF7B8FF55
:1043400001230548A363BDE8104000F09BBB024871
:10435000BDE8104000F096BBAC710020A5420020E3
:10436000014800F08DBB00BFC0710020014800F083
:1043700089BB00BFC071002038B50A4C0A4D641BD0
:10438000A4100AD004F18043013B05EB8305013CF6
:1043900055F804399847002CF9D1BDE8384002F0AF
:1043A0009FB800BFF8640020F46400202DE9F043BA
:1043B00083B007468846144600F050FB012833D0EE
:1043C000424604F15C0301A9384601F0D5F9421CCC
:1043D000064622D090B39DF8041000250DF1040983
:1043E00008E023685A1C226019700135B54225D2B5
:1043F00015F80910A368013B002BA360F1DAA2694C
:10440000934201DB0A29ECD12246384601F05CF9DF
:10441000431CEAD103B0BDE8F083A38943F0400315
:10442000A38103B0BDE8F08308F1FF33FE2BC7D8AA
:104430005FFA88F106468DF80410CEE7404603B0D7
:10444000BDE8F08330B5536E144613F0010FB2F996
:104450000C3083B005469AB201D190051CD590046A
:1044600006D4626E43F4005342F40052A3816266A4
:1044700028462246FFF79AFF636E0546DA0702D404
:10448000A3899B0502D5284603B030BDA06D00F07E
:10449000F9FA284603B030BDA06D019100F0F0FAA2
:1044A000B4F90C3001999AB2D9E700BFF8B50C46BF
:1044B000234F064600F0C2FEBB68C4F57E615D680E
:1044C0000F3125F00305294421F47F6121F00F010C
:1044D000A1F58054B4F5805F07DB0021304601F080
:1044E0006FF8BB682B44984204D0304600F0ACFE15
:1044F0000020F8BD6142304601F062F801300DD075
:10450000104BBA6819682D1B45F001053046091B90
:104510005560196000F098FE0120F8BD002130467A
:1045200001F04EF8BA68831A0F2BDEDD064C054900
:10453000246843F00103001B53600860D5E700BF07
:10454000D06A0020586F0020D86E0020002944D087
:104550002DE9F0410D46804600F070FE55F8047CD0
:104560006949A5F1080427F00103E2188E68506834
:10457000B24220F003005ED0FE0750600BD455F825
:10458000087C01F1080EE41BA5683B4475456DD01D
:10459000E768EF60BD6015186D68ED073ED543F024
:1045A00001026260E350B3F5007F17D20122DB08FD
:1045B00098104D68134451F83370824001EBC300EA
:1045C0002A430838E060A7604A6041F83340FC6045
:1045D0004046BDE8F04100F037BE70475A0A042A51
:1045E00052D89A0902F13907FF0002F13805C819BB
:1045F000CA59083890424FD0516821F003018B42CC
:1046000032D292689042F7D1C368A060E3609C60A8
:10461000C4604046BDE8F04100F016BE95683B4FCF
:104620000344BD4240D0D06843F00102E860856099
:104630006260E350B7E7FF07034407D455F8085C0E
:10464000641BE268A0682B44C2609060304A43F06B
:1046500001001268606093428C60B9D32D4B4046D4
:104660001968FFF723FFB3E71046CDE71118496833
:10467000C90744D491680344D26843F00100CA607A
:1046800091606060E350A3E7142A16D802F15C073A
:10469000FF0002F15B05AAE70123AA104D689340D1
:1046A0002B434B600346B0E743F001024C610C61C1
:1046B000E560A5606260E3508AE7542A06D81A0BC9
:1046C00002F16F07FF0002F16E0590E7B2F5AA7FD5
:1046D00006D8DA0B02F17807FF0002F1770586E7CA
:1046E00040F25450824206D89A0C02F17D07FF0036
:1046F00002F17C057BE74FF47E777E2577E743F078
:1047000001016160136063E7D06A0020D86A00206D
:10471000DC6E0020886F00209368002B71D02DE99B
:10472000F04F8B8983B00C4619070090164625D5AB
:1047300022691AB313F0020035682BD04FF000093C
:10474000B0464F46DFF8C0A2002F55D057453B4634
:104750004A4628BF5346E1690098666AB047002878
:1047600056DDD8F8083081441B1A3F1AC8F80830C3
:10477000002BE9D1002003B0BDE8F08F214600985E
:10478000FFF756FC002840F03581A389356813F007
:104790000200D3D113F0010944D14F46019637B33B
:1047A0009A05D4F8088040F185804745C346C0F09B
:1047B000AD8013F4906F40F0AE80BA4620685A4640
:1047C000494600F0D7FCA2682368A2EB08025B44CC
:1047D000A2602360019AD1449368A7EB0A07A3EB78
:1047E0000A039360002BC5D0A389002FD8D1D5F838
:1047F00000906F680835D2E7D5F800906F680835EB
:10480000A2E70020704721460098FFF721FD78B30A
:10481000B4F90C304FF0FF3043F04003A38103B0F4
:10482000BDE8F08F814633464E46A8469A464D462F
:1048300056B3002832D0B145CB4628BFB3462068D6
:1048400023695F469842626904D9A36813449B4573
:1048500000F3A88093454DDB1346676A2A46E16959
:104860000098B847071ED3DDB9EB0709CBD001206C
:10487000DAF808303D44DB1BF61BCAF80830002B81
:104880003FF478AF002ED4D108F1080353F8046C3C
:10489000984653F8085C0833002EF7D032460A21B8
:1048A000284600F021FC002800F0A1800130A0EB98
:1048B0000509C0E720682369984202D863699F42CE
:1048C0005DD2B84528BFB8464946424600F052FC82
:1048D000A3682268A3EB08034244A36022600BB1E3
:1048E000C24677E721460098FFF7B2FC00288FD137
:1048F000C2466FE75A46294600F03CFCA26823688E
:10490000A2EB0B025B44A2602360ADE7B846BA4657
:10491000BB46206853E762692068216902EB4208C0
:10492000A0EB010A08EBD8780AF101004FEA680809
:1049300038444045424684BF804642465B0544D5E4
:104940001146009800F018F98346002855D05246C9
:104950002169FEF7E1FBA38923F4906343F0800310
:10496000A3810BEB0A00A8EB0A03C4F810B0C4F84B
:1049700014802060A360B846BA46BB461FE76FF0BC
:104980000042BA4228BF3A4692FBF3F2E16903FBC8
:1049900002F300984A46666AB047B0F1000A3FF752
:1049A00019AF35E71A462946019300F0E3FB226868
:1049B000019B21461A4422600098FFF749FC019BA5
:1049C00000287FF425AF1F464EE7009800F042FC18
:1049D00083460028C5D1009D21692846FFF7B6FD12
:1049E0000C22B4F90C302A6023F0800312E706F1A0
:1049F000010920E74FF0FF30BDE60C220099B4F921
:104A00000C300A6006E700BF00FCFF7F2DE9F84389
:104A100010F538761ED0884607464FF000097568B5
:104A2000B468013D10D4A389013D012B08D9B4F924
:104A30000E30013304D021463846C04749EA000908
:104A40006B1C04F16804EED13668002EE7D14846AD
:104A5000BDE8F883B1464846BDE8F883044B054AF3
:104A60001B685B6B002B08BF134693F82801704747
:104A70003465002064690020704700BF704700BFA4
:104A8000704700BF704700BF70B50C46B1F90E10FB
:104A900090B0002915461E4614DB01AA00F08EFFD7
:104AA00000280FDB029A4FF4806302F47042A2F5F3
:104AB0000052B2FA82F24FF40060520932602B6069
:104AC00010B070BD0023A289336012F0800004D0C2
:104AD000402218462A6010B070BD4FF480632B60EE
:104AE00010B070BD8A890B46920706D5012103F1EB
:104AF000430259611A601A617047F0B583B001AB87
:104B00006A460C460646FFF7BFFF00990546304649
:104B100000F032F8B4F90C30D8B19DE80600154F1A
:104B200043F08003F763A3812060206161611AB9BB
:104B30002B43A38103B0F0BD3046B4F90E1000F052
:104B400051FFA0B1A38923F0030343F001031BB27B
:104B5000EEE79A05EED4012123F0030304F14302AA
:104B600043F00203A381616122602261E2E7B4F9AC
:104B70000C30DDE7A54200202DE9F04F01F10B06D6
:104B8000162E83B0054640F29E8036F0070600F1EF
:104B9000BD80B14200F2BA8000F050FBB6F5FC7F58
:104BA000C0F08582730A00F0B880042B00F26C819B
:104BB000B30903F1390003F1380EC100B84F39448D
:104BC0004C680839A14206D10CE0002A80F2AB8083
:104BD000E468A14206D0636823F003039A1B0F2AFE
:104BE000F3DD70463C69DFF8CCE2744500F09E814D
:104BF000636823F003039A1B0F2A00F38381002AC2
:104C0000C7F814E0C7F810E080F29180B3F5007F98
:104C100080F054810122DB0879684FEAA30C134429
:104C200057F8338002FA0CF207EBC30C0A43ACF1DD
:104C30000801E160C4F808807A6047F83340C8F89A
:104C40000C40012483109C4094427DD8144206D12C
:104C500020F003006400144200F10400FAD007EBD6
:104C6000C009CC468046DCF80C309C4507D15FE19A
:104C7000002A80F26D81DB689C4500F059815968FB
:104C800021F003018A1B0F2AF2DDDC68D3F808C08B
:104C900046F0010828461E4442F00105C3F804808E
:104CA000CCF80C40C4F808C07E613E61C6F80CE048
:104CB000C6F808E075605A50009300F0C5FA009BF2
:104CC00003F108041EE0102920D800F0B7FA1026DE
:104CD00018230220724F3B445C68A3F108029442FF
:104CE00000F02F816368E16823F0030323445A68CE
:104CF000A66842F00102F16028468E605A6000F01A
:104D0000A3FA0834204603B0BDE8F08F00240C233A
:104D100020462B6003B0BDE8F08F40204FF40071B7
:104D20004FF03F0E4AE723445A68E168E0E7234426
:104D30005A68284642F001025A60083400F084FAAA
:104D4000204603B0BDE8F08FBC68636823F0030819
:104D5000B04504D3A8EB06030F2B00F38580DFF8E2
:104D60005891504BD9F800201B680132334404EBB2
:104D7000080A00F0548103F580530F3323F47F6B4E
:104D80002BF00F0B5946284600F01AFC411C024636
:104D900000F0FB80824500F2F680434B19685944CD
:104DA000196000F04C81D9F8000001301BBFA2EB64
:104DB0000A0A5144C9F80020196012F0070100F0F6
:104DC0001481C1F10800C1F580510244083102EBA1
:104DD0000B09C9F30B09A1EB0909494628460193C0
:104DE000009200F0EDFB431C9DE80C0000F04281B6
:104DF000801A484440F001001968BC424944BA6036
:104E00001960506017D0B8F10F0F40F2FA804FF0E0
:104E1000050C6268A8F10C0020F0070002F0010206
:104E200004EB000E02430F286260CEF804C0CEF8F7
:104E300008C000F216811D4BBC681A68914288BFF9
:104E400019601B4B1A689142626888BF196022F092
:104E500003029642A2EB060301D80F2B04DC28467E
:104E600000F0F2F900244DE746F0010243F001039F
:104E7000264462602846BE600834736000F0E4F99E
:104E8000204603B0BDE8F08F142B70D9542B00F2EC
:104E9000A280330B03F16F0003F16E0EC1008DE6AB
:104EA000D06A0020886F0020586F0020806F00209B
:104EB000846F0020D86A0020D86E00205A0A042A85
:104EC0005BD9142A00F2AE8002F15C01C9005B32AA
:104ED00007EB010C7958ACF1080C8C4500F0888088
:104EE0004A6822F00302934273D289688C45F7D155
:104EF000DCF80C307A68E360C4F808C09C60CCF839
:104F00000C409EE646F0010C42F001012644C4F834
:104F100004C028467E613E61C6F80CE0C6F808E091
:104F20007160E25000F090F90834EBE67A6888E6A8
:104F300008F1010818F0030F0CF1080C7FF493AE90
:104F40002DE0DC68A34208BF02303FF44BAEC9E657
:104F50001C4619444A68DB6854F8086F42F00102A5
:104F60004A602846F3609E6000F06EF9CAE603F1DD
:104F70005C0003F15B0EC10020E69A0902F13901E1
:104F8000C9003832A4E7BC4254D0BC68626822F041
:104F900003025EE759F80839994540F0868010F021
:104FA000030F00F1FF30F5D17B6823EA04037B6037
:104FB00064009C423FF6C8AE002C3FF4C5AE1C42D4
:104FC00040467FF44CAE64001C4200F10400FAD06D
:104FD00045E68C468CE7B3F5AA7F15D8F30B03F1B1
:104FE000780003F1770EC100E8E54FF48051EEE65A
:104FF00001217B68921001FA02F21A437A6063463B
:1050000079E7012353602AE740F25452934222D8B1
:10501000B30C03F17D0003F17C0EC100CEE503F17A
:10502000100BAFE6542A29D81A0B02F16F01C90000
:105030006E324DE7204B196859441960B3E6CAF344
:105040000B0000287FF4AFAE08EB0B03BA6843F007
:1050500001035360EFE67F204FF47E714FF07E0E28
:10506000ACE504F1080128460093FFF76FFA009BB6
:105070001968E0E601204FF00009BDE6B2F5AA7F0D
:1050800005D8DA0B02F17801C900773220E740F247
:1050900054518A4205D89A0C02F17D01C9007C3234
:1050A00016E74FF47E717E2212E77B6880E7F008F6
:1050B00006F108030EE600BF586F002082B049B128
:1050C0005AB16BB113780B601278101C18BF012015
:1050D00002B0704701A9002AF3D1104602B0704710
:1050E0006FF00100F4E700BF830770B4CDB23DD08C
:1050F000541E0AB30378AB421FD0431C05E014F1E1
:10510000FF3419D30278AA4217D013F0030F1846C0
:1051100003F10103F3D1032C11D84CB30378AB4254
:105120000BD00444431C02E00278AA4205D09C4202
:10513000184603F10103F7D1002070BC7047090243
:1051400089B2294341EA0141036806464B40A3F175
:10515000013222EA030313F0803F00F1040003D17F
:10516000043C032CF0D8D8E73046D7E71446D2E702
:105170002046E2E78842F0B50DD98B1898420AD252
:105180008418002A51D0224613F8014D994202F8A2
:10519000014DF9D1F0BD0F2A48D941EA00039B0720
:1051A00046D1154600F1100401F1100353F8106CBC
:1051B000103D44F8106C53F80C6C0F2D44F80C6C37
:1051C00053F8086C04F1100444F8186C53F8046C9C
:1051D00003F1100344F8146CE8D8A2F1100323F093
:1051E0000F0302F00F0E1033BEF1030F19440344F6
:1051F00021D90E4674461D1F56F8047B043C032C2F
:1052000045F8047FF8D8AEF1040424F00304043414
:105210002144234402F0030262B1013B0A4411F825
:10522000014B8A4203F8014FF9D1F0BD0346F3E781
:105230000346F2E7F0BD7246EEE700BF0148FFF714
:105240001FBC00BFB07100200148FFF71BBC00BFAE
:10525000B0710020002900F094802DE9F04F0C4639
:10526000154683B0804605F10B06FFF7E7FF54F8BB
:1052700004EC162E2EF00307A4F108093CD81022E6
:105280001646B5423DD8974243DAC64B09EB0700B4
:105290009968884200F0C380436823F0010101440B
:1052A0004968C9074DD51EF0010F00F09B802946C3
:1052B0004046FFF761FC054600283BD054F8043C0B
:1052C000A0F1080223F001034B449A4200F02B8125
:1052D0003A1F242A00F21881132A00F2EB800346B9
:1052E0002246116819605168596092689A60214697
:1052F0004046FFF72BF91DE026F00706002E324648
:10530000BFDA00250C232846C8F8003003B0BDE8FA
:10531000F08F2546BB1B0F2BD9F804201DD802F0B7
:1053200001023A4309EB0701C9F804204B6843F036
:1053300001034B604046FFF787FF284603B0BDE8F6
:10534000F08F23F00303F91891421DDBC3688268D4
:105350002546D3600F469A60DCE702F0010209EBB4
:10536000060143F001033243C9F804204F444B6067
:105370007B68083143F001037B604046FFF7E6F8A5
:10538000D8E71146FFF7F8BB1EF0010F8FD154F894
:10539000081CA9EB010ADAF8041021F003010B4400
:1053A0003B44934226DB5546C16880683A1FC16082
:1053B000886055F8080FDAF80C10242AC16088605C
:1053C00026D8132A40F2818021681B2ACAF80810C7
:1053D0006168CAF80C1000F2AD8004F108000AF10F
:1053E000100274E054F8083CA9EB030ADAF8041040
:1053F00021F003017B189342FFF659AF5546DAF8C6
:105400000C1055F8080F3A1F242AC1608860D8D9BB
:10541000214628461F46D146FFF7ACFE7AE7416891
:1054200006F1100021F0030BBB44834558DA1EF04F
:10543000010F7FF43CAF54F8081CA9EB010ADAF81D
:10544000041021F003018B445845D3DC5546DAF8AB
:105450000C1055F8080F3A1F242AC160886000F22A
:105460008D80132A40F2878021681B2ACAF8081011
:105470006168CAF80C1000F2888004F108010AF192
:105480001002086810604868506089689160ABEB52
:1054900006020AEB060142F0010299604A60DAF85E
:1054A0000430404603F001031E43CAF80460FFF7CE
:1054B000CBFE42E723681B2A03606368436027D85A
:1054C00000F1080304F108020BE720462A460168B0
:1054D0001F4611604168D14651608368936019E7A7
:1054E000ABEB060B09EB06014BF0010299604A6039
:1054F00054F8043C404603F001031E4344F8046C96
:10550000FFF7A2FE254618E72146FFF733FEEEE639
:10551000A368242A8360E368C36018D000F11003F5
:1055200004F11002DDE650F8043C254623F00303A5
:105530001F44EFE6A168242ACAF81010E168CAF8EF
:1055400014100DD004F110000AF11802BFE722690F
:1055500000F118030261616904F118024161C0E6BB
:10556000226904F11800CAF8182061690AF12002C2
:10557000CAF81C10ABE721462A4682E72146284696
:105580000193FFF7F7FD019B81E7A168242ACAF880
:105590001010E168CAF8141006D004F110010AF1E5
:1055A00018026EE7D06A0020226904F11801CAF8D7
:1055B000182060690AF12002CAF81C0061E700BFE8
:1055C00038B50023064C05460846236000F03AFD36
:1055D000431C00D038BD2368002BFBD02B6038BDA6
:1055E000C471002010B50C46B1F90E1000F022FA7B
:1055F000002803DB236D0344236510BDA38923F436
:105600008053A38110BD00BF2DE9F0410C46B1F9D4
:105610000C101F46CB051646054607D5B4F90E10EB
:105620000223002200F0F0F9B4F90C1021F48051AB
:10563000A1813B463246B4F90E102846BDE8F04140
:1056400000F0D0B810B50C46B1F90E1000F0DCF93E
:10565000A389421C0EBF23F4805343F4805320657A
:10566000A38110BDB1F90E1000F034B920F0030190
:1056700010F00300C0F1000051F8043B00F1040CED
:105680004FEACC0C6FF000021CBF22FA0CF213435D
:105690004FF0010C4CEA0C2C4CEA0C4CA3EB0C0226
:1056A00022EA030212EACC1204BF51F8043B043090
:1056B000F4D0C2F1000102EA0102B2FA82F2C2F1B0
:1056C0001F0200EBD2007047F8B50D46144606469F
:1056D00010B1836B002B4BD0B4F90C20A36991B2AD
:1056E0000807A36039D52369002B36D0EDB28904B1
:1056F0002F4615D522686169D31A8B421CDA013313
:10570000A168501C0139A1602060157062699A423D
:105710001AD0A389DB0701D50A2D15D03846F8BD6C
:10572000616E42F4005221F40051A2812268616648
:105730006169D31A8B42E2DB21463046FEF788FDD1
:1057400040B901232268DBE721463046FEF780FDA1
:105750000028E3D04FF0FF37E0E721463046FEF760
:1057600067FC0028F6D1B4F90C20236991B2BDE79B
:10577000FEF7C6FDB0E700BFF0B5064685B01F4690
:1057800089B1104C104D2468646B002C08BF2C4666
:10579000D4F8E040A047431C03D100228A233A609A
:1057A000336005B0F0BD0C46064A074D116822462D
:1057B0004C6B01A9002C08BF2C46D4F8E040A04750
:1057C000E9E700BF346500206469002019B1FF2AB1
:1057D00003D80A700121084670478A234FF0FF3131
:1057E0000360F8E7F8B50E460025084C1146074659
:1057F0001A463046256000F0B5FB431C00D0F8BDCA
:105800002368002BFBD03B60F8BD00BFC4710020B3
:105810002DE9F8432C4D0646286898460F469146D8
:10582000FFF72EF9294B1C68D4F84831002B3ED0E5
:105830005A681F2A1CDC02F1010E76B1012103EB2C
:105840008204C4F88890D3F8880191400843022E5E
:10585000C3F88801C4F8088123D00232C3F804E0F9
:10586000286843F82270FFF70DF90020BDE8F8839F
:10587000174B0BB34FF4C870AFF300800346D8B199
:105880000020D4F848114FF0010E5860196002460C
:10589000C4F84831C3F88801C3F88C01002EDCD06D
:1058A000CCE7D3F88C010143C3F88C11D5E704F59C
:1058B000A673C4F84831BBE72868FFF7E3F84FF058
:1058C000FF30BDE8F88300BF6069002068630020F6
:1058D0000000000038B50023064C0546084623604A
:1058E00000F07CFB431C00D038BD2368002BFBD0AC
:1058F0002B6038BDC471002070B559B105460C4607
:1059000010B1836B002B3CD0636ED80705D5B4F97A
:105910000C302BB90026304670BDA38999053CD5C3
:1059200021462846FEF7F8FBE36A064633B1E169F3
:10593000284698470028B8BF4FF0FF36A3891A06BB
:1059400022D4216B41B104F14003994202D0284690
:10595000FEF7FCFD00232363616C21B12846FEF7AE
:10596000F5FD00236364FEF7FBFC0022636EA28159
:10597000DB070ED5A06DFFF781F8FEF7F7FC304688
:1059800070BDFEF7BDFCBFE721692846FEF7DEFDCE
:10599000D7E7A06DFFF776F8ECE7A06DFFF770F89A
:1059A000B4F90C30002BBBD1666E16F00106B1D1F4
:1059B000A06DFFF767F8304670BD00BF70B50D46AB
:1059C0000023074C064611462846236000F086FB5C
:1059D000431C00D070BD2368002BFBD0336070BD2A
:1059E000C471002038B50023064C054608462360E4
:1059F00000F082FB431C00D038BD2368002BFBD095
:105A00002B6038BDC4710020F8B50E460025084C47
:105A1000114607461A463046256000F0A1FA431C9D
:105A200000D0F8BD2368002BFBD03B60F8BD00BF61
:105A3000C4710020F8B50E460025084C11460746F3
:105A40001A463046256000F011FA431C00D0F8BD1C
:105A50002368002BFBD03B60F8BD00BFC471002061
:105A600053B94AB9002908BF00281CBF4FF0FF31C5
:105A70004FF0FF3000F07AB9ADF1080C6DE904CEBB
:105A800000F006F8DDF804E0DDE9022304B0704719
:105A90002DE9F0478C460E460446089D002B50D158
:105AA0008A4217466CD9B2FA82FEBEF1000F0BD0C3
:105AB000CEF1200C01FA0EF620FA0CFC02FA0EF7D9
:105AC0004CEA060C00FA0EF43A0CBCFBF2F9BBB23D
:105AD00002FB19CC09FB03FA4FEA144848EA0C46CA
