:020000042000DA
:1000000000000120910100207F03002081030020D7
:1000100083030020850300208703002000000000E8
:100020000000000000000000000000008903002024
:100030008B030020000000008D0300208F030020B0
:100040009103002093030020691200208D120020EC
:10005000990300209B0300209D0300209F030020A4
:10006000A1030020A3030020A5030020A703002074
:10007000A9030020AB03002041280020AF0300208B
:10008000B1030020B3030020B5030020F9070020CE
:10009000B9030020BB030020BD030020BF030020E4
:1000A000C1030020C3030020C50300200114002069
:1000B000F9140020CB030020CD030020CF03002043
:1000C000D1030020D3030020D50300205D280020A9
:1000D000B9280020DB030020DD030020DF0300201F
:1000E000E1030020E3030020E5030020E7030020F4
:1000F000E9030020EB030020ED030020EF030020C4
:10010000F1030020F3030020F5030020F703002093
:10011000F9030020FB030020FD030020FF03002063
:10012000010400200304002005040020070400202F
:10013000090400200B0400200D0400200F040020FF
:1001400011040020130400201504002017040020CF
:10015000190400201B0400201D0400201F0400209F
:10016000210400202304002025040020270400206F
:10017000290400202B0400202D0400202F0400203F
:1001800031040020330400200000000000000000C3
:100190004FF0000BDFF8BE020068DFF8B612096806
:1001A00001F0030100F01C00142801D14BF0020BF8
:1001B000002901D04BF0010BBBF1000F05D0A7487F
:1001C000A749DFF8722200F09FF8A64880470BF09D
:1001D000020ABAF1000F0CD0DFF86E02DFF86E12DF
:1001E00002680B680FB44FF000024FF0FF0302608B
:1001F0000B609D4800220123022808D1DFF83E123F
:100200000A60DFF842120A60DFF836120B6001283C
:1002100008D1DFF82E120A60DFF82A120A60DFF830
:100220001E120B609148002809D191489149924AC9
:1002300000F032F891489249924A00F02DF8924825
:100240009249934A00F028F892489349DFF8E62152
:1002500000F05AF8BBF1000F12D090489049DFF837
:10026000DA2100F051F80BF0020ABAF1000F07D0C2
:100270000FBC02600B6000BFAFF30080AFF30080E3
:10028000DFF820020FF2030E00474FF000004FF09E
:100290000001DFF814F2FEE72DE9F841884225D08D
:1002A000B2EB010200D5FEE740EA010313F00303BD
:1002B00002D000F01DF819E04FF000039046121133
:1002C000F7D09A421CBFF0C8F0C103F10103F8D186
:1002D00008F00F08B8F1000F08D004780C7000F196
:1002E000010001F10101B8F10108F6D1BDE8F88182
:1002F00008B54FF0000303780B7000F1010001F125
:100300000101013AF7D108BD884237D000F0030659
:10031000002E14D04FF00405A5EB06044FF008079B
:1003200007FB06F8914669FA08F9002C07D080F817
:10033000009069FA07F900F10100013CF5E74FF080
:1003400000060F46091A88460911914614461546BB
:10035000B14206D018BFA0E8340206F10106B1424E
:10036000F8D108F00F08B8F1000F07D002704FEA7B
:10037000322200F10100B8F10108F4E77047FEE70E
:10038000FEE7FEE7FEE7FEE7FEE7FEE7FEE7FEE745
:10039000FEE7FEE7FEE7FEE7FEE7FEE7FEE7FEE735
:1003A000FEE7FEE7FEE7FEE7FEE7FEE7FEE7FEE725
:1003B000FEE7FEE7FEE7FEE7FEE7FEE7FEE7FEE715
:1003C000FEE7FEE7FEE7FEE7FEE7FEE7FEE7FEE705
:1003D000FEE7FEE7FEE7FEE7FEE7FEE7FEE7FEE7F5
:1003E000FEE7FEE7FEE7FEE7FEE7FEE7FEE7FEE7E5
:1003F000FEE7FEE7FEE7FEE7FEE7FEE7FEE7FEE7D5
:10040000FEE7FEE7FEE7FEE7FEE7FEE7FEE7FEE7C4
:10041000FEE7FEE7FEE7FEE7FEE7FEE7FEE7FEE7B4
:10042000FEE7FEE7FEE7FEE7FEE7FEE7FEE7FEE7A4
:10043000FEE7FEE7704700000000A2A2A2A2008033
:100440000340088003401080034030800340348024
:1004500003403880034018080240000000F00020EC
:1004600000000120512200200000000000000000D8
:10047000000000200000002090010020B0040020B7
:10048000B004002000620020006200200062002012
:100490000064002000640020006700200067002046
:1004A00000F00020AD300020712600200000000088
:1004B00010B5054C237833B9044B13B10448AFF39E
:1004C00000800123237010BD0064002000000000A4
:1004D000D46100200C4B43B10C4810B50C49AFF36C
:1004E00000800C48036823B910BD0A48036833B97B
:1004F0007047094B002BF7D0BDE810401847064B5A
:10050000002BF5D0184700BF00000000D461002088
:1005100004640020006200200000000080B586B066
:1005200000AF03463960FB710F4B7B61FB791B0108
:1005300043F47C633B610A235B005AB240235BB205
:1005400013435BB2FB730A233A687969184600F0DB
:100550004DF80A233A683969184600F047F800BF99
:100560001837BD4680BD00BFD00FFC0080B586B0F7
:1005700000AF03463960FB71FB795B005AB2402340
:100580005BB213435BB243F001035BB2FB75002324
:100590003B610023FB600021386801F0C9F9FB7D55
:1005A0001946386801F058FAF8600021386801F0FF
:1005B00053FA03461B043B610021386801F04CFAF2
:1005C00003461B023A6913433B610021386801F07E
:1005D00043FA02463B6913433B610021386801F04E
:1005E000F0F93B6918461837BD4680BD80B586B026
:1005F00000AF0346B9607A60FB73FB7B5B005AB2C5
:1006000040235BB213435BB2FB75BB681B0CBB752D
:10061000BB681B0A7B75BB683B750021786801F0DD
:1006200087F9FB7D1946786801F016FA3861BB7DC1
:100630001946786801F010FA38617B7D19467868B0
:1006400001F00AFA38613B7D1946786801F004FA36
:1006500038610021786801F0B4F900BF1837BD4651
:1006600080BD000090B585B000AF03463960FB71D6
:10067000FB7939681846FFF779FFF860FB68B3F536
:10068000000F03D3FB6803F17F43FB60F86802F0BF
:1006900085FA4FF00002094B02F020FC03460C469D
:1006A000184621464FF00002054B02F017FC0346A6
:1006B0000C46184621461437BD4690BD00006041E7
:1006C0000000084080B582B000AF03463A60FB717D
:1006D0000B46BB71B979F8793B68002200F004F849
:1006E00000BF0837BD4680BD80B586B000AF3B6017
:1006F0000346FB710B46BB7113467B7108233968B7
:100700001846FFF733FF3861FB799B00FB7300232A
:100710007B61FB7903F00103DBB2002B05D17B7910
:10072000DA00BB7913437B6104E07A79BB795B0023
:1007300013437B61FB7B0F2202FA03F3DB431A4670
:100740003B6913403B61FB7B7A6902FA03F33A6928
:1007500013433B6108233A6839691846FFF746FF9F
:1007600000BF1837BD4680BD016070470068704704
:100770000EB503FA01F303EA020301686FEA02020D
:1007800001EA020141EA030101600EBD006800EACE
:10079000020020FA01F0704701807047008870471E
:1007A0000EB503FA01F303EA020301886FEA0202BD
:1007B00001EA020141EA030101800EBD008800EA5E
:1007C000020020FA01F0704701707047007870470E
:1007D0000EB503FA01F303EA020301786FEA02029D
:1007E00001EA020141EA030101700EBD007800EA4E
:1007F000020020FA01F0704780B582B000AF0F4BC5
:100800005B68FB710D4B9B68DAB2FB791340FB719F
:10081000FB7903F00203BB71BB79002B01D000F020
:10082000E5F8FB7903F001037B717B79002B01D0A4
:1008300000F006F800BF0837BD4680BD00600140EB
:1008400080B584B000AF624B1B78022B3DD0052BE6
:1008500068D0012B40F0AA805E4B1B889BB2002B16
:100860002FD05D4B1A685B4B1B889BB21946104614
:1008700000F00AFAF860574B1B889BB21A46FB68D7
:100880009A420FD9534B1B889AB2FB689BB2D31A7A
:100890009AB2504B1A80504B1A68FB6813444E4A68
:1008A000136090E04B4B00221A804C4B1B68002BCE
:1008B00003D0474B02221A7085E0454B03221A7081
:1008C00081E000BE00F0BAF97DE0444B1B68002BCC
:1008D00024D0434B1A68414B1B681946104600F060
:1008E000D3F9B8603D4B1B68BA689A420CD23B4BB7
:1008F0001A68BB68D31A394A1360394B1A68BB6847
:100900001344374A13605EE0364A364B9B6823F047
:10091000010393602E4B03221A7054E000BE00F0D6
:100920008DF950E02D4B1B68002B1BD12E4B1B6803
:10093000002B14D02C4B1B68294898470246274BA4
:100940001A60264B1B68002B0CD1264A254B9B684E
:1009500023F0010393601E4B03221A7002E000BED5
:1009600000F06CF91D4B1B68002B09D11D4A1D4B73
:100970009B6823F001039360154B03221A7022E059
:10098000174B1A68154B1B681946104600F07CF986
:100990007860124B1A687B68D31A104A1360104BA8
:1009A0001A687B6813440E4A13600CE00D4A0D4B25
:1009B0009B6823F001039360002000F01FF9044BB3
:1009C00000221A7000BF00BF1037BD4680BD00BFB7
:1009D0004164002024640020206400202C64002056
:1009E00028640020006001403C64002080B584B091
:1009F00000AF7C4B1B69FB81FB8923F4FF4323F091
:100A00007F03BB81FB89FB72774B1B78052B00F2C0
:100A1000D68001A252F823F0310A0020AB0B00204F
:100A2000AB0B0020890A0020D70A00207F0B002092
:100A3000BB89002B00F0CA80FB7AF12B06D0FB7A31
:100A4000BB72BB7A184600F04FF9BFE0674B00223B
:100A50001A80674B1B68654A128892B21344FA7A6F
:100A60001A70624B1B889BB201339AB25F4B1A809B
:100A70005F4B1B685D4A128892B2134400221A70C1
:100A8000594B04221A70A1E0BB89002B00F0A08012
:100A9000FB7A7B72574B1B78DBB27A7A9A4215D17C
:100AA000524B00221A80524B1B68504A128892B255
:100AB00013447A7A1A704D4B1B889BB201339AB259
:100AC0004A4B1A80484B04221A7081E07B7A184600
:100AD00000F00AF97CE0BB89002B06D0FB7A3B7260
:100AE0003B7A184600F000F974E0414B1A683F4B1E
:100AF0001B889BB2013B13441B78F12B16D13C4B56
:100B00001B683A4A128892B21344FA7A1A70384B28
:100B10001A68364B1B889BB2013B13441B7818465E
:100B200000F0E2F8304B00221A7053E02F4B1B8884
:100B30009AB2314B1B889A4210D2FB7AFB712C4B34
:100B40001B682A4A128892B21344FA791A70274B0A
:100B50001B889BB201339AB2244B1A80234B1B880B
:100B60009AB2254B1B889A4234D1204B1B889BB2EA
:100B7000184600F043F81C4B00221A702AE0BB898B
:100B8000002B0BD11A4B1B680133FA7A1A70022022
:100B900000F034F8144B00221A701EE0FB7ABB718F
:100BA000BB79184600F0A0F817E0BB89002B13D0E2
:100BB000FB7A7B717B79184600F096F80CE00020F8
:100BC00000F01CF8084B00221A7006E000BF04E099
:100BD00000BF02E000BF00E000BF00BF1037BD460D
:100BE00080BD00BF006001404164002036640020E9
:100BF000306400201C6400203464002080B582B082
:100C000000AF0346FB800A4B1B68002B0CD0084B3F
:100C10001B68084A1268F98810469847044B00225E
:100C20001A60054B00221A7000BF0837BD4680BD10
:100C300038640020306400204064002080B582B019
:100C400000AF0E4B1B78DBB2002B13D00C4B1B8874
:100C50009BB21846FFF7D2FF0A4A0A4B1B6843F0C3
:100C600001031360074B1B6803F001037B607B6883
:100C7000002BF7D100BF0837BD4680BD406400207F
:100C8000366400200060014080B485B000AF786019
:100C90003960144A134B1B6823F0040313600023CC
:100CA000FB60104B5B6803F00103BB600DE00D4976
:100CB0007A68FB6813441B780B61FB680133FB60A7
:100CC000084B5B6803F00103BB60BB68002B03D0DB
:100CD000FA683B689A42EAD3FB6818461437BD4667
:100CE00080BC70470060014080B582B000AF034611
:100CF000FB71064B1B68002B04D0044B1B68FA7970
:100D00001046984700BF0837BD4680BD44640020A8
:100D100080B483B000AF0346FB71094997F90730EF
:100D20005B09FA7902F01F02012000FA02F2603337
:100D300041F8232000BF0C37BD4680BC704700BF80
:100D400000E100E080B58AB000AF78607B681B6886
:100D50001B687B627B681B689B693B627B681B68C6
:100D60005B68FB617B681B689B6ABB617B681B6877
:100D70001B6B7B617B681B685B6B3B617B681B68E3
:100D8000DB69FB607B68354A93421DD17B68344A3E
:100D90001A607B6802221A71324A324B9B6C43F410
:100DA000007393640220FFF7B3FF2E4A2D4B9B6C18
:100DB00023F4007393647B681B687A681268126876
:100DC00022F000421A601CE07B68274A1A607B68A8
:100DD00003221A71234A234B9B6C43F48063936470
:100DE0000320FFF795FF1F4A1E4B9B6C23F4806383
:100DF00093647B681B687A681268126822F000426C
:100E00001A607B6A23F001037B627B681B687A6A45
:100E10001A607B681B683A6A9A617B681B68FA698A
:100E20005A607B681B687A681268126842F0010297
:100E30001A607B681B68BA699A627B681B687A696A
:100E40001A637B681B683A695A637B681B68FA6897
:100E5000DA6100BF2837BD4680BD00BFA465002011
:100E600000100040008003400010014080B485B0B5
:100E700000AF78600023FB600DE07B681B687A6838
:100E800091687A6812690A4412785A617B681B6912
:100E90005A1C7B681A617B681B689B6803F480732B
:100EA000002B05D17B681A697B68DB689A42E4D322
:100EB0007B681A697B68DB689A421BD30DE07B680C
:100EC0001B687A6851697A68D2690A4412785A6153
:100ED0007B68DB695A1C7B68DA617B681B689B68EE
:100EE00003F48073002B05D17B68DA697B689B690A
:100EF0009A42E4D37B685B6A002B1DD07B681A6939
:100F00007B68DB689A4217D37B68DA697B689B69E8
:100F10009A4211D306E07B681B6800225A61FB6885
:100F20000133FB607B681B689B6803F48073002BB4
:100F300002D1FB681F2BEED900BF1437BD4680BC21
:100F4000704780B584B000AF78607B6893F88030DC
:100F5000022B15D10CE07B681B681B69FB607B686A
:100F60005B6F002B04D07B685B6FFA681046984774
:100F70007B681B689B6803F04003002BEBD02FE0DD
:100F80007B6893F88030012B23D116E07B681B68C7
:100F90001B69FB607B681A6B7B68DB6A9A4207D22D
:100FA0007B689A6A7B681B6B1344FA68D2B21A702A
:100FB0007B681B6B5A1C7B681A637B681B689B6889
:100FC00003F04003002BE1D00AE07B681B681B693B
:100FD000FB607B681B689B6803F04003002BF4D028
:100FE00000BF1037BD4680BD80B586B000AF7860C9
:100FF0007B681B6820337B617B686B4A934204D01B
:101000007B686A4A934200D000BE7B691B6803F08C
:101010000203002B4ED07B6893F88030022B15D151
:101020000CE07B681B681B69FB607B685B6F002BB7
:1010300004D07B685B6FFA68104698477B681B6832
:101040009B6803F04003002BEBD02FE07B6893F804
:101050008030012B23D116E07B681B681B69FB6085
:101060007B681A6B7B68DB6A9A4207D27B689A6A54
:101070007B681B6B1344FA68D2B21A707B681B6BD7
:101080005A1C7B681A637B681B689B6803F04003EB
:10109000002BE1D00AE07B681B681B69FB607B6862
:1010A0001B689B6803F04003002BF4D07B681B682F
:1010B0000222DA607B691B6803F00103002B11D068
:1010C0007B6893F88030022B05D17B681B687A68B7
:1010D000926F5A6102E07868FFF7C8FE7B681B6870
:1010E0000122DA607B691B6803F01003002B20D01B
:1010F0007868FFF726FF7B681B6A002B0AD07B68A5
:101100001B6A7A68906A7A68126B11469847786809
:10111000FFF7ACFE7B6801225A627B681B687A6825
:101120001268926A22F010029A627B681B68102291
:10113000DA607B691B6803F00403002B0ED07B6828
:101140001B687A681268D26A42F00402DA62786830
:10115000FFF7F8FD7B681B680422DA607B691B6877
:1011600003F00803002B32D07B681B687A68126892
:10117000D26A42F00802DA627B6893F88030022B70
:1011800016D17B681A687B681B681B6823F47F0391
:1011900023F47F4343F4807313607B681B687A6891
:1011A000926F5A610FE000BFA46500202065002007
:1011B0007B6893F88030012B05D17B6800221A618F
:1011C0007868FFF753FE7B681B680822DA607B694A
:1011D0001B6803F02003002B41D07868FFF7B1FEB5
:1011E0007B681B6B3B617B681B6A002B17D07B689D
:1011F00000225A627B6800225A617B6800229A6151
:101200007B680022DA617B681B681022DA607B68E9
:101210001B687A681268926A42F010029A627B68D0
:1012200000221A617B681B687A681268D26A42F0F1
:101230000C02DA627868FFF719FE7B6800221A63F5
:101240007B68DB6F002B06D07B68DB6F7A68926A65
:101250003969104698477B681B682022DA6000BF16
:101260001837BD4680BD00BF684620F007018D4697
:1012700089B500AF0448FFF7B7FE00BFBD46BDE823
:1012800089408546704700BFA4650020684620F06D
:1012900007018D4689B500AF0448FFF7A5FE00BFE2
:1012A000BD46BDE889408546704700BF20650020E7
:1012B00090B484B000AFF860B9607A60FB704C48BD
:1012C0004C4B1A68F97813469B001344DB01034426
:1012D00003F5E27319604849464B1A6813469B00B0
:1012E00013449B000B440433FA681A604249414B93
:1012F0001A6813469B0013449B000B440833BA68DA
:101300001A603D483B4B19683B4C3A4B1A681346F0
:101310009B0013449B0023440C331B681A0C1204DB
:101320000B469B000B449B0003440C331A607B6804
:10133000B3F5803F0FD97B68A3F580332F4A136143
:10134000BB6803F580332D4AD360FB6803F5803317
:101350002A4A936019E02848264B1A68264C254BE8
:1013600019680B469B000B449B0023440C331B68FD
:10137000796889B2194313469B0013449B000344C8
:101380000C3319601D4B00221A611B48194B1A6857
:10139000194C184B19680B469B000B449B002344C7
:1013A0000C331B6843F4E00113469B0013449B007D
:1013B00003440C3319600E490E4B1A6813469B0008
:1013C0001344DB010B4403F5E07301221A60084962
:1013D000084B1A6813469B001344DB010B4403F5CA
:1013E000E67300221A6000BF1037BD4690BC7047FC
:1013F0000000284260640020004001404864002052
:10140000684620F007018D4691B500AF354A364B4E
:101410001B6803F52873012142F823103348324B2F
:101420001A68324C304B19680B469B000B449B00EA
:1014300023440C331B6823F4E00113469B00134440
:101440009B0003440C331960274B1B680133264A69
:101450001360254B1B68042B02D1234B00221A601A
:10146000234B1B69002B17D0224B1B68042B03D185
:10147000204B00221A6004E01E4B1B6801331D4AFA
:1014800013601B4B98681A4BD968194B1A69184B93
:101490001B7DFFF70DFF1EE01449134B1A6813461E
:1014A0009B0013449B000B440C331B6803F4E003C4
:1014B000002B10D10C4B00221A600E4B00221A6038
:1014C0000B4B01221A700A4B5B68002B03D0084BB0
:1014D0005B680120984700BFBD46BDE89140854646
:1014E000704700BF000028426464002000400140B3
:1014F0004864002060640020684620F007018D46A3
:1015000081B583B000AF384B1B683B603B6803F488
:1015100070633B603B68002B2FD03449344B1A6812
:1015200013469B001344DB010B4403F502731B6855
:10153000002B0AD02F4B02221A702E4B5B68002B17
:1015400003D02C4B5B68022098472849284B1A6827
:1015500013469B001344DB010B4403F503731B6824
:10156000002B0AD0234B03221A70224B5B68002BFE
:1015700003D0204B5B68032098471B4B1B683B60E4
:101580003B6803F470433B603B68002B0AD0194B67
:1015900004221A70174B5B68002B03D0154B5B6855
:1015A0000420984700237B6014E010497A681346B2
:1015B0009B001344DB010B4403F5E47301221A6022
:1015C0000A4A7B6803F52873012142F823107B68DF
:1015D00001337B607B68032BE7D900BF0C37BD4626
:1015E000BDE8814085467047004001400000284228
:1015F000646400204864002080B586B000AFF860C5
:10160000B96011461A460B46FB8013467B71FB6896
:10161000002B00D100BE7B79072B00D900BEFB88D0
:10162000B3F5005F00D300BEFB68002B69D07B7967
:10163000072B66D8FB88B3F5005F62D2BB6808331E
:10164000FA88D2B211461846FFF7BEF8BB6803F11C
:101650000C007A79FB885B1103F4FF63134319468E
:10166000FFF7B2F8FB68BA681A60FB681B680833BA
:101670001846FFF7ABF80346BB82FB681B680C33C8
:101680001846FFF7A3F80346FB74FB7C23F007031F
:10169000BB74BB7C9BB25B019AB2BB8A1343BB8217
:1016A000FB7C03F00703FB74BA8AFB889A4200D0E4
:1016B00000BEFA7C7B799A4200D000BEFB681B68B2
:1016C00010331846FFF782F8034603F00203FB7558
:1016D00011E0FB681B6804331846FFF777F80346F0
:1016E0007B74FB681B6810331846FFF76FF80346DE
:1016F00003F00203FB75FB7D002BEAD1FB6800229F
:101700001A7100BF1837BD4680BD90B589B000AFD3
:10171000F860B9607A600023BB61FB68002B00D1E0
:1017200000BEBB68002B00D100BE7B68002B00D13F
:1017300000BEFB68002B43D0BB68002B40D07B6809
:10174000002B3DD00023BB61FB681B68103318469B
:10175000FFF73CF80346FB75FB681A79FB7D1343E2
:10176000DAB2FB681A71FB7D03F00203FB7720E01D
:10177000BA68BB69D418FB681B6804331846FFF7C6
:1017800025F803462370BB690133BB61FB681B6806
:1017900010331846FFF71AF80346FB75FB681A79F1
:1017A000FB7D1343DAB2FB681A71FB7D03F0020381
:1017B000FB77FB7F002B03D0BA697B689A42D7D3B3
:1017C000BB6918462437BD4690BD80B485B000AFD4
:1017D0007860FF23FB737B68002B00D100BE7B6821
:1017E000002B09D07B681B799B10DBB203F0070349
:1017F000FB737B6800221A71FB7B18461437BD46C9
:1018000080BC704780B584B000AFF860B960134603
:10181000FB80FB68002B00D100BEBB68002B00D111
:1018200000BEFB88202B00D900BEFB88002B00D116
:1018300000BEFB68002B42D0BB68002B3FD0482283
:101840000021F86801F061FCFB68BA681A60FB8847
:10185000202B07D8FB88002B04D0FB68FA88A3F85C
:10186000442003E0FB680122A3F84420FB681868C9
:10187000002301220021FEF7ABFFFB681B68243325
:1018800000211846FEF7A0FFFB681B681C330321EC
:101890001846FEF799FFFB681B680433FF211846C2
:1018A000FEF792FFFB681B68183300211846FEF70D
:1018B0008BFFFB681B6803211846FEF785FF00BFFE
:1018C0001037BD4680BD80B582B000AF78607B68C0
:1018D000002B00D100BE7B68002B25D07B681868E8
:1018E000002301220021FEF773FF7B68002283F8AA
:1018F00046207B681B681C3303211846FEF764FFF3
:101900007B681B680433FF211846FEF75DFF7B6888
:101910001B68183300211846FEF756FF7B681B68CA
:1019200003211846FEF750FF00BF0837BD4680BDB3
:1019300080B584B000AF78600B46FB700023FB736A
:101940007B68002B00D100BEFB78072B00D900BEBE
:101950007B68002B31D0FB78072B2ED87B681B6867
:10196000022201211846FEF741FF0346002B24D036
:101970007B681B682033102204211846FEF736FFCF
:101980000346012B02D1786800F0A5F87B681B683C
:1019900024331846FEF71AFF03461946FB78012246
:1019A00002FA03F3DBB20B43FB737B681B6824333F
:1019B000FA7B11461846FEF707FF00BF1037BD46F9
:1019C00080BD80B584B000AF78600B46FB7000230B
:1019D000FB737B68002B00D100BEFB78072B00D97E
:1019E00000BE7B68002B33D0FB78072B30D87B6898
:1019F0001B68022201211846FEF7F8FE0346002B61
:101A000026D07B681B682033102204211846FEF77D
:101A1000EDFE0346012B02D1786800F05CF87B688C
:101A20001B6824331846FEF7D1FE03461946FB789F
:101A3000012202FA03F3DBB2DB43DBB20B40FB73A0
:101A40007B681B682433FA7B11461846FEF7BCFE00
:101A500000BF1037BD4680BD80B584B000AF786050
:101A600039600023FB607B68002B00D100BE7B68DF
:101A7000002B2BD07B681B68022201211846FEF741
:101A8000B5FE0346002B21D07B681B681C33032165
:101A90001846FEF799FE7B681B682833396818469C
:101AA000FEF762FE00BF7B681B6820330222012123
:101AB0001846FEF79BFE0346012BF4D17B681B689A
:101AC00008331846FEF752FE0346FB60FB681846D3
:101AD0001037BD4680BD80B582B000AF78607B68AE
:101AE0001868002301220021FEF772FE7B681B6844
:101AF0001C3303211846FEF767FE7B681B6804331E
:101B0000FF211846FEF760FE7B681868012301225A
:101B10000021FEF75DFE00BF0837BD4680BD80B5E1
:101B200084B000AFF860B9607A603B60FB68BA6867
:101B30001A60FB681B68083300211846FEF744FE54
:101B4000FB681B680C3300211846FEF73DFEFB685E
:101B50001B6879681846FEF707FE3B68002B00D12A
:101B600000BEFB681B68043339681846FEF7FCFDAD
:101B7000FB681B68103300211846FEF7F5FDFB6873
:101B80001B68183300211846FEF7EEFDFB681B6842
:101B9000203300211846FEF7E7FDFB681B68283359
:101BA00000211846FEF7E0FDFB681B68303300217A
:101BB0001846FEF7D9FDFB681B683833002118462C
:101BC000FEF7D2FDFB681B68403300211846FEF784
:101BD000CBFDFB681B68483300211846FEF7C4FDA7
:101BE000FB681B68503300211846FEF7BDFDFB68FB
:101BF0001B68583300211846FEF7B6FDFB681B68CA
:101C0000603300211846FEF7AFFDFB681B686833A0
:101C100000211846FEF7A8FDFB681B687033002101
:101C20001846FEF7A1FDFB681B68783300211846B3
:101C3000FEF79AFDFB681B68803300211846FEF70B
:101C400093FDFB681B68883300211846FEF78CFD66
:101C500000BF1037BD4680BD80B584B000AF78604E
:101C60000B46FB70FB78002B00D100BEFB78102BDD
:101C700000D900BEFB78002B32D0FB78102B2FD878
:101C8000FB78194AD35CFB73FB78082B14D87B686C
:101C90001B6808331846FEF799FD0346BB73BA7BF1
:101CA000FB7B1343BB737B681B680833BA7B11460D
:101CB0001846FEF789FD13E07B681B680C33184655
:101CC000FEF784FD0346BB73BA7BFB7B1343BB73F8
:101CD0007B681B680C33BA7B11461846FEF774FD0F
:101CE00000BF1037BD4680BDD85C002080B584B0F1
:101CF00000AF78600B46FB70FB78002B00D100BE74
:101D0000FB78102B00D900BEFB78002B36D0FB7877
:101D1000102B33D8FB781B4AD35CFB73FB78082B62
:101D200016D87B681B6808331846FEF74FFD03463C
:101D3000BB73FB7BDB43DAB2BB7B1340BB737B68BB
:101D40001B680833BA7B11461846FEF73DFD15E0C7
:101D50007B681B680C331846FEF738FD0346BB73DF
:101D6000FB7BDB43DAB2BB7B1340BB737B681B6836
:101D70000C33BA7B11461846FEF726FD00BF10371C
:101D8000BD4680BDD85C002080B588B000AFF8604B
:101D90000B467A60FB72FB7A002B00D100BEFB7A07
:101DA000102B00D900BEFB681B6804331846FEF7F1
:101DB000DDFCF8617A68FB699A4200D900BEFB7AC3
:101DC000002B3AD0FB7A102B37D87B68002B05D13B
:101DD000FB7A1946F868FFF789FF2EE0FB681A685E
:101DE000FB7A184951F82330134400211846FEF7B6
:101DF000BBFCFB681A68FB7A134951F82330134483
:101E000079681846FEF7B0FCFB7A0F4A52F8233087
:101E1000BB61FB681A68BB6913441846FEF7D6FC21
:101E20000346FB757B68DBB2FA7D9A4200D000BEA8
:101E3000FB7A1946F868FFF70FFF00BF2037BD4651
:101E400080BD00BFEC5C0020305D002080B586B016
:101E500000AFF860B9601346FB710023FB75BB68E7
:101E60003B61FB68BA681A60FB68FA791A71002353
:101E7000FB75BB683B6109E000213869FEF7A4FCF3
:101E80003B6904333B61FB7D0133FB75FB7D1F2BFD
:101E9000F2D9FB681B79012B0DD0022B02D0002B4D
:101EA0001AD036E0FB681B6880334FF0FF311846CC
:101EB000FEF75AFC2FE0FB681B6880334FF6FF717A
:101EC0001846FEF769FCFB681B6884334FF6FF7108
:101ED0001846FEF761FC1EE0FB681B688033FF219B
:101EE0001846FEF771FCFB681B688433FF21184617
:101EF000FEF76AFCFB681B688833FF211846FEF773
:101F000063FCFB681B688C33FF211846FEF75CFC02
:101F100001E000BE00BF00BF1837BD4680BD80B5E0
:101F200086B000AFF8600B467A60FB72FB7A1F2B1D
:101F300000D900BEFB7A1F2B14D8FB681B687B619D
:101F4000FB7A9B001A467B6913447B617968786948
:101F5000FEF70AFC7869FEF709FC02467B689A42A4
:101F600000D000BE00BF1837BD4680BD80B582B02E
:101F700000AF786039607B681B79012B0CD0022B95
:101F800002D0002B1DD047E07B681B68A033396866
:101F90001846FEF7E9FB41E07B681B68A0333A680E
:101FA00092B211461846FEF7F7FB7B681B6803F1F7
:101FB000A4023B681B0C9BB219461046FEF7ECFBD3
:101FC0002CE07B681B68A0333A68D2B211461846F1
:101FD000FEF7FAFB7B681B6803F1A4023B681B0A4F
:101FE000DBB219461046FEF7EFFB7B681B6803F176
:101FF000A8023B681B0CDBB219461046FEF7E4FB57
:102000007B681B6803F1AC023B681B0EDBB2194610
:102010001046FEF7D9FB01E000BE00BF786800F073
:1020200009F802463B689A4200D000BE00BF08375C
:10203000BD4680BD80B584B000AF78600023FB60F2
:102040007B681B79012B0CD0022B02D0002B20D0F7
:102050004FE07B681B68A0331846FEF787FBF860EB
:1020600049E07B681B68A0331846FEF797FB0346E0
:102070001A46FB681343FB607B681B68A433184651
:10208000FEF78CFB03461B041A46FB681343FB60F8
:1020900031E07B681B68A0331846FEF77FFB0346E0
:1020A0001A46FB681343FB607B681B68A433184621
:1020B000FEF774FB03461B021A46FB681343FB60E2
:1020C0007B681B68A8331846FEF768FB03461B04B1
:1020D0001A46FB681343FB607B681B68AC331846E9
:1020E000FEF75CFB03461B061A46FB681343FB60C6
:1020F00001E000BE00BFFB6818461037BD4680BD3A
:1021000080B584B000AF78600B46FB707B681B68BD
:10211000FB60FB781F2B00D900BEFB781F2B12D869
:10212000FB789B001A46FB681344FB60F868FEF7D7
:102130004DFB0346BB60BB6843F00803BB60B96856
:10214000F868FEF741FB00BF1037BD4680BD80B583
:1021500084B000AF78600B46FB707B681B68FB6047
:10216000FB781F2B00D900BEFB781F2B12D8FB7801
:102170009B001A46FB681344FB60F868FEF726FBD9
:102180000346BB60BB6823F00803BB60B968F8680E
:10219000FEF71AFB00BF1037BD4680BD80B584B086
:1021A00000AF78600B46FB70FB78012202FA03F364
:1021B000FB607B681B79012B0CD0022B02D0002B1B
:1021C0001AD03FE07B681B688033F9681846FEF739
:1021D000CBFA39E07B681B688033F9681846FEF754
:1021E000DBFA7B681B6803F18402FB681B0C194651
:1021F0001046FEF7D1FA27E07B681B688033F96848
:102200001846FEF7E1FA7B681B6803F18402FB685D
:102210001B0A19461046FEF7D7FA7B681B6803F1C4
:102220008802FB681B0C19461046FEF7CDFA7B6846
:102230001B6803F18C02FB681B0E19461046FEF763
:10224000C3FA01E000BE00BF00BF1037BD4680BD2D
:1022500080B500AF00F0FAF8044A044B5B6943F420
:1022600000735361FEF7E6F800BF80BD00ED00E0AB
:1022700080B588B000AF304BD3F8983003F080635E
:10228000FB61FB69002B4CD12B4BD3F8983003F446
:102290008053BB61BB69002B15D1284B284A1A60BB
:1022A000284B274A1A60284B254A1A60274B284A90
:1022B0001A60284B284A1A60284B214A1A60284B7A
:1022C0001F4A1A6034E0274A3B1D92E8030083E866
:1022D0000300194BD3F89C309B0903F007037B6183
:1022E0003A1D7B6913441B78FB74FB7C012B0AD0DD
:1022F000022B0DD0002B0FD100F038F8F860F868F1
:1023000000F052F814E04FF4004000F04DF80FE0F8
:10231000154800F049F80BE0134800F045F800BFFD
:1023200006E000F023F8F860F86800F03DF8FFE7F9
:1023300000BF2037BD4680BD0080034004620020FE
:10234000003B5808086200200C6200201062002048
:10235000C00E160214620020801D2C04186200209A
:102360001C620020745D002040420F0080B483B0E6
:1023700000AF0A4BD3F8503103F004033B603B68D5
:10238000002B02D1064B7B6001E0064B7B607B6833
:1023900018460C37BD4680BC704700BF0080034024
:1023A00040787D0180F0FA0280B483B000AF78609D
:1023B0000C4A7B6813600C4A7B6813600B4A7B688D
:1023C00013600B4B0B4A1A600B4A7B6813600B4A75
:1023D0007B6813600A4A7B68136000BF0C37BD46F8
:1023E00080BC704704620020086200200C6200205C
:1023F00010620020C00E1602146200201862002035
:102400001C62002080B483B000AF0E4BD3F84C3177
:102410003B603B684FF60202934203D00A4A934264
:1024200003D005E001237B6005E002237B6002E02E
:1024300000237B6000BF7B6818460C37BD4680BC1C
:10244000704700BF0080034002F8010080B582B0F1
:1024500000AFFFF7D7FF78607B68012B00D002E068
:1024600000F006F800BF00BF0837BD4680BD000081
:1024700080B400AF094A094BD3F8983043F4807315
:10248000C2F89830054A054BD3F8983023F08063A2
:10249000C2F8983000BFBD4680BC70470080034042
:1024A00080B483B000AF0346FB71084997F9073049
:1024B0005B09FA7902F01F02012000FA02F241F8EA
:1024C000232000BF0C37BD4680BC704700E100E010
:1024D00080B483B000AF0346FB71094997F9073018
:1024E0005B09FA7902F01F02012000FA02F22033A0
:1024F00041F8232000BF0C37BD4680BC704700BFA9
:1025000000E100E080B483B000AF0346FB710949ED
:1025100097F907305B09FA7902F01F02012000FAEF
:1025200002F2603341F8232000BF0C37BD4680BC67
:10253000704700BF00E100E080B483B000AF034605
:102540003960FB7197F90730002B0BDA0D49FB79E5
:1025500003F00F03043B3A68D2B21201D2B20B442B
:102560001A7609E0084997F907303A68D2B21201A1
:10257000D2B20B4483F8002300BF0C37BD4680BCA9
:10258000704700BF00ED00E000E100E080B582B0E0
:1025900000AF0346FB710E20FFF79AFF104A104B65
:1025A0009B6C23F0400393644FF0402300225A6554
:1025B0000C4B0022C3F880210A4B0022C3F888216B
:1025C000084AFB79C2F884314FF0402301221A6196
:1025D0000E20FFF797FF00BF0837BD4680BD00BF44
:1025E000008003400000084280B400AF034B01228A
:1025F000C3F8802100BFBD4680BC70470000084280
:1026000080B483B000AF78604FF040227B685360A5
:1026100000BF0C37BD4680BC7047000080B500AFDE
:10262000044B0122C3F888210E20FFF739FF00BFB9
:1026300080BD00BF0000084280B500AF044B0022FF
:10264000C3F888210E20FFF743FF00BF80BD00BF05
:102650000000084280B400AF4FF0402301221A610D
:10266000BFF34F8F00BFBD4680BC70470000000025
:1026700090B58BB000AF03F09BF9614801F0AEF963
:1026800040F69F7304224FF0A0415E48FFF747FADF
:10269000C82000F029F95C4801F0A0F94FF4FA7065
:1026A00000F022F9082259495948FFF7ABF8584879
:1026B000FFF709F956490320FDF730FF544A03217B
:1026C0000120FDF7FFFF3B4620220021184600F0C5
:1026D0001CFD012325224F494F48FEF78DFF4F482F
:1026E00001F07CF9FFF7C4FD02224D494D48FFF788
:1026F000ADFB052200214B48FFF711FC052201210B
:102700004848FFF70CFC052202214648FFF707FC6A
:10271000454B1B6819464348FFF728FC432200211C
:102720004048FFF7FCFB432201213E48FFF7F7FB3F
:10273000052202213B48FFF7F2FB3C4801F04EF92D
:1027400000213848FFF7DCFC01213648FFF7D8FCB0
:102750002320FFF7A5FE2420FFF7A2FE0621232059
:10276000FFF7EAFE05212420FFF7E6FE304B1A684A
:1027700013469B0013443B620020FFF707FF386AB3
:10278000FFF73EFFFFF730FFFFF748FF294801F052
:1027900025F92148FFF719F80346002B06D13B46DF
:1027A000202219461C48FEF7B0FF78627B6A002B96
:1027B00011D03B78412B0ED11F4801F00FF90023B7
:1027C0003B70012201210F48FFF7DEFA00220121B0
:1027D0000C48FFF7D9FA0E490120FDF743FF06A385
:1027E000D3E9002300F050FA03460C461A4623466C
:1027F000124801F0F3F8CCE7E17A14AE47E1024069
:102800007C5D0020EC660020AC5D002000400050A4
:10281000A46600200020005030660020E45D002007
:10282000001000302866002020620020005E00209A
:1028300008620020185E0020385E0020585E0020EC
:1028400080B500AF03F0B4F8034801F0C7F8FFF714
:1028500001FF00BF80BD00BF745E002080B500AFE7
:1028600000211248FFF773FC01211048FFF76FFCAD
:1028700003F09EF80E4801F0B1F800210B48FFF775
:102880008DFC01210948FFF789FC00210748FFF76B
:1028900037FC01210548FFF733FC064801F09EF89C
:1028A0004FF47A6000F020F8F7E700BF28660020B8
:1028B000805E0020985E002080B500AFFFF7BCFE70
:1028C00000210648FFF743FC03F072F8044801F0CA
:1028D00085F8044801F082F800BF80BD286600201A
:1028E000AC5E0020F85E002080B485B000AF786058
:1028F0000023FB6002E0FB680133FB607B6841F66C
:10290000641202FB03F2FB689A42F4DC00BF143746
:10291000BD4680BC7047000081F0004102E000BF6E
:1029200083F0004330B54FEA41044FEA430594EA8F
:10293000050F08BF90EA020F1FBF54EA000C55EACA
:10294000020C7FEA645C7FEA655C00F0E2804FEA9B
:102950005454D4EB5555B8BF6D420CDD2C4480EA7D
:10296000020281EA030382EA000083EA010180EAAD
:10297000020281EA0303362D88BF30BD11F0004FFB
:102980004FEA01314FF4801C4CEA113102D0404231
:1029900061EB410113F0004F4FEA03334CEA13336C
:1029A00002D0524263EB430394EA050F00F0A78084
:1029B000A4F10104D5F1200E0DDB02FA0EFC22FA7F
:1029C00005F2801841F1000103FA0EF2801843FA73
:1029D00005F359410EE0A5F120050EF1200E012A64
:1029E00003FA0EFC28BF4CF0020C43FA05F3C018A2
:1029F00051EBE37101F0004507D54FF0000EDCF11B
:102A0000000C7EEB00006EEB0101B1F5801F1BD3C3
:102A1000B1F5001F0CD349085FEA30004FEA3C0CC7
:102A200004F101044FEA445212F5800F80F09A80BD
:102A3000BCF1004F08BF5FEA500C50F1000041EBC1
:102A4000045141EA050130BD5FEA4C0C404141EBC5
:102A5000010111F4801FA4F10104E9D191F0000FEC
:102A600004BF01460020B1FA81F308BF2033A3F16F
:102A70000B03B3F120020CDA0C3208DD02F1140C66
:102A8000C2F10C0201FA0CF021FA02F10CE002F1A1
:102A90001402D8BFC2F1200C01FA02F120FA0CFC9A
:102AA000DCBF41EA0C019040E41AA2BF01EB0451E3
:102AB000294330BD6FEA04041F3C1CDA0C340EDCE1
:102AC00004F11404C4F1200220FA04F001FA02F324
:102AD00040EA030021FA04F345EA030130BDC4F1E2
:102AE0000C04C4F1200220FA02F001FA04F340EAD7
:102AF0000300294630BD21FA04F0294630BD94F088
:102B0000000F83F4801306BF81F480110134013D6E
:102B10004EE77FEA645C18BF7FEA655C29D094EADF
:102B2000050F08BF90EA020F05D054EA000C04BF5D
:102B30001946104630BD91EA030F1EBF0021002048
:102B400030BD5FEA545C05D14000494128BF41F0E7
:102B5000004130BD14F580043CBF01F5801130BD4B
:102B600001F0004545F0FE4141F470014FF00000D6
:102B700030BD7FEA645C1ABF194610467FEA655C87
:102B80001CBF0B46024650EA013406BF52EA033529
:102B900091EA030F41F4002130BD00BF90F0000F17
:102BA00004BF0021704730B54FF4806404F1320453
:102BB0004FF000054FF0000150E700BF90F0000F0C
:102BC00004BF0021704730B54FF4806404F1320433
:102BD00010F0004548BF40424FF000013EE700BF03
:102BE00042004FEAE2014FEA31014FEA02701FBF93
:102BF00012F07F4393F07F4F81F06051704792F065
:102C0000000F14BF93F07F4F704730B54FF46074DE
:102C100001F0004521F0004120E700BF50EA010229
:102C200008BF704730B54FF000050AE050EA0102D6
:102C300008BF704730B511F0004502D5404261EB46
:102C400041014FF4806404F132045FEA915C3FF487
:102C5000DCAE4FF003025FEADC0C18BF03325FEA20
:102C6000DC0C18BF033202EBDC02C2F1200300FAD5
:102C700003FC20FA02F001FA03FE40EA0E0021FAFA
:102C800002F11444C1E600BF70B54FF0FF0C4CF4E4
:102C9000E06C1CEA11541DBF1CEA135594EA0C0F9A
:102CA00095EA0C0F00F0DEF82C4481EA030621EAD5
:102CB0004C5123EA4C5350EA013518BF52EA033510
:102CC00041F4801143F4801338D0A0FB02CE4FF0C2
:102CD0000005E1FB02E506F00042E0FB03E54FF0F2
:102CE0000006E1FB03569CF0000F18BF4EF0010EEA
:102CF000A4F1FF04B6F5007F64F5407404D25FEAE6
:102D00004E0E6D4146EB060642EAC62141EA555198
:102D10004FEAC52040EA5E504FEACE2EB4F1FD0CDA
:102D200088BFBCF5E06F1ED8BEF1004F08BF5FEA58
:102D3000500E50F1000041EB045170BD06F000460A
:102D400046EA010140EA020081EA0301B4EB5C04B7
:102D5000C2BFD4EB0C0541EA045170BD41F48011AF
:102D60004FF0000E013C00F3AB8014F1360FDEBFD4
:102D7000002001F0004170BDC4F10004203C35DAB0
:102D80000C341BDC04F11404C4F1200500FA05F333
:102D900020FA04F001FA05F240EA020001F00042D4
:102DA00021F0004110EBD37021FA04F642EB06014A
:102DB0005EEA430E08BF20EAD37070BDC4F10C0474
:102DC000C4F1200500FA04F320FA05F001FA04F238
:102DD00040EA020001F0004110EBD37041F1000124
:102DE0005EEA430E08BF20EAD37070BDC4F120052F
:102DF00000FA05F24EEA020E20FA04F301FA05F297
:102E000043EA020321FA04F001F0004121FA04F23E
:102E100020EA020000EBD3705EEA430E08BF20EA0E
:102E2000D37070BD94F0000F0FD101F00046400048
:102E300041EB010111F4801F08BF013CF7D041EACA
:102E4000060195F0000F18BF704703F000465200CE
:102E500043EB030313F4801F08BF013DF7D043EA9F
:102E60000603704794EA0C0F0CEA135518BF95EA55
:102E70000C0F0CD050EA410618BF52EA4306D1D1DC
:102E800081EA030101F000414FF0000070BD50EAFB
:102E9000410606BF1046194652EA430619D094EA85
:102EA0000C0F02D150EA013613D195EA0C0F05D16F
:102EB00052EA03361CBF104619460AD181EA0301C3
:102EC00001F0004141F0FE4141F470014FF000007B
:102ED00070BD41F0FE4141F4780170BD70B54FF016
:102EE000FF0C4CF4E06C1CEA11541DBF1CEA135596
:102EF00094EA0C0F95EA0C0F00F0A7F8A4EB050478
:102F000081EA030E52EA03354FEA013100F088806E
:102F10004FEA03334FF0805545EA131343EA126337
:102F20004FEA022245EA111545EA10654FEA0026EC
:102F30000EF000419D4208BF964244F1FD0404F5A5
:102F4000407402D25B084FEA3202B61A65EB030501
:102F50005B084FEA32024FF480104FF4002CB6EBBE
:102F6000020E75EB030E22BFB61A754640EA0C003E
:102F70005B084FEA3202B6EB020E75EB030E22BF7E
:102F8000B61A754640EA5C005B084FEA3202B6EBBF
:102F9000020E75EB030E22BFB61A754640EA9C007E
:102FA0005B084FEA3202B6EB020E75EB030E22BF4E
:102FB000B61A754640EADC0055EA060E18D04FEA0C
:102FC000051545EA16754FEA06164FEAC30343EAAC
:102FD00052734FEAC2025FEA1C1CC0D111F4801F79
:102FE0000BD141EA00014FF000004FF0004CB6E772
:102FF00011F4801F04BF01430020B4F1FD0C88BF11
:10300000BCF5E06F3FF6AFAEB5EB030C04BFB6EB1B
:10301000020C5FEA500C50F1000041EB045170BD0E
:103020000EF0004E4EEA113114EB5C04C2BFD4EB3B
:103030000C0541EA045170BD41F480114FF0000EBF
:10304000013C90E645EA060E8DE60CEA135594EA3B
:103050000C0F08BF95EA0C0F3FF43BAF94EA0C0F3E
:103060000AD150EA01347FF434AF95EA0C0F7FF4B3
:1030700025AF104619462CE795EA0C0F06D152EA07
:1030800003353FF4FDAE1046194622E750EA4106EB
:1030900018BF52EA43067FF4C5AE50EA41047FF4FC
:1030A0000DAF52EA43057FF4EBAE12E770B5002591
:1030B0000C4E0D4CA41BA410A54209D103F08AF8B4
:1030C00000250A4E0A4CA41BA410A54205D170BDD0
:1030D00056F8253098470135EEE756F825309847E1
:1030E0000135F2E7EC610020EC610020EC6100208A
:1030F000F061002010B5431E0A44914200D110BD7A
:1031000011F8014B03F8014FF7E7034602449342DD
:1031100000D1704703F8011BF9E7002B2DE9F047B8
:103120001E46BBBF03F100431E4600232D2388B07B
:10313000149F129927F02007462F1446109DDDF8A2
:103140004CA00B7004D0452F00D10135022300E0C4
:10315000032307AA049206AA03928DE828042246B4
:10316000334600F0E9FC472F804602D1119BDB0774
:1031700026D5462F08EB050911D198F80030302BE1
:103180000AD1002200232046314602F069FB18B91B
:10319000C5F10105CAF80050DAF800309944002260
:1031A00000232046314602F05BFB38B93022079BF2
:1031B000994505D9591C07911A70F8E7CDF81C906C
:1031C0004046079B159AA3EB0803136008B0BDE8BF
:1031D000F0870346F7B5002903F8022BB6BF2D226E
:1031E0002B2249420929427021DD0DF107021746C1
:1031F0000A2691FBF6F506FB1511092D01F13001A8
:1032000002F8011C02F1FF34294609DC3031023A90
:1032100004F8011CBA421C4604D3201A03B0F0BDC6
:103220002246E6E712F8011B03F8011BF2E7302201
:103230001C46114404F8022B5970EEE72DE9F04FBB
:1032400091B00C461A9F93461E46054601F012FBAC
:1032500003681846099300F0D9FB00230E933B68DE
:103260000A90073323F0070303F1080294F818804B
:10327000D4F800A03A60D3E90023C4E91223D4F8BB
:103280004C90A76C29F000430B934FF0FF32A64BF4
:1032900038460B9902F016FB002840F0F7814FF0FA
:1032A000FF32A14B38460B9902F0EEFA002840F0AD
:1032B000ED81002200233846494602F0DBFA10B1C6
:1032C0002D2384F84330994B994FB8F1470F98BF9D
:1032D0001F4603234FF0000923612AF004032360F3
:1032E00000965B460FAA2146284600F0DFF9013020
:1032F00040F09A804FF0FF3011B0BDE8F08F626867
:103300000EA8531C0DF1340E4AF4806341D10622FD
:10331000626000212360019363680DF13302059020
:10332000029200933A464B460691CDF81080CDF8B4
:103330000CE02846FFF7F1FE08F0DF03472B0746B5
:1033400009D10D9BD81C02DB6268934259DDA8F1BC
:1033500002085FFA88F8B8F1650F0D9936D801397F
:10336000424604F150000D91FFF733FF0E9A81465B
:103370008318012A236102DC2268D10701D50133B9
:1033800023619DF83330002BAAD02D2384F84330DD
:10339000A6E7B8F1670F02D0B8F1470FB9D19AB1DB
:1033A000002106910DF133018DE80C00236005909A
:1033B0003A46CDF81080CDF80CE002914B462846F5
:1033C000FFF7ABFE0746BCE70122A1E7B8F1660FA5
:1033D00019D1002963680CDD216113B92268D20775
:1033E00002D501330B4423610D9B4FF00009A36507
:1033F000C7E713B92268D00701D50233F3E70123E9
:10340000F1E74FF067080D9B0E9A934205DB2268A7
:103410002361D107E8D50133E5E7002BCCBF0123B9
:10342000C3F102031344DEE723685A0507D4236976
:103430003A4659462846B04701302AD15AE7B8F1F2
:10344000650F40F2DC80D4E912010022002302F073
:1034500007FA002839D00123364A59462846B04792
:1034600001303FF447AF0E9B0D9A9A4202DB23686E
:10347000D8070ED50A9B099A59462846B04701300D
:103480003FF438AF002704F11A080E9B013B9F421E
:1034900011DB23689F0708D5002704F11908E368AA
:1034A0000F9A9B1A9F42C0F2E780E0680F9B9842F8
:1034B000B8BF184620E70123424659462846B04780
:1034C00001303FF417AF0137DFE70D9B002B33DCF2
:1034D0000123184A59462846B04701303FF40AAF45
:1034E0000D9B23B90E9B13B92368D907D1D50A9B2D
:1034F000099A59462846B04701303FF4FBAE4FF0D9
:10350000000804F11A090D9B5B42984501DB0E9BF4
:103510008EE701234A4659462846B04701303FF41A
:10352000E9AE08F10108EEE7FFFFEF7F105F002032
:10353000145F0020205F00200E9AA36D9A42A8BF5E
:103540001A46002A904636DC4FF0000A04F11A03AE
:1035500028EAE8780B93D4F85890A9EB08039A4529
:1035600031DB0E9B0D9A9A4238DB2368DA0735D49B
:103570000E9B0D99A3EB0902A3EB01089045A8BF90
:103580009046B8F1000F31DC002728EAE87804F112
:103590001A090D9A0E9B9B1AA3EB08039F42BFF6D4
:1035A00078AF01234A4659462846B04701303FF4D8
:1035B000A1AE0137EDE7134659463A462846B047D3
:1035C0000130C1D196E601230B9A59462846B047EF
:1035D00001303FF48FAE0AF1010ABCE70A9B099A59
:1035E00059462846B0470130C2D183E6434607EB2F
:1035F000090259462846B0470130C5D17AE60E9AED
:10360000012A01DCDB0734D501233A465946284616
:10361000B04701303FF46EAE0A9B099A59462846DE
:10362000B04701303FF466AED4E912010022002316
:1036300002F016F950B1002704F11A080E9B013B65
:103640009F420CDB4B4604F15002F2E60E9B7A1CC3
:10365000013B59462846B0470130F3D14AE60123E1
:10366000424659462846B04701303FF443AE013741
:10367000E4E701233A46ECE701234246594628464F
:10368000B04701303FF436AE013708E73A464B46C3
:103690003846494602F016F900283FF430AE014B97
:1036A000014F12E6185F00201C5F00202DE9F04753
:1036B00091461F468A680B6906469342B8BF134677
:1036C000C9F8003091F843200C46DDF8208012B193
:1036D0000133C9F800302368990642BFD9F8003099
:1036E0000233C9F80030256815F0060507D104F14A
:1036F000190AE368D9F800209B1A9D422ADB94F846
:1037000043302268003318BF012392062FD404F1FE
:10371000430239463046C047013022D02368E5686D
:1037200003F00603042B18BF0025D9F800204FF042
:10373000000908BFAD1AA368226908BF25EAE5752C
:103740009342C4BF9B1AED181A344D451BD100207B
:10375000BDE8F0870123524639463046C047013064
:1037600003D14FF0FF30BDE8F0870135C1E73020CD
:10377000E11881F843005A1C94F8451022440233A2
:1037800082F84310C3E70123224639463046C0473A
:103790000130E6D009F10109D7E700002DE9F04337
:1037A00017460A7E85B06E2A984606460C460C9B44
:1037B00001F1430E00F0BC801AD8632A2ED00AD83B
:1037C000002A00F0C880582A00F08A8004F14205DF
:1037D00084F842202AE0642A01D0692AF6D12168BF
:1037E0001A6811F0800F23D0111D1960136827E0AB
:1037F000732A00F0B48008D86F2A2AD0702AE5D145
:103800000A6842F020020A6003E0752A21D0782A73
:10381000DCD178226F4984F8452064E01A6801F110
:103820004205111D1960136884F842300123A3E09A
:1038300011F0400F02F104011960D7D0B2F9003045
:10384000002B03DA2D225B4284F8432062490A22CE
:1038500017E02068196810F0800F03D0081D186069
:103860000B6806E010F0400F01F104001860F7D07B
:103870000B886F2A14BF0A2208225749002084F8B7
:1038800043006568002DA560C0F29C80206820F090
:1038900004002060002B3FD1002D40F0958075463C
:1038A000082A0BD12368DA0708D5236962689A428F
:1038B000DEBF302305F8013C05F1FF35AEEB050313
:1038C0002361CDF800803B4603AA21463046FFF72E
:1038D000EDFE013055D14FF0FF3005B0BDE8F0836B
:1038E00081F845203C492268186812F0800F00F1E9
:1038F00004051D6001D0036802E05506FBD503886E
:10390000D00744BF42F0200222601BB9226822F097
:10391000200222601022B1E77546B3FBF2F002FBF1
:103920001033CB5C05F8013D03460028F5D1B7E71D
:1039300008681A6810F0800F496904D0101D1860DB
:103940001368196007E010F0400F02F104001860DE
:103950001368F6D01980002375462361B1E71A6811
:10396000111D1960156800216268284600F098FF53
:1039700008B1401B606063682361002384F8433012
:103980009FE723692A4639463046C0470130A2D016
:1039900023689B0707D5002504F11909E368039AFA
:1039A0009B1A9D4205DBE068039B9842B8BF18460E
:1039B00093E701234A4639463046C04701308AD052
:1039C0000135EBE7002BA7D10B7804F1420584F811
:1039D000423065E7335F0020225F00200FB40A4BBE
:1039E00013B51C6824B1A36913B9204600F0B8FED2
:1039F00005AB049AA1682046019301F011FB02B0C7
:103A0000BDE8104004B0704724620020034613F85C
:103A1000012B002AFBD1181A013870472DE9F74F06
:103A200003690C6980469C4200F38280013C01F1ED
:103A3000140700F1140657F8245056F824000135F5
:103A4000B0FBF5F54FEA840E06EB0E0307EB0E090B
:103A500001938DB34FF0000A3846B446D34650F870
:103A6000042B93B205FB03A3120C4FEA134A05FB88
:103A700002A29BB2ABEB0303BCF800B04FEA124AC0
:103A80005B441FFA82FBDCF800208145CBEB12423D
:103A900002EB23429BB243EA02434FEA224B4CF82B
:103AA000043BDCD256F80E3033B9019B043B9E42F6
:103AB0001A4631D3C8F81040404601F008F90028F2
:103AC00026DB30464FF0000E013557F8041BD0F8C6
:103AD00000C08BB2AEEB03031FFA8CF213440A0C46
:103AE000C2EB1C4202EB23429BB243EA0243B945BC
:103AF0004FEA224E40F8043BE7D256F8242006EB6A
:103B000084032AB9043B9E421A460BD3C8F81040DE
:103B1000284603B0BDE8F08F1268043B002AC9D1E3
:103B2000013CC4E71268043B002AEFD1013CEAE7FC
:103B30000020EEE7000000002DE9F04F466A95B046
:103B40000446219DCDE902233EB9102000F0A0FEDD
:103B50006062466086600660C660636A196851B13B
:103B60005A68012393404A608B60204600F0DAFED9
:103B70000022636A1A60039B002BB7BF0123002356
:103B80002B60039BAEBF2B6023F000430393DDF853
:103B90000C90AB4B33EA09031BD142F20F73209A0E
:103BA0001360029B23B9C9F31300002800F083853A
:103BB000229B53B9A34B21E0A34B06930833229ACF
:103BC0001360069815B0BDE8F08F9E4B0693033343
:103BD000F5E7DDE90267002200233046394601F0AF
:103BE0003FFE804660B10123209A1360229B002B88
:103BF00000F05E85954B229A1360013B0693E0E747
:103C000012AB019313AB009332463B46204601F0C2
:103C1000D7F8C9F30A558246002D7DD03046C7F348
:103C2000130343F07F5141F44011A5F2FF35CDF865
:103C300040800022864BFEF773FE7BA3D3E900236E
:103C4000FFF722F87AA3D3E90023FEF76BFE0646BE
:103C500028460F46FEF7B2FF77A3D3E90023FFF70C
:103C600013F802460B4630463946FEF75BFE064621
:103C70000F4601F03DFE00228346002330463946C0
:103C800001F0F8FD58B15846FEF798FF02460B4682
:103C90003046394601F0E4FD08B90BF1FF3BBBF1BA
:103CA000160F58D8DDE902236A4901EBCB01D1E9AF
:103CB000000101F0FDFD00284FD000230BF1FF3B78
:103CC0000D93129B5D1B6B1E079343BF0023C5F131
:103CD000010807934FF00008BBF1000F3FDB079B83
:103CE000CDF830B05B440793002308931E9B092B4B
:103CF00000F2B480052BC4BF043B1E931E9BC8BFBB
:103D00000026A3F10203D8BF0126032B00F2B280E4
:103D1000DFE803F084862D78139B129D1D4405F285
:103D20003243202B11DD029A05F21240C3F1400309
:103D300022FA00F009FA03F31843FEF72FFF0123DC
:103D4000A1F1F871013D109373E7C3F12000029BCC
:103D500003FA00F0F1E70123B2E70D90B1E7CBF1F0
:103D6000000308930023A8EB0B080C93BEE7012384
:103D700009931F9B002B40F38080994604930022F7
:103D80000421656A6A6001F114029A427AD969686D
:103D9000204600F093FD636A28601B68B9F10E0F9E
:103DA000069300F2F080002E00F0ED80DDE90223A2
:103DB000BBF1000FCDE90E2379DD264A0BF00F038E
:103DC0004FEA2B1602EBC303F006D3E90023CDE93B
:103DD0000A235CD5DDE90E011F4B0325D3E9082337
:103DE000FFF77CF8CDE9020106F00F061A4F002E0E
:103DF0004FD1DDE90A23DDE90201FFF76FF8CDE9D4
:103E000002016EE0012309931F9B5B4403F101094A
:103E100004934B46012BB8BF0123B0E70023A7E76B
:103E20000023F0E7AFF3008061436F63A787D23FC1
:103E3000B3C8608B288AC63FFB799F501344D33F99
:103E40000000F07F4D5F0020445F0020215F0020D4
:103E50000000F83FE05F0020B85F0020012600234B
:103E600009961E934FF0FF330022049399461223C4
:103E70001F9284E701230993F4E7012304939946F1
:103E80001A46F5E76A68490001326A607BE7022555
:103E9000ACE7F10708D5DDE90A01D7E90023FEF711
:103EA000F3FECDE90A010135761008379FE700F0EF
:103EB000A580DDE90E01CBF10006A24B06F00F0252
:103EC00003EBC203D3E90023FEF7DEFE0225002345
:103ED000CDE902019C4F3611002E40F08480002B6A
:103EE0008DD10D9B002B00F08B80DDE90223CDE905
:103EF0000A23DDE90A010022944B01F0BBFC0028F3
:103F00007ED0B9F1000F7BD0049B002B37DDDDE9BB
:103F10000A0100228E4BFEF7B7FECDE90201049E96
:103F20000BF1FF3701352846FEF748FEDDE9022395
:103F3000FEF7AAFE874B0022FEF7F4FCCDE90A014A
:103F40000B9BA3F150750B95002E5CD1DDE90201AE
:103F50000022814BFEF7E4FC0A9A2B46CDE90201D0
:103F600001F0A6FC002840F0F782DDE902010A9A80
:103F700005F1004301F07EFC002840F0EB82DDE912
:103F80000E23CDE90223139B002BC0F25081BBF11D
:103F90000E0F00F34C816B4B03EBCB03D3E90023F3
:103FA000CDE904231F9B002B80F2DA80B9F1000FCA
:103FB00000F3D68040F0CD82DDE904010022664B9B
:103FC000FEF762FEDDE9022301F068FC4E464F4633
:103FD000002840F0A482069B069A5D1C31230BF159
:103FE000010B13709FE2F20705D5D7E90023FEF716
:103FF0004BFE01230135761008376DE7022570E787
:104000005F464E468FE7069A4E4B32441192099A0C
:10401000711E002A48D003EBC103D3E9002300201E
:104020004E49FEF75BFFDDE90A23FEF779FCCDE997
:104030000A01069DDDE9020101F05AFC0646FEF781
:10404000BDFD02460B46DDE90201FEF769FCDDE934
:104050000A23303605F8016BCDE9020101F00AFCB4
:10406000002864D1DDE9022300203849FEF758FC1E
:10407000DDE90A2301F0FEFB002840F0B980119B26
:104080009D423FF47CAFDDE90A010022304BFEF790
:10409000FBFD0022CDE90A01DDE902012C4BFEF710
:1040A000F3FDCDE90201C5E703EBC101D1E9000150
:1040B000DDE90A23FEF7E8FDCDE90A01069DDDE909
:1040C000020101F015FC0646FEF778FD02460B469C
:1040D000DDE90201FEF724FC3036119B05F8016B87
:1040E000AB42CDE902014FF0000224D11B4BDDE9C8
:1040F0000A01FEF717FC02460B46DDE9020101F05A
:10410000D7FB002874D1DDE90A2300201349FEF70C
:1041100007FC02460B46DDE9020101F0ABFB00287B
:104120003FF42DAF15F8013C6A1E302B01D0BB4681
:104130004DE01546F6E7064BFEF7A6FDCDE9020178
:10414000BDE700BFE05F0020B85F00200000F03F47
:104150000000244000001C40000014400000E03F2C
:10416000069DDDE90267DDE9042330463946FEF7A6
:10417000B5FE01F0BDFB8046FEF720FDDDE904231E
:10418000FEF782FD02460B4630463946FEF7C8FB75
:1041900008F1300605F8016B069E0246AE1BB145DC
:1041A0000B4637D1FEF7BEFB06460F4602460B46CE
:1041B000DDE9040101F05EFBC8B9DDE90401324626
:1041C0003B4601F04DFB10B118F0010F0FD15146E5
:1041D000204600F0A7FB0023209A2B700BF101036F
:1041E0001360229B002B3FF4ECAC1D60E9E45F46BA
:1041F00015F8012C6B1E392A06D1069A9A4207D16E
:1042000030231370134601371A7801321A708EE783
:104210001D46EDE70022B54BFEF736FD00220023D8
:1042200006460F4601F01CFB00289CD0CFE7099AF8
:10423000002A00F029811E9A012A00F30E81109AAB
:10424000002A00F0068103F233434546089E079A90
:1042500001211A4420469844079200F003FC0746C7
:10426000002D0BDD079B002B08DDAB42A8BF2B46C2
:10427000079AA8EB0308ED1AD31A0793089BFBB122
:10428000099B002B00F00481002E11DD39463246D7
:10429000204600F07DFC524601460746204600F0CD
:1042A000EAFB51460A90204600F03CFB0A9B9A46E6
:1042B000089B9A1B04D05146204600F069FC8246B8
:1042C0000121204600F0CEFB0C9B0646002B40F35C
:1042D000E1801A460146204600F05AFC1E9B064625
:1042E000012B40F3DA8000230893336906EB830344
:1042F000186900F069FBC0F12000079B184410F01A
:104300001F0000F0F080C0F12003042B40F3E28096
:10431000079BC0F11C008044054403440793B8F197
:10432000000F05DD51464246204600F07FFC8246E4
:10433000079B002B05DD31461A46204600F076FC2F
:1043400006460D9B002B00F0D3803146504600F00E
:10435000BEFC002880F2CC80002351460A22204671
:1043600000F0F7FA099B0BF1FF3B8246002B00F0AF
:10437000A981002339460A22204600F0EAFA049B6C
:104380000746002B03DC1E9B022B00F3B980002D97
:1043900005DD39462A46204600F048FC0746089BC2
:1043A000002B00F010817968204600F087FA05465E
:1043B0003A6907F10C01023292000C30FEF79AFEC6
:1043C00001222946204600F031FC07970746029B50
:1043D000DDF8188003F00103089331465046FFF7DB
:1043E0001DFB0799054600F13009504600F06FFCAF
:1043F0003A4602903146204600F083FCC3680246EC
:10440000002B40F0E28001460990504600F05FFC2E
:104410000346099A11462046099300F083FA099B46
:10442000002B40F0D4801E9A002A40F0D080089AD9
:10443000002A40F0CC80B9F1390F00F0E880029BEF
:10444000002B01DD05F1310908F1010588F8009024
:104450006BE0129BC3F13603F7E6089B09F1FF36C8
:10446000B342B7BF089B9E1BF21A0C9BBFBF0896B6
:104470009B180C930026B9F1000FB9BFA8EB0905F2
:10448000002345464B46E2E6089E4546099FE7E67F
:10449000089A10E71E9B012B18DC029BB3B9039B03
:1044A000C3F31303A3B9039B23F000431B0D1B05A8
:1044B0002BB1079B08F101080133079301230893EF
:1044C0000C9B002B7FF411AF012016E70023F6E7C9
:1044D000029BF4E73FF423AF079A1C331A44984435
:1044E0001D4413461AE70346F6E700BF00002440C8
:1044F000B9F1000F33DC1E9B022B30DDCDF810909C
:10450000049B63B931460522204600F022FA014699
:104510000646504600F0DBFB00283FF75CAD1F9BD2
:10452000069D6FEA030B002307933146204600F0F7
:10453000F9F9002F3FF44BAE079B2BB1BB4203D0E0
:104540001946204600F0EEF93946204600F0EAF917
:104550003DE600263746E2E7BB4637463BE5099B8A
:10456000CDF81090002B7FF412AF069D31465046D7
:10457000FFF754FA069B00F1300905F8019B049AF5
:10458000EB1A9A4200F38180069B012AACBF9B186C
:10459000013398460023079351460122204600F03C
:1045A00045FB3146824600F092FB002834DC02D104
:1045B00019F0010F30D1454615F8013C6A1E302B29
:1045C000B3D11546F8E73846FFE6012322E7029A01
:1045D000002A04DB28D11E9A32BB089A22BB002B8A
:1045E0007FF732AF51460122204600F01FFB3146D3
:1045F000824600F06CFB002805DC7FF425AF19F043
:10460000010F3FF421AFB9F1390F7FF41BAF39230C
:1046100008F1010808F8013C454615F8013C6A1EFE
:10462000392B3AD001333FE0002B08F1010505DDBD
:10463000B9F1390FEBD009F1010907E7069B049A9C
:10464000EB1A9342A84605F8019CA5D051460023D9
:104650000A22204600F07DF9079B8246BB424FF0BC
:104660000A024FF000030799204604D100F071F9C7
:1046700007900746B1E600F06CF9002307900A2284
:104680003946204600F065F9F3E7514600230A2237
:10469000204600F05EF9824668E7069B934205D10A
:1046A0003123069A0BF1010B13703EE71546B4E770
:1046B000094BFFF7A3BA229B002B7FF47DAA074B7F
:1046C000FFF79CBA049B002B3FF74FAF1E9B022BBA
:1046D0007FF74BAF14E700BF205F0020445F00204E
:1046E000014900F0A9B800BFC9550020002310B54A
:1046F000044603604360836081814366C281036135
:1047000043618361194608225C30FEF7FEFC054BCD
:1047100024626362044BA362044BE362044B236391
:1047200010BD00BF6D5200208F520020C7520020E4
:10473000EB52002070B568254A1E55430E4605F120
:10474000740100F0E7FB044640B1002180E842001C
:104750000C30A06005F16802FEF7D7FC204670BD62
:10476000836910B5044633BB8364C3640365124B8D
:10477000124A1B688262984204BF0123836100F0E1
:104780001FF86060204600F01BF8A060204600F093
:1047900017F80022E06004216068FFF7A7FF0122FC
:1047A0000921A068FFF7A2FF02221221E068FFF7AB
:1047B0009DFF0123A36110BD0C5F0020E146002096
:1047C000F8B51C4B07461E68B36913B93046FFF7AE
:1047D000C7FF4836B4687368013B03D5336833B10B
:1047E0003668F7E7B4F90C506DB16834F4E704218A
:1047F0003846FFF79FFF30600028F1D10C230446B4
:104800003B602046F8BD4FF6FF73E38101236566E8
:10481000A3812560A560656025616561A5610822A9
:10482000294604F15C00FEF770FC6563A563A5648E
:10483000E564E6E70C5F00202DE9F84380468946F1
:10484000002600F1480414B93046BDE8F883A56895
:104850006768013F01D52468F5E7AB89012B07D9CB
:10486000B5F90E30013303D029464046C847064308
:104870006835EEE7044B1B68186A044B002808BF34
:104880001846F030704700BF246200208862002084
:10489000024B0146186800F03DBB00BF24620020B7
:1048A00010B5C9B202449042034601D1002010BDA8
:1048B0001C7801308C42F6D1184610BD70B5456A9F
:1048C00004460E463DB91020FFF7E2FF60624560E6
:1048D00085600560C560656AEB6883B1636ADB6803
:1048E00053F82600B8B9012101FA06F56A1D9200B5
:1048F000204600F0B4FA60B1466085600EE02122E7
:104900000421204600F0ABFA636AE860DB68002B04
:10491000E4D1002070BD026843F826200023036123
:10492000C36070BD70B5446A06460D463CB91020A0
:10493000FFF7AEFF7062446084600460C4603DB104
:10494000736A6A68DB6853F82210296043F82250C2
:1049500070BD2DE9F0411F4606460C4600230D6947
:1049600001F1140EDEF80000013381B202FB017187
:10497000000C0F0C02FB007089B201EB00419D425C
:104980004FEA10474EF8041BECDCD7B1A3689D42F8
:1049900012DB616830460131FFF790FF80462269E3
:1049A00004F10C01023292000C30FEF7A3FB214609
:1049B0003046FFF7B7FF444604EB850301355F61DE
:1049C00025612046BDE8F081020C12040346B2B90D
:1049D0000304102013F07F4F04BF1B02083013F0B4
:1049E000704F04BF1B01043013F0404F04BF9B0005
:1049F0000230002B06DB5B0003D50130704700203E
:104A0000E8E7202070470368014613F007020BD047
:104A1000DA0723D4980749BF5B089B0801200B6085
:104A20005CBF0B600220704798B2A8B910201B0C25
:104A300013F0FF0F04BF1B0A08301A0704BF1B093D
:104A400004309A0704BF9B080230DA0702D45B08DF
:104A500006D001300B6070471046E9E70020704730
:104A60002020704710B50C460121FFF727FF0122D7
:104A70004461026110BD2DE9F74F14460A692369AC
:104A800089469A42BEBF0B46A1461C46D9F8107013
:104A9000D4F810A0D9F80830D9F8041007EB0A06AA
:104AA0009E42C8BF0131FFF709FF00F114052B46F4
:104AB000002205EB8608434516D304F1140209F1E0
:104AC000140102EB8A0301EB87070193019C134653
:104AD00094420CD8002E03DD58F8043D002B54D02E
:104AE000066103B0BDE8F08F43F8042BE3E7B3F8A9
:104AF00000A00432BAF1000F20D0AE4689464FF034
:104B0000000C59F8044BBEF800B0A3B20AFB03B383
:104B10004FEA144BDEF8004063444FEA144C0AFBA2
:104B20000BC404EB13449BB243EA04434F454FEAE2
:104B3000144C4EF8043BE4D8CEF800C032F8029C86
:104B4000B9F1000F1FD0AE468C464FF0000A2B681B
:104B5000BCF80040BEF802B09BB209FB04B4A2440A
:104B600043EA0A434EF8043B5CF8043BBEF80040BD
:104B70001B0C09FB0343674503EB1A434FEA134A37
:104B8000E6D8CEF800300435A0E7013EA2E70000E9
:104B90002DE9F843154612F0030206460F4607D0EA
:104BA000214C013A002354F82220FFF7D2FE074699
:104BB000AD1035D0746A3CB91020FFF769FE706201
:104BC000446084600460C460D6F82480D8F808404B
:104BD0004CB940F271213046FFF744FF00230446F0
:104BE000C8F8080003604FF00008EB070AD5394603
:104BF00022463046FFF73FFF814639463046FFF7F1
:104C000091FE4F466D100BD0206838B922462146E0
:104C10003046FFF730FF2060C0F800800446E4E72C
:104C20003846BDE8F88300BFA86000202DE9F047B2
:104C30000C460746164623694FEA621A0AEB030937
:104C40004968A36809F10105AB4231DB3846FFF73B
:104C500035FE00228046114600F1140352452ADB3E
:104C600020692AEAEA7A04F1140116F01F0203EB24
:104C70008A0301EB800E22D00020C2F1200C0E68C6
:104C80009640304343F8040B51F8040B8E4520FA4C
:104C90000CF0F4D8186008B109F10205013D38465E
:104CA000C8F810502146FFF73DFE4046BDE8F087AA
:104CB00001315B00C8E743F822100132CEE7043B24
:104CC00051F8042B8E4543F8042FF9D8E6E7036921
:104CD0000A6930B59B1A0CD1920014301431841833
:104CE000114454F8045D51F8042D954203D005D3C6
:104CF0000123184630BDA042F3D3FAE74FF0FF334B
:104D0000F7E72DE9F0470D460746114628461446B9
:104D1000FFF7DDFF061E08D131463846FFF7CEFD0E
:104D2000012346610361BDE8F087A4BF23462C46FA
:104D300038466168A6BF1D4600260126FFF7BEFD66
:104D40004FF0000CC6602B69266904F1140205F1CE
:104D5000140902EB860709EB830800F1140152F8ED
:104D600004AB59F8045B1FFA8AF36344ACB21B1B13
:104D70002C0CC4EB1A4404EB23449BB24FEA244CA2
:104D8000C84543EA0444964641F8044BE7D8BE457B
:104D900005D351F8043D8BB10661BDE8F0875EF89C
:104DA000044BA2B26244131403EB144392B242EADE
:104DB00003424FEA234C41F8042BE8E7013EE8E7C1
:104DC0002DE9F3411C4601219046089E099DFFF7FD
:104DD00075FDC4F31302C4F30A54074634BB0192B1
:104DE000B8F1000F27D002A840F8088DFFF70BFE9E
:104DF0000099F0B1019AC0F1200302FA03F30B43CA
:104E0000C2407B610192019B002B14BF0221012152
:104E1000BB613961C4B1A4F2334404443460C0F1CD
:104E200035002860384602B0BDE8F08142F48012B7
:104E3000D5E77961E7E701A8FFF7E5FD0121019BCF
:104E400039617B612030E5E7A0F2324007EB810356
:104E500030601869FFF7B8FDC0EB4110E1E738B5E5
:104E600002FB01F4214600F055F8054618B1224630
:104E70000021FEF74AF9284638BD000038B505463E
:104E8000002943D051F8043C0C1F002BB8BFE41894
:104E900000F04CFC1E4A1368104633B9636014607E
:104EA0002846BDE8384000F042BCA3420BD9216837
:104EB0006218934201BF1A685B68521822606360EF
:104EC0000460EDE713465A680AB1A242FAD919689C
:104ED0005818A0420BD1206801445818824219602A
:104EE000DED110685268014419605A60D8E702D9CF
:104EF0000C232B60D4E7206821188A4201BF116877
:104F000052680918216062605C60C9E738BD00BF63
:104F10006864002070B5CD1C25F0030508350C2D04
:104F200038BF0C25002D064601DBA94203D90C230E
:104F30003360002070BD00F0F9FB234A146821465D
:104F400091B9224C23681BB9304600F07FF92060EC
:104F50002946304600F07AF9431C26D10C2330460E
:104F6000336000F0E4FBE4E70B685B1B1AD40B2B07
:104F70000FD90B60CC18CD50304600F0D8FB04F1AF
:104F80000B00231D20F00700C31A1BD05A42E25029
:104F900070BD8C420BBF63684B681360636018BFC1
:104FA0000C46E9E70C464968CAE7C41C24F0030430
:104FB000A04205D0211A304600F048F90130CDD08A
:104FC0002560D9E770BD00BF686400206C640020D4
:104FD000936810B4013B002B936008DA9469A342F4
:104FE00002DBCBB20A2B02D110BC00F083B91368EC
:104FF000581C10601970C8B210BC7047F8B506464E
:105000000F461446D518AC4201D1002007E03A46BD
:1050100014F8011B3046FFF7DBFF431CF3D1F8BD4A
:105020002DE9F04F9DB00C4617460393064618B184
:1050300083690BB9FFF794FB7C4B9C4257D1746892
:10504000A38918075DD52369002B5AD00023099343
:1050500020238DF8293030234FF0010B8DF82A30B2
:10506000B846454615F8013B002B55D1B8EB070A69
:105070000BD053463A4621463046FFF7BFFF01307A
:1050800000F0C480099B5344099398F80030002B2A
:1050900000F0BC8000234FF0FF3204930793059289
:1050A00006938DF853301A93052229786048FFF74C
:1050B000F7FB05F10108049B002831D1D90644BF54
:1050C00020228DF853201A0744BF2B228DF853203D
:1050D0002A782A2A2CD000210A20079AA84698F874
:1050E00000300135303B092B6DD971B326E0514BAF
:1050F0009C4201D1B468A3E74F4B9C4208BFF468BF
:105100009EE72146304600F059F900289ED04FF026
:10511000FF301DB0BDE8F08F252BA7D0A846A0E733
:10512000434A4546801A0BFA00F018430490BBE747
:10513000039A111D12680391002A01DB079204E013
:10514000524243F002030792049398F800302E2B4A
:1051500010D198F8013008F101012A2B37D1039BB7
:1051600008F102081A1D1B680392002BB8BF4FF00C
:10517000FF330593314D032298F800102846FFF7BE
:105180008FFB40B14023401B03FA00F0049B08F161
:1051900001080343049398F800100622284808F1F8
:1051A00001078DF82810FFF77BFB002834D0254B32
:1051B00003BB039B073323F0070308330393099BC7
:1051C0004B4409934CE700FB0232012186E70023A0
:1051D0000A2518460593884698F800200131303A90
:1051E000092A03D9002BC5D00590C3E705FB002091
:1051F0000123F0E703AB00932246134B04A930468A
:10520000FEF71CF8B0F1FF3F8146D8D1A3895B06B9
:105210003FF57DAF09987CE703AB009322460A4B2C
:1052200004A93046FEF7BAFAECE700BF745F00202D
:10523000B4600020945F0020545F0020BA6000201A
:10524000BE6000203D320020FD4F002038B5002315
:10525000054C05460846236000F0C8FC431C02D1FB
:10526000236803B12B6038BDF066002010B50C46F2
:10527000B1F90E1000F05CFA0028ABBF636DA38992
:105280001B1823F48053ACBF6365A38110BD2DE9C7
:10529000F0411F468B890546DB050C46164605D5B1
:1052A00002230022B1F90E1000F0B8F9A3893246AA
:1052B00023F48053A381B4F90E103B462846BDE881
:1052C000F04100F069B810B50C46B1F90E1000F0CD
:1052D000A5F9431CA38915BF606523F4805343F4EB
:1052E0008053A38118BFA38110BDB1F90E1000F047
:1052F000D3B80000F8B50E461446054618B18369C8
:105300000BB9FFF72DFA214B9C422AD16C68A36997
:10531000A360A3891A072ED5236963B32369206884
:10532000F6B2C01A63693746984204DB2146284624
:1053300000F04AF928BBA3680130013BA360236851
:105340005A1C22601E706369984204D0A389DB074F
:1053500019D50A2E17D12146284600F035F990B10B
:105360000FE00B4B9C4201D1AC68D0E7094B9C424B
:1053700008BFEC68CBE72146284600F01FF800285C
:10538000CCD04FF0FF373846F8BD00BF745F002027
:10539000945F0020545F002038B50546084611464A
:1053A0000022054C22601A4600F0CDFB431C02D1BE
:1053B000236803B12B6038BDF0660020324B70B516
:1053C0001D6806460C4625B1AB6913B92846FFF7A0
:1053D000C7F92E4B9C420FD16C68B4F90C309AB2CD
:1053E00015072CD4D00611D40922326043F04003B3
:1053F000A3814FF0FF3070BD254B9C4201D1AC68BA
:10540000EBE7244B9C4208BFEC68E6E7510712D556
:10541000616B41B104F14403994202D03046FFF779
:105420002DFD00236363A38923F02403A3810023BC
:10543000636023692360A38943F00803A381236980
:105440004BB9A38903F42073B3F5007F03D0214641
:10545000304600F019F9A28912F001030CD00023A4
:10546000A36063695B42A361236953B9B4F90C304B
:1054700013F08000BAD170BD920758BF6369A36072
:10548000F2E70020F7E700BF24620020745F0020ED
:10549000945F0020545F002038B50023054C05467A
:1054A0000846236000F07EFB431C02D1236803B151
:1054B0002B6038BDF06600208A892DE9F041054651
:1054C00010070C465AD44B68002B05DC0B6C002BE4
:1054D00002DC0020BDE8F081E66A002EF9D000234E
:1054E00012F480522F682B6033D0606DA3895A0765
:1054F00005D56368C01A636B0BB1236CC01A002317
:105500000246E66A216A2846B047431CA38906D1B1
:1055100029681D294BD82B4ACA40D60747D50022F7
:1055200062602269D904226004D5421C01D12B6833
:1055300003B96065616B2F600029CAD004F1440390
:10554000994202D02846FFF799FC00206063BDE82D
:10555000F081216A01232846B047411CC6D12B683F
:10556000002BC3D01D2B01D0162B01D12F60B0E72B
:10557000A38943F04003A381BDE8F0810F69002FA8
:10558000A7D0930718BF00230E6808BF4B69A6EB8E
:1055900007080F608B60B8F1000F9ADD43463A466A
:1055A000216A2846A66AB047002807DCA38943F091
:1055B0004003A3814FF0FF30BDE8F0810744A8EB22
:1055C0000008E8E70100402038B50B6905460C46A5
:1055D000DBB118B183690BB9FFF7C2F80C4B9C42E1
:1055E00009D16C68B4F90C307BB121462846BDE87E
:1055F0003840FFF761BF074B9C4201D1AC68F1E72F
:10560000054B9C4208BFEC68ECE7002038BD00BFAA
:10561000745F0020945F0020545F002038B5054679
:10562000084611460022054C22601A4600F079FA1D
:10563000431C02D1236803B12B6038BDF066002003
:1056400070B50E46B1F90E1090B0002914461D46F3
:1056500007DA00232B60B3891A0610D44FF4806355
:105660000EE001AA00F084F80028F2DB029A02F4AE
:105670007042A2F500535A425A412A60EEE7402395
:105680000020236010B070BD8B8973B59D0706465E
:105690000C4607D504F147032360236101236361AE
:1056A00002B070BD01AB6A46FFF7CAFF009905461C
:1056B0003046FFF72FFC48B9B4F90C309A05EFD407
:1056C00023F0030343F00203A381E3E70D4BB3622E
:1056D000A389206043F08003A381009B2061636164
:1056E000019B5BB1B4F90E10304600F053F828B1BD
:1056F000A38923F0030343F00103A381A3891D437E
:10570000A581CDE7E146002082B001B901A942B1EF
:105710004BB113780B601278101C18BF012002B037
:1057200070471046FBE76FF00100F8E770477047DD
:1057300038B50546084611460022054C22601A4637
:1057400000F098F9431C02D1236803B12B6038BDE7
:10575000F066002049B1FF2A8BBF8A230A700360DC
:10576000012088BF4FF0FF307047084670470000A7
:1057700038B50023064C054608461146236000F064
:105780007AFA431C02D1236803B12B6038BD00BFF5
:10579000F066002038B50023054C05460846236016
:1057A00000F077FA431C02D1236803B12B6038BDA7
:1057B000F06600204FF0FF3C06E000BF4FF0010C08
:1057C00002E000BF4FF0010C4DF804CD4FEA410C50
:1057D0007FEA6C5C4FEA430C18BF7FEA6C5C1BD01D
:1057E00001B050EA410C0CBF52EA430C91EA030F9E
:1057F00002BF90EA020F0020704710F1000F91EAFB
:10580000030F58BF994208BF90422CBFD8176FEAC8
:10581000E37040F0010070474FEA410C7FEA6C5C96
:1058200002D150EA013C07D14FEA430C7FEA6C5C9D
:10583000D6D152EA033CD3D05DF8040B704700BFC9
:105840008446104662468C461946634600E000BF17
:1058500001B5FFF7B7FF002848BF10F1000F01BDE9
:105860004DF808EDFFF7F4FF0CBF012000205DF8B4
:1058700008FB00BF4DF808EDFFF7EAFF34BF012039
:1058800000205DF808FB00BF4DF808EDFFF7E0FFD2
:1058900094BF012000205DF808FB00BF4DF808ED23
:1058A000FFF7CEFF94BF012000205DF808FB00BF8A
:1058B0004DF808EDFFF7C4FF34BF012000205DF86C
:1058C00008FB00BF4FEA410C7FEA6C5C02D150EA52
:1058D000013C0AD14FEA430C7FEA6C5C02D152EAE8
:1058E000033C02D14FF0000070474FF001007047B9
:1058F0004FEA410212F5001215D211D56FF47873F8
:10590000B3EB625212D94FEAC12343F0004343EA9A
:10591000505311F0004F23FA02F018BF4042704775
:105920004FF00000704750EA013005D111F00040FF
:1059300008BF6FF0004070474FF00000704700BF95
:105940000A4B10B50446186818B183690BB9FEF705
:1059500007FF132C07D8064850F83430013302D023
:1059600000EBC40010BD002010BD00BF2462002069
:1059700080640020F8B5431C054609D100F0A6F963
:1059800000270646132420463946ABBE0446346041
:105990002846F8BDF8B5054600F098F900270646F8
:1059A000132420463946ABBE044634602846F8BD71
:1059B0002DE9FF474FF003080023DFF894900124FE
:1059C000CDF8049001AFCDF80C8002932046394603
:1059D000ABBE054604231A4ECDF804903560CDF8D1
:1059E0000C80029320463946ABBE82460823154DF3
:1059F000CDF80490C5F800A0CDF80C8002932046A5
:105A00003946ABBE044600214FF0FF300E4A146009
:105A1000013404BF2B6813600C4B43F83100013193
:105A20001429FAD131682868196000211268596078
:105A30009860D9601A61596104B0BDE8F08700BF71
:105A4000786400207C64002074640020806400205E
:105A5000D061002030B585B001900291039201AD74
:105A6000062420462946ABBE04462046FFF782FFA7
:105A700005B030BD70B50E461546FFF761FF044610
:105A800030B900F023F9092303604FF0FF3070BDF7
:105A90002A4631460068FFF7DDFF431C1FBF6368DD
:105AA000281A1B18636070BDF7B50C461646FFF741
:105AB00047FF054640B900F009F9092303604FF09C
:105AC000FF34204603B0F0BD022E03D900F0FEF8EB
:105AD0001623F3E7012E12D14368E418F6D42B689D
