:020000042000DA
:1000000000000120910100207F03002081030020D7
:1000100083030020850300208703002000000000E8
:100020000000000000000000000000008903002024
:100030008B030020000000008D0300208F030020B0
:100040009103002093030020091200202D120020AC
:10005000990300209B0300209D0300209F030020A4
:10006000A1030020A3030020A5030020A703002074
:10007000A9030020AB03002071270020AF0300205C
:10008000B1030020B3030020B5030020990700202E
:10009000B9030020BB030020BD030020BF030020E4
:1000A000C1030020C3030020C5030020A1130020CA
:1000B00099140020CB030020CD030020CF030020A3
:1000C000D1030020D3030020D50300207D2700208A
:1000D000C1270020DB030020DD030020DF03002018
:1000E000E1030020E3030020E5030020E7030020F4
:1000F000E9030020EB030020ED030020EF030020C4
:10010000F1030020F3030020F5030020F703002093
:10011000F9030020FB030020FD030020FF03002063
:10012000010400200304002005040020070400202F
:10013000090400200B0400200D0400200F040020FF
:1001400011040020130400201504002017040020CF
:10015000190400201B0400201D0400201F0400209F
:10016000210400202304002025040020270400206F
:10017000290400202B0400202D0400202F0400203F
:1001800031040020330400200000000000000000C3
:100190004FF0000BDFF8BE020068DFF8B612096806
:1001A00001F0030100F01C00142801D14BF0020BF8
:1001B000002901D04BF0010BBBF1000F05D0A7487F
:1001C000A749DFF8722200F09FF8A64880470BF09D
:1001D000020ABAF1000F0CD0DFF86E02DFF86E12DF
:1001E00002680B680FB44FF000024FF0FF0302608B
:1001F0000B609D4800220123022808D1DFF83E123F
:100200000A60DFF842120A60DFF836120B6001283C
:1002100008D1DFF82E120A60DFF82A120A60DFF830
:100220001E120B609148002809D191489149924AC9
:1002300000F032F891489249924A00F02DF8924825
:100240009249934A00F028F892489349DFF8E62152
:1002500000F05AF8BBF1000F12D090489049DFF837
:10026000DA2100F051F80BF0020ABAF1000F07D0C2
:100270000FBC02600B6000BFAFF30080AFF30080E3
:10028000DFF820020FF2030E00474FF000004FF09E
:100290000001DFF814F2FEE72DE9F841884225D08D
:1002A000B2EB010200D5FEE740EA010313F00303BD
:1002B00002D000F01DF819E04FF000039046121133
:1002C000F7D09A421CBFF0C8F0C103F10103F8D186
:1002D00008F00F08B8F1000F08D004780C7000F196
:1002E000010001F10101B8F10108F6D1BDE8F88182
:1002F00008B54FF0000303780B7000F1010001F125
:100300000101013AF7D108BD884237D000F0030659
:10031000002E14D04FF00405A5EB06044FF008079B
:1003200007FB06F8914669FA08F9002C07D080F817
:10033000009069FA07F900F10100013CF5E74FF080
:1003400000060F46091A88460911914614461546BB
:10035000B14206D018BFA0E8340206F10106B1424E
:10036000F8D108F00F08B8F1000F07D002704FEA7B
:10037000322200F10100B8F10108F4E77047FEE70E
:10038000FEE7FEE7FEE7FEE7FEE7FEE7FEE7FEE745
:10039000FEE7FEE7FEE7FEE7FEE7FEE7FEE7FEE735
:1003A000FEE7FEE7FEE7FEE7FEE7FEE7FEE7FEE725
:1003B000FEE7FEE7FEE7FEE7FEE7FEE7FEE7FEE715
:1003C000FEE7FEE7FEE7FEE7FEE7FEE7FEE7FEE705
:1003D000FEE7FEE7FEE7FEE7FEE7FEE7FEE7FEE7F5
:1003E000FEE7FEE7FEE7FEE7FEE7FEE7FEE7FEE7E5
:1003F000FEE7FEE7FEE7FEE7FEE7FEE7FEE7FEE7D5
:10040000FEE7FEE7FEE7FEE7FEE7FEE7FEE7FEE7C4
:10041000FEE7FEE7FEE7FEE7FEE7FEE7FEE7FEE7B4
:10042000FEE7FEE7FEE7FEE7FEE7FEE7FEE7FEE7A4
:10043000FEE7FEE7704700000000A2A2A2A2008033
:100440000340088003401080034030800340348024
:1004500003403880034018080240000000F00020EC
:1004600000000120F1210020000000000000000039
:10047000000000200000002090010020B0040020B7
:10048000B0040020E02A0020E02A0020E02A00201A
:10049000402F0020402F002030310020303100203C
:1004A00000F00020092800200D2600200000000098
:1004B00010B5054C237833B9044B13B10448AFF39E
:1004C00000800123237010BD402F00200000000099
:1004D000BC2A00200C4B43B10C4810B50C49AFF3BB
:1004E00000800C48036823B910BD0A48036833B97B
:1004F0007047094B002BF7D0BDE810401847064B5A
:10050000002BF5D0184700BF00000000BC2A0020D7
:10051000442F0020E02A00200000000080B586B0B3
:1005200000AF03463960FB710F4B7B61FB791B0108
:1005300043F47C633B610A235B005AB240235BB205
:1005400013435BB2FB730A233A687969184600F0DB
:100550004DF80A233A683969184600F047F800BF99
:100560001837BD4680BD00BFD00FFC0080B586B0F7
:1005700000AF03463960FB71FB795B005AB2402340
:100580005BB213435BB243F001035BB2FB75002324
:100590003B610023FB600021386801F099F9FB7D85
:1005A0001946386801F028FAF8600021386801F02F
:1005B00023FA03461B043B610021386801F01CFA52
:1005C00003461B023A6913433B610021386801F07E
:1005D00013FA02463B6913433B610021386801F07E
:1005E000C0F93B6918461837BD4680BD80B586B056
:1005F00000AF0346B9607A60FB73FB7B5B005AB2C5
:1006000040235BB213435BB2FB75BB681B0CBB752D
:10061000BB681B0A7B75BB683B750021786801F0DD
:1006200057F9FB7D1946786801F0E6F93861BB7D22
:100630001946786801F0E0F938617B7D19467868E1
:1006400001F0DAF938613B7D1946786801F0D4F998
:1006500038610021786801F084F900BF1837BD4681
:1006600080BD80B582B000AF03463A60FB710B4697
:10067000BB71B979F8793B68002200F004F800BF3B
:100680000837BD4680BD80B586B000AF3B600346ED
:10069000FB710B46BB7113467B7108233968184602
:1006A000FFF764FF3861FB799B00FB7300237B61DC
:1006B000FB7903F00103DBB2002B05D17B79DA0073
:1006C000BB7913437B6104E07A79BB795B00134308
:1006D0007B61FB7B0F2202FA03F3DB431A463B6983
:1006E00013403B61FB7B7A6902FA03F33A691343D7
:1006F0003B6108233A6839691846FFF777FF00BF66
:100700001837BD4680BD01607047006870470EB560
:1007100003FA01F303EA020301686FEA020201EA45
:10072000020141EA030101600EBD006800EA020017
:1007300020FA01F0704701807047008870470EB5BD
:1007400003FA01F303EA020301886FEA020201EAF5
:10075000020141EA030101800EBD008800EA0200A7
:1007600020FA01F0704701707047007870470EB5AD
:1007700003FA01F303EA020301786FEA020201EAD5
:10078000020141EA030101700EBD007800EA020097
:1007900020FA01F07047000080B582B000AF0F4B27
:1007A0005B68FB710D4B9B68DAB2FB791340FB7100
:1007B000FB7903F00203BB71BB79002B01D000F081
:1007C000E5F8FB7903F001037B717B79002B01D005
:1007D00000F006F800BF0837BD4680BD006001404C
:1007E00080B584B000AF624B1B78022B3DD0052B47
:1007F00068D0012B40F0AA805E4B1B889BB2002B77
:100800002FD05D4B1A685B4B1B889BB21946104674
:1008100000F00AFAF860574B1B889BB21A46FB6837
:100820009A420FD9534B1B889AB2FB689BB2D31ADA
:100830009AB2504B1A80504B1A68FB6813444E4AC8
:10084000136090E04B4B00221A804C4B1B68002B2E
:1008500003D0474B02221A7085E0454B03221A70E1
:1008600081E000BE00F0BAF97DE0444B1B68002B2C
:1008700024D0434B1A68414B1B681946104600F0C0
:10088000D3F9B8603D4B1B68BA689A420CD23B4B17
:100890001A68BB68D31A394A1360394B1A68BB68A7
:1008A0001344374A13605EE0364A364B9B6823F0A8
:1008B000010393602E4B03221A7054E000BE00F037
:1008C0008DF950E02D4B1B68002B1BD12E4B1B6864
:1008D000002B14D02C4B1B68294898470246274B05
:1008E0001A60264B1B68002B0CD1264A254B9B68AF
:1008F00023F0010393601E4B03221A7002E000BE36
:1009000000F06CF91D4B1B68002B09D11D4A1D4BD3
:100910009B6823F001039360154B03221A7022E0B9
:10092000174B1A68154B1B681946104600F07CF9E6
:100930007860124B1A687B68D31A104A1360104B08
:100940001A687B6813440E4A13600CE00D4A0D4B85
:100950009B6823F001039360002000F01FF9044B13
:1009600000221A7000BF00BF1037BD4680BD00BF17
:10097000812F0020642F0020602F00206C2F00208A
:10098000682F0020006001407C2F002080B584B0DB
:1009900000AF7C4B1B69FB81FB8923F4FF4323F0F1
:1009A0007F03BB81FB89FB72774B1B78052B00F221
:1009B000D68001A252F823F0D10900204B0B002071
:1009C0004B0B0020290A0020770A00201F0B002073
:1009D000BB89002B00F0CA80FB7AF12B06D0FB7A92
:1009E000BB72BB7A184600F04FF9BFE0674B00229C
:1009F0001A80674B1B68654A128892B21344FA7AD0
:100A00001A70624B1B889BB201339AB25F4B1A80FB
:100A10005F4B1B685D4A128892B2134400221A7021
:100A2000594B04221A70A1E0BB89002B00F0A08072
:100A3000FB7A7B72574B1B78DBB27A7A9A4215D1DC
:100A4000524B00221A80524B1B68504A128892B2B5
:100A500013447A7A1A704D4B1B889BB201339AB2B9
:100A60004A4B1A80484B04221A7081E07B7A184660
:100A700000F00AF97CE0BB89002B06D0FB7A3B72C0
:100A80003B7A184600F000F974E0414B1A683F4B7E
:100A90001B889BB2013B13441B78F12B16D13C4BB6
:100AA0001B683A4A128892B21344FA7A1A70384B89
:100AB0001A68364B1B889BB2013B13441B781846BF
:100AC00000F0E2F8304B00221A7053E02F4B1B88E5
:100AD0009AB2314B1B889A4210D2FB7AFB712C4B95
:100AE0001B682A4A128892B21344FA791A70274B6B
:100AF0001B889BB201339AB2244B1A80234B1B886C
:100B00009AB2254B1B889A4234D1204B1B889BB24A
:100B1000184600F043F81C4B00221A702AE0BB89EB
:100B2000002B0BD11A4B1B680133FA7A1A70022082
:100B300000F034F8144B00221A701EE0FB7ABB71EF
:100B4000BB79184600F0A0F817E0BB89002B13D042
:100B5000FB7A7B717B79184600F096F80CE0002058
:100B600000F01CF8084B00221A7006E000BF04E0F9
:100B700000BF02E000BF00E000BF00BF1037BD466D
:100B800080BD00BF00600140812F0020762F002033
:100B9000702F00205C2F0020742F002080B582B0C1
:100BA00000AF0346FB800A4B1B68002B0CD0084BA0
:100BB0001B68084A1268F98810469847044B0022BF
:100BC0001A60054B00221A7000BF0837BD4680BD71
:100BD000782F0020702F0020802F002080B582B059
:100BE00000AF0E4B1B78DBB2002B13D00C4B1B88D5
:100BF0009BB21846FFF7D2FF0A4A0A4B1B6843F024
:100C000001031360074B1B6803F001037B607B68E3
:100C1000002BF7D100BF0837BD4680BD802F0020D4
:100C2000762F00200060014080B485B000AF78606E
:100C30003960144A134B1B6823F00403136000232C
:100C4000FB60104B5B6803F00103BB600DE00D49D6
:100C50007A68FB6813441B780B61FB680133FB6007
:100C6000084B5B6803F00103BB60BB68002B03D03B
:100C7000FA683B689A42EAD3FB6818461437BD46C7
:100C800080BC70470060014080B582B000AF034671
:100C9000FB71064B1B68002B04D0044B1B68FA79D0
:100CA0001046984700BF0837BD4680BD842F0020FE
:100CB00080B483B000AF0346FB71094997F9073050
:100CC0005B09FA7902F01F02012000FA02F2603398
:100CD00041F8232000BF0C37BD4680BC704700BFE1
:100CE00000E100E080B58AB000AF78607B681B68E7
:100CF0001B687B627B681B689B693B627B681B6827
:100D00005B68FB617B681B689B6ABB617B681B68D7
:100D10001B6B7B617B681B685B6B3B617B681B6843
:100D2000DB69FB607B68354A93421DD17B68344A9E
:100D30001A607B6802221A71324A324B9B6C43F470
:100D4000007393640220FFF7B3FF2E4A2D4B9B6C78
:100D500023F4007393647B681B687A6812681268D6
:100D600022F000421A601CE07B68274A1A607B6808
:100D700003221A71234A234B9B6C43F480639364D0
:100D80000320FFF795FF1F4A1E4B9B6C23F48063E3
:100D900093647B681B687A681268126822F00042CC
:100DA0001A607B6A23F001037B627B681B687A6AA6
:100DB0001A607B681B683A6A9A617B681B68FA69EB
:100DC0005A607B681B687A681268126842F00102F8
:100DD0001A607B681B68BA699A627B681B687A69CB
:100DE0001A637B681B683A695A637B681B68FA68F8
:100DF000DA6100BF2837BD4680BD00BF2C3000201F
:100E000000100040008003400010014080B485B015
:100E100000AF78600023FB600DE07B681B687A6898
:100E200091687A6812690A4412785A617B681B6972
:100E30005A1C7B681A617B681B689B6803F480738B
:100E4000002B05D17B681A697B68DB689A42E4D382
:100E50007B681A697B68DB689A421BD30DE07B686C
:100E60001B687A6851697A68D2690A4412785A61B3
:100E70007B68DB695A1C7B68DA617B681B689B684E
:100E800003F48073002B05D17B68DA697B689B696A
:100E90009A42E4D37B685B6A002B1DD07B681A6999
:100EA0007B68DB689A4217D37B68DA697B689B6949
:100EB0009A4211D306E07B681B6800225A61FB68E6
:100EC0000133FB607B681B689B6803F48073002B15
:100ED00002D1FB681F2BEED900BF1437BD4680BC82
:100EE000704780B584B000AF78607B6893F880303D
:100EF000022B15D10CE07B681B681B69FB607B68CB
:100F00005B6F002B04D07B685B6FFA6810469847D4
:100F10007B681B689B6803F04003002BEBD02FE03D
:100F20007B6893F88030012B23D116E07B681B6827
:100F30001B69FB607B681A6B7B68DB6A9A4207D28D
:100F40007B689A6A7B681B6B1344FA68D2B21A708A
:100F50007B681B6B5A1C7B681A637B681B689B68E9
:100F600003F04003002BE1D00AE07B681B681B699B
:100F7000FB607B681B689B6803F04003002BF4D088
:100F800000BF1037BD4680BD80B586B000AF786029
:100F90007B681B6820337B617B686B4A934204D07B
:100FA0007B686A4A934200D000BE7B691B6803F0ED
:100FB0000203002B4ED07B6893F88030022B15D1B2
:100FC0000CE07B681B681B69FB607B685B6F002B18
:100FD00004D07B685B6FFA68104698477B681B6893
:100FE0009B6803F04003002BEBD02FE07B6893F865
:100FF0008030012B23D116E07B681B681B69FB60E6
:101000007B681A6B7B68DB6A9A4207D27B689A6AB4
:101010007B681B6B1344FA68D2B21A707B681B6B37
:101020005A1C7B681A637B681B689B6803F040034B
:10103000002BE1D00AE07B681B681B69FB607B68C2
:101040001B689B6803F04003002BF4D07B681B688F
:101050000222DA607B691B6803F00103002B11D0C8
:101060007B6893F88030022B05D17B681B687A6817
:10107000926F5A6102E07868FFF7C8FE7B681B68D0
:101080000122DA607B691B6803F01003002B20D07B
:101090007868FFF726FF7B681B6A002B0AD07B6805
:1010A0001B6A7A68906A7A68126B1146984778686A
:1010B000FFF7ACFE7B6801225A627B681B687A6886
:1010C0001268926A22F010029A627B681B681022F2
:1010D000DA607B691B6803F00403002B0ED07B6889
:1010E0001B687A681268D26A42F00402DA62786891
:1010F000FFF7F8FD7B681B680422DA607B691B68D8
:1011000003F00803002B32D07B681B687A681268F2
:10111000D26A42F00802DA627B6893F88030022BD0
:1011200016D17B681A687B681B681B6823F47F03F1
:1011300023F47F4343F4807313607B681B687A68F1
:10114000926F5A610FE000BF2C300020A82F0020C2
:101150007B6893F88030012B05D17B6800221A61EF
:101160007868FFF753FE7B681B680822DA607B69AA
:101170001B6803F02003002B41D07868FFF7B1FE15
:101180007B681B6B3B617B681B6A002B17D07B68FD
:1011900000225A627B6800225A617B6800229A61B1
:1011A0007B680022DA617B681B681022DA607B684A
:1011B0001B687A681268926A42F010029A627B6831
:1011C00000221A617B681B687A681268D26A42F052
:1011D0000C02DA627868FFF719FE7B6800221A6356
:1011E0007B68DB6F002B06D07B68DB6F7A68926AC6
:1011F0003969104698477B681B682022DA6000BF77
:101200001837BD4680BD00BF684620F007018D46F7
:1012100089B500AF0448FFF7B7FE00BFBD46BDE883
:1012200089408546704700BF2C300020684620F07A
:1012300007018D4689B500AF0448FFF7A5FE00BF42
:10124000BD46BDE889408546704700BFA82F0020F5
:1012500090B484B000AFF860B9607A60FB704C481D
:101260004C4B1A68F97813469B001344DB01034486
:1012700003F5E27319604849464B1A6813469B0010
:1012800013449B000B440433FA681A604249414BF3
:101290001A6813469B0013449B000B440833BA683A
:1012A0001A603D483B4B19683B4C3A4B1A68134651
:1012B0009B0013449B0023440C331B681A0C12043C
:1012C0000B469B000B449B0003440C331A607B6865
:1012D000B3F5803F0FD97B68A3F580332F4A1361A4
:1012E000BB6803F580332D4AD360FB6803F5803378
:1012F0002A4A936019E02848264B1A68264C254B49
:1013000019680B469B000B449B0023440C331B685D
:10131000796889B2194313469B0013449B00034428
:101320000C3319601D4B00221A611B48194B1A68B7
:10133000194C184B19680B469B000B449B00234427
:101340000C331B6843F4E00113469B0013449B00DD
:1013500003440C3319600E490E4B1A6813469B0068
:101360001344DB010B4403F5E07301221A600849C2
:10137000084B1A6813469B001344DB010B4403F52A
:10138000E67300221A6000BF1037BD4690BC70475C
:1013900000002842A02F002000400140882F00209C
:1013A000684620F007018D4691B500AF354A364BAF
:1013B0001B6803F52873012142F823103348324B90
:1013C0001A68324C304B19680B469B000B449B004B
:1013D00023440C331B6823F4E00113469B001344A1
:1013E0009B0003440C331960274B1B680133264ACA
:1013F0001360254B1B68042B02D1234B00221A607B
:10140000234B1B69002B17D0224B1B68042B03D1E5
:10141000204B00221A6004E01E4B1B6801331D4A5A
:1014200013601B4B98681A4BD968194B1A69184BF3
:101430001B7DFFF70DFF1EE01449134B1A6813467E
:101440009B0013449B000B440C331B6803F4E00324
:10145000002B10D10C4B00221A600E4B00221A6098
:101460000B4B01221A700A4B5B68002B03D0084B10
:101470005B680120984700BFBD46BDE891408546A6
:10148000704700BF00002842A42F00200040014008
:10149000882F0020A02F0020684620F007018D46ED
:1014A00081B583B000AF384B1B683B603B6803F4E9
:1014B00070633B603B68002B2FD03449344B1A6873
:1014C00013469B001344DB010B4403F502731B68B6
:1014D000002B0AD02F4B02221A702E4B5B68002B78
:1014E00003D02C4B5B68022098472849284B1A6888
:1014F00013469B001344DB010B4403F503731B6885
:10150000002B0AD0234B03221A70224B5B68002B5E
:1015100003D0204B5B68032098471B4B1B683B6044
:101520003B6803F470433B603B68002B0AD0194BC7
:1015300004221A70174B5B68002B03D0154B5B68B5
:101540000420984700237B6014E010497A68134612
:101550009B001344DB010B4403F5E47301221A6082
:101560000A4A7B6803F52873012142F823107B683F
:1015700001337B607B68032BE7D900BF0C37BD4686
:10158000BDE8814085467047004001400000284288
:10159000A42F0020882F002080B586B000AFF8600F
:1015A000B96011461A460B46FB8013467B71FB68F7
:1015B000002B00D100BE7B79072B00D900BEFB8831
:1015C000B3F5005F00D300BEFB68002B69D07B79C8
:1015D000072B66D8FB88B3F5005F62D2BB6808337F
:1015E000FA88D2B211461846FFF7BDF8BB6803F17E
:1015F0000C007A79FB885B1103F4FF6313431946EF
:10160000FFF7B1F8FB68BA681A60FB681B6808331B
:101610001846FFF7AAF80346BB82FB681B680C3329
:101620001846FFF7A2F80346FB74FB7C23F0070380
:10163000BB74BB7C9BB25B019AB2BB8A1343BB8277
:10164000FB7C03F00703FB74BA8AFB889A4200D044
:1016500000BEFA7C7B799A4200D000BEFB681B6812
:1016600010331846FFF781F8034603F00203FB75B9
:1016700011E0FB681B6804331846FFF776F8034651
:101680007B74FB681B6810331846FFF76EF803463F
:1016900003F00203FB75FB7D002BEAD1FB680022FF
:1016A0001A7100BF1837BD4680BD90B589B000AF34
:1016B000F860B9607A600023BB61FB68002B00D141
:1016C00000BEBB68002B00D100BE7B68002B00D1A0
:1016D00000BEFB68002B43D0BB68002B40D07B686A
:1016E000002B3DD00023BB61FB681B6810331846FC
:1016F000FFF73BF80346FB75FB681A79FB7D134344
:10170000DAB2FB681A71FB7D03F00203FB7720E07D
:10171000BA68BB69D418FB681B6804331846FFF726
:1017200024F803462370BB690133BB61FB681B6867
:1017300010331846FFF719F80346FB75FB681A7952
:10174000FB7D1343DAB2FB681A71FB7D03F00203E1
:10175000FB77FB7F002B03D0BA697B689A42D7D313
:10176000BB6918462437BD4690BD80B485B000AF34
:101770007860FF23FB737B68002B00D100BE7B6881
:10178000002B09D07B681B799B10DBB203F00703A9
:10179000FB737B6800221A71FB7B18461437BD4629
:1017A00080BC704780B584B000AFF860B960134664
:1017B000FB80FB68002B00D100BEBB68002B00D172
:1017C00000BEFB88202B00D900BEFB88002B00D177
:1017D00000BEFB68002B42D0BB68002B3FD04822E4
:1017E0000021F86801F038F8FB68BA681A60FB88D5
:1017F000202B07D8FB88002B04D0FB68FA88A3F8BD
:10180000442003E0FB680122A3F84420FB68186829
:10181000002301220021FEF7AAFFFB681B68243386
:1018200000211846FEF79FFFFB681B681C3303214D
:101830001846FEF798FFFB681B680433FF21184623
:10184000FEF791FFFB681B68183300211846FEF76E
:101850008AFFFB681B6803211846FEF784FF00BF60
:101860001037BD4680BD80B582B000AF78607B6820
:10187000002B00D100BE7B68002B25D07B68186848
:10188000002301220021FEF772FF7B68002283F80B
:1018900046207B681B681C3303211846FEF763FF54
:1018A0007B681B680433FF211846FEF75CFF7B68EA
:1018B0001B68183300211846FEF755FF7B681B682C
:1018C00003211846FEF74FFF00BF0837BD4680BD15
:1018D00080B584B000AF78600B46FB700023FB73CB
:1018E0007B68002B00D100BEFB78072B00D900BE1F
:1018F0007B68002B31D0FB78072B2ED87B681B68C8
:10190000022201211846FEF740FF0346002B24D097
:101910007B681B682033102204211846FEF735FF30
:101920000346012B02D1786800F0A5F87B681B689C
:1019300024331846FEF719FF03461946FB780122A7
:1019400002FA03F3DBB20B43FB737B681B6824339F
:10195000FA7B11461846FEF706FF00BF1037BD465A
:1019600080BD80B584B000AF78600B46FB7000236B
:10197000FB737B68002B00D100BEFB78072B00D9DE
:1019800000BE7B68002B33D0FB78072B30D87B68F8
:101990001B68022201211846FEF7F7FE0346002BC2
:1019A00026D07B681B682033102204211846FEF7DE
:1019B000ECFE0346012B02D1786800F05CF87B68EE
:1019C0001B6824331846FEF7D0FE03461946FB7801
:1019D000012202FA03F3DBB2DB43DBB20B40FB7301
:1019E0007B681B682433FA7B11461846FEF7BBFE62
:1019F00000BF1037BD4680BD80B584B000AF7860B1
:101A000039600023FB607B68002B00D100BE7B683F
:101A1000002B2BD07B681B68022201211846FEF7A1
:101A2000B4FE0346002B21D07B681B681C330321C6
:101A30001846FEF798FE7B681B68283339681846FD
:101A4000FEF761FE00BF7B681B6820330222012184
:101A50001846FEF79AFE0346012BF4D17B681B68FB
:101A600008331846FEF751FE0346FB60FB68184634
:101A70001037BD4680BD80B582B000AF78607B680E
:101A80001868002301220021FEF771FE7B681B68A5
:101A90001C3303211846FEF766FE7B681B6804337F
:101AA000FF211846FEF75FFE7B68186801230122BC
:101AB0000021FEF75CFE00BF0837BD4680BD80B543
:101AC00084B000AFF860B9607A603B60FB68BA68C8
:101AD0001A60FB681B68083300211846FEF743FEB6
:101AE000FB681B680C3300211846FEF73CFEFB68C0
:101AF0001B6879681846FEF706FE3B68002B00D18C
:101B000000BEFB681B68043339681846FEF7FBFD0E
:101B1000FB681B68103300211846FEF7F4FDFB68D4
:101B20001B68183300211846FEF7EDFDFB681B68A3
:101B3000203300211846FEF7E6FDFB681B682833BA
:101B400000211846FEF7DFFDFB681B6830330021DB
:101B50001846FEF7D8FDFB681B683833002118468D
:101B6000FEF7D1FDFB681B68403300211846FEF7E5
:101B7000CAFDFB681B68483300211846FEF7C3FD09
:101B8000FB681B68503300211846FEF7BCFDFB685C
:101B90001B68583300211846FEF7B5FDFB681B682B
:101BA000603300211846FEF7AEFDFB681B68683302
:101BB00000211846FEF7A7FDFB681B687033002163
:101BC0001846FEF7A0FDFB681B6878330021184615
:101BD000FEF799FDFB681B68803300211846FEF76D
:101BE00092FDFB681B68883300211846FEF78BFDC9
:101BF00000BF1037BD4680BD80B584B000AF7860AF
:101C00000B46FB70FB78002B00D100BEFB78102B3D
:101C100000D900BEFB78002B32D0FB78102B2FD8D8
:101C2000FB78194AD35CFB73FB78082B14D87B68CC
:101C30001B6808331846FEF798FD0346BB73BA7B52
:101C4000FB7B1343BB737B681B680833BA7B11466D
:101C50001846FEF788FD13E07B681B680C331846B6
:101C6000FEF783FD0346BB73BA7BFB7B1343BB7359
:101C70007B681B680C33BA7B11461846FEF773FD70
:101C800000BF1037BD4680BD142A002080B584B047
:101C900000AF78600B46FB70FB78002B00D100BED4
:101CA000FB78102B00D900BEFB78002B36D0FB78D8
:101CB000102B33D8FB781B4AD35CFB73FB78082BC3
:101CC00016D87B681B6808331846FEF74EFD03469E
:101CD000BB73FB7BDB43DAB2BB7B1340BB737B681C
:101CE0001B680833BA7B11461846FEF73CFD15E029
:101CF0007B681B680C331846FEF737FD0346BB7341
:101D0000FB7BDB43DAB2BB7B1340BB737B681B6896
:101D10000C33BA7B11461846FEF725FD00BF10377D
:101D2000BD4680BD142A002080B588B000AFF860A1
:101D30000B467A60FB72FB7A002B00D100BEFB7A67
:101D4000102B00D900BEFB681B6804331846FEF751
:101D5000DCFCF8617A68FB699A4200D900BEFB7A24
:101D6000002B3AD0FB7A102B37D87B68002B05D19B
:101D7000FB7A1946F868FFF789FF2EE0FB681A68BE
:101D8000FB7A184951F82330134400211846FEF716
:101D9000BAFCFB681A68FB7A134951F823301344E4
:101DA00079681846FEF7AFFCFB7A0F4A52F82330E9
:101DB000BB61FB681A68BB6913441846FEF7D5FC83
:101DC0000346FB757B68DBB2FA7D9A4200D000BE09
:101DD000FB7A1946F868FFF70FFF00BF2037BD46B2
:101DE00080BD00BF282A00206C2A002080B586B064
:101DF00000AFF860B9601346FB710023FB75BB6848
:101E00003B61FB68BA681A60FB68FA791A710023B3
:101E1000FB75BB683B6109E000213869FEF7A3FC54
:101E20003B6904333B61FB7D0133FB75FB7D1F2B5D
:101E3000F2D9FB681B79012B0DD0022B02D0002BAD
:101E40001AD036E0FB681B6880334FF0FF3118462C
:101E5000FEF759FC2FE0FB681B6880334FF6FF71DB
:101E60001846FEF768FCFB681B6884334FF6FF7169
:101E70001846FEF760FC1EE0FB681B688033FF21FC
:101E80001846FEF770FCFB681B688433FF21184678
:101E9000FEF769FCFB681B688833FF211846FEF7D4
:101EA00062FCFB681B688C33FF211846FEF75BFC65
:101EB00001E000BE00BF00BF1837BD4680BD80B541
:101EC00086B000AFF8600B467A60FB72FB7A1F2B7E
:101ED00000D900BEFB7A1F2B14D8FB681B687B61FE
:101EE000FB7A9B001A467B6913447B6179687869A9
:101EF000FEF709FC7869FEF708FC02467B689A4207
:101F000000D000BE00BF1837BD4680BD80B582B08E
:101F100000AF786039607B681B79012B0CD0022BF5
:101F200002D0002B1DD047E07B681B68A0333968C6
:101F30001846FEF7E8FB41E07B681B68A0333A686F
:101F400092B211461846FEF7F6FB7B681B6803F158
:101F5000A4023B681B0C9BB219461046FEF7EBFB34
:101F60002CE07B681B68A0333A68D2B21146184651
:101F7000FEF7F9FB7B681B6803F1A4023B681B0AB0
:101F8000DBB219461046FEF7EEFB7B681B6803F1D7
:101F9000A8023B681B0CDBB219461046FEF7E3FBB8
:101FA0007B681B6803F1AC023B681B0EDBB2194671
:101FB0001046FEF7D8FB01E000BE00BF786800F0D5
:101FC00009F802463B689A4200D000BE00BF0837BD
:101FD000BD4680BD80B584B000AF78600023FB6053
:101FE0007B681B79012B0CD0022B02D0002B20D058
:101FF0004FE07B681B68A0331846FEF786FBF8604D
:1020000049E07B681B68A0331846FEF796FB034641
:102010001A46FB681343FB607B681B68A4331846B1
:10202000FEF78BFB03461B041A46FB681343FB6059
:1020300031E07B681B68A0331846FEF77EFB034641
:102040001A46FB681343FB607B681B68A433184681
:10205000FEF773FB03461B021A46FB681343FB6043
:102060007B681B68A8331846FEF767FB03461B0412
:102070001A46FB681343FB607B681B68AC33184649
:10208000FEF75BFB03461B061A46FB681343FB6027
:1020900001E000BE00BFFB6818461037BD4680BD9A
:1020A00080B584B000AF78600B46FB707B681B681E
:1020B000FB60FB781F2B00D900BEFB781F2B12D8CA
:1020C000FB789B001A46FB681344FB60F868FEF738
:1020D0004CFB0346BB60BB6843F00803BB60B968B8
:1020E000F868FEF740FB00BF1037BD4680BD80B5E5
:1020F00084B000AF78600B46FB707B681B68FB60A8
:10210000FB781F2B00D900BEFB781F2B12D8FB7861
:102110009B001A46FB681344FB60F868FEF725FB3A
:102120000346BB60BB6823F00803BB60B968F8686E
:10213000FEF719FB00BF1037BD4680BD80B584B0E7
:1021400000AF78600B46FB70FB78012202FA03F3C4
:10215000FB607B681B79012B0CD0022B02D0002B7B
:102160001AD03FE07B681B688033F9681846FEF799
:10217000CAFA39E07B681B688033F9681846FEF7B5
:10218000DAFA7B681B6803F18402FB681B0C1946B2
:102190001046FEF7D0FA27E07B681B688033F968A9
:1021A0001846FEF7E0FA7B681B6803F18402FB68BF
:1021B0001B0A19461046FEF7D6FA7B681B6803F126
:1021C0008802FB681B0C19461046FEF7CCFA7B68A8
:1021D0001B6803F18C02FB681B0E19461046FEF7C4
:1021E000C2FA01E000BE00BF00BF1037BD4680BD8F
:1021F00080B500AF00F0FAF8044A044B5B6943F481
:1022000000735361FEF716F900BF80BD00ED00E0DA
:1022100080B588B000AF304BD3F8983003F08063BE
:10222000FB61FB69002B4CD12B4BD3F8983003F4A6
:102230008053BB61BB69002B15D1284B284A1A601B
:10224000284B274A1A60284B254A1A60274B284AF0
:102250001A60284B284A1A60284B214A1A60284BDA
:102260001F4A1A6034E0274A3B1D92E8030083E8C6
:102270000300194BD3F89C309B0903F007037B61E3
:102280003A1D7B6913441B78FB74FB7C012B0AD03D
:10229000022B0DD0002B0FD100F038F8F860F86851
:1022A00000F052F814E04FF4004000F04DF80FE059
:1022B000154800F049F80BE0134800F045F800BF5E
:1022C00006E000F023F8F860F86800F03DF8FFE75A
:1022D00000BF2037BD4680BD00800340E42A0020B7
:1022E000003B5808E82A0020EC2A0020F02A0020B1
:1022F000C00E1602F42A0020801D2C04F82A0020AB
:10230000FC2A0020B02A002040420F0080B483B095
:1023100000AF0A4BD3F8503103F004033B603B6835
:10232000002B02D1064B7B6001E0064B7B607B6893
:1023300018460C37BD4680BC704700BF0080034084
:1023400040787D0180F0FA0280B483B000AF7860FD
:102350000C4A7B6813600C4A7B6813600B4A7B68ED
:1023600013600B4B0B4A1A600B4A7B6813600B4AD5
:102370007B6813600A4A7B68136000BF0C37BD4658
:1023800080BC7047E42A0020E82A0020EC2A0020C4
:10239000F02A0020C00E1602F42A0020F82A00209D
:1023A000FC2A002080B483B000AF0E4BD3F84C3130
:1023B0003B603B684FF60202934203D00A4A9342C5
:1023C00003D005E001237B6005E002237B6002E08F
:1023D00000237B6000BF7B6818460C37BD4680BC7D
:1023E000704700BF0080034002F8010080B582B052
:1023F00000AFFFF7D7FF78607B68012B00D002E0C9
:1024000000F006F800BF00BF0837BD4680BD0000E1
:1024100080B400AF094A094BD3F8983043F4807375
:10242000C2F89830054A054BD3F8983023F0806302
:10243000C2F8983000BFBD4680BC704700800340A2
:1024400080B483B000AF0346FB71084997F90730A9
:102450005B09FA7902F01F02012000FA02F241F84A
:10246000232000BF0C37BD4680BC704700E100E070
:1024700080B483B000AF0346FB71094997F9073078
:102480005B09FA7902F01F02012000FA02F2203300
:1024900041F8232000BF0C37BD4680BC704700BF09
:1024A00000E100E080B483B000AF0346FB7109494E
:1024B00097F907305B09FA7902F01F02012000FA50
:1024C00002F2603341F8232000BF0C37BD4680BCC8
:1024D000704700BF00E100E080B483B000AF034666
:1024E0003960FB7197F90730002B0BDA0D49FB7946
:1024F00003F00F03043B3A68D2B21201D2B20B448C
:102500001A7609E0084997F907303A68D2B2120101
:10251000D2B20B4483F8002300BF0C37BD4680BC09
:10252000704700BF00ED00E000E100E080B582B040
:1025300000AF0346FB710E20FFF79AFF104A104BC5
:102540009B6C23F0400393644FF0402300225A65B4
:102550000C4B0022C3F880210A4B0022C3F88821CB
:10256000084AFB79C2F884314FF0402301221A61F6
:102570000E20FFF797FF00BF0837BD4680BD00BFA4
:10258000008003400000084280B400AF034B0122EA
:10259000C3F8802100BFBD4680BC704700000842E0
:1025A00080B483B000AF78604FF040227B68536006
:1025B00000BF0C37BD4680BC7047000080B500AF3F
:1025C000044B0122C3F888210E20FFF739FF00BF1A
:1025D00080BD00BF0000084280B500AF044B002260
:1025E000C3F888210E20FFF743FF00BF80BD00BF66
:1025F0000000084280B400AF4FF0402301221A616E
:10260000BFF34F8F00BFBD4680BC704780B58AB016
:1026100000AF40F69F7304224FF0A0414B48FFF7F4
:102620004EFAC82000F0D8F84FF4FA7000F0D4F851
:10263000082247494748FFF7B5F84648FFF713F91E
:1026400044490320FDF76AFF424A03210120FEF7B7
:1026500008F83B4620220021184600F0FDF801232F
:1026600025223D493D48FEF797FFFFF7D1FD0222A5
:102670003B493C48FFF7BAFB052200213948FFF7E8
:102680001EFC052201213748FFF719FC0522022113
:102690003448FFF714FC344B1B6819463148FFF7E8
:1026A00035FC432200212F48FFF709FC432201217A
:1026B0002C48FFF704FC052202212A48FFF7FFFB04
:1026C00000212848FFF7ECFC01212648FFF7E8FC31
:1026D0002320FFF7B5FE2420FFF7B2FE06212320BA
:1026E000FFF7FAFE05212420FFF7F6FE1F4B1A68BC
:1026F00013469B0013443B620020FFF717FF386A24
:10270000FFF74EFFFFF740FFFFF758FF1348FFF7B3
:102710002CF80346002B06D13B46202219460F48D1
:10272000FEF7C3FF78627B6A002BEFD03B78412B2A
:10273000ECD100233B70012201210448FFF7F4FA99
:10274000002201210148FFF7EFFADFE708310020FE
:1027500000400050C030002000200050B830002061
:1027600000100030B0300020002B0020E82A0020AC
:1027700080B500AFFFF73EFF00BF80BD80B500AF62
:1027800000210E48FFF7B3FC01210C48FFF7AFFC16
:1027900000210A48FFF7D2FC01210848FFF7CEFCD0
:1027A00000210648FFF77CFC01210448FFF778FC74
:1027B0004FF47A6000F010F8FAE700BFB030002064
:1027C00080B500AFFFF708FF00210248FFF78FFC3C
:1027D00000BF80BDB030002080B485B000AF78600D
:1027E0000023FB6002E0FB680133FB607B6841F67D
:1027F000641202FB03F2FB689A42F4DC00BF143758
:10280000BD4680BC7047000070B50F4E0F4D761B63
:10281000B61018BF002405D0013455F8043B984782
:10282000A642F9D10A4E0B4D00F048F9761BB610BE
:1028300018BF002406D0013455F8043B9847A6423F
:10284000F9D170BD70BD00BFD42A0020D42A002069
:10285000DC2A0020D42A002070B4860746D0541EFB
:10286000002A41D0CAB2034602E014F1FF343BD340
:1028700003F8012B9D07F8D1032C2ED9CDB245EAE0
:1028800005250F2C45EA054519D9264603F1100206
:10289000103E0F2E42F8105C42F80C5C42F8085CC7
:1028A00042F8045C02F11002F2D8A4F1100222F006
:1028B0000F0204F00F041032032C13440DD91E46EE
:1028C0002246043A032A46F8045BFAD8221F22F073
:1028D00003020432134404F003042CB1C9B21C44B3
:1028E00003F8011B9C42FBD170BC704714460346A1
:1028F000C2E700BF024B13B1024800F005B87047B1
:102900000000000015290020002301461A46184641
:1029100000F01EB838B50A4C0A4D641BA4100AD04A
:1029200004F18043013B05EB8305013C55F8043974
:102930009847002CF9D1BDE8384000F0C5B800BF79
:10294000E02A0020DC2A0020704700BF704700BF4B
:102950002DE9F8432C4D0646286898460F469146C7
:10296000FFF7F2FF294B1C68D4F84831002B3ED00A
:102970005A681F2A1CDC02F1010E76B1012103EB1B
:102980008204C4F88890D3F8880191400843022E4D
:10299000C3F88801C4F8088123D00232C3F804E0E8
:1029A000286843F82270FFF7D1FF0020BDE8F883C4
:1029B000174B0BB34FF4C870AFF300800346D8B188
:1029C0000020D4F848114FF0010E586019600246FB
:1029D000C4F84831C3F88801C3F88C01002EDCD05C
:1029E000CCE7D3F88C010143C3F88C11D5E704F58B
:1029F000A673C4F84831BBE72868FFF7A7FF4FF07C
:102A0000FF30BDE8F88300BF302F0020B82A002037
:102A100000000000000102040810204080010204B0
:102A2000081020408000000000000000100000009E
:102A30001800000020000000280000003000000006
:102A40003800000040000000480000005000000076
:102A500058000000600000006800000070000000E6
:102A600078000000800000008800000000000000E6
:102A7000140000001C000000240000002C000000D6
:102A8000340000003C000000440000004C00000046
:102A9000540000005C000000640000006C000000B6
:102AA000740000007C000000840000008C00000026
:102AB0000001000102020303082B0020F8B500BF4B
:102AC000F8BC08BC9E467047F8B500BFF8BC08BC0F
:102AD0009E467047F5280020D5040020B104002050
:102AE00000000000003B5808003B5808003B580815
:102AF000C00E1602801D2C04003B5808003B5808ED
:102B0000020000000000000000000000F42D002082
:102B10005C2E0020C42E00200000000000000000F9
:102B200000000000000000000000000000000000A5
:102B30000000000000000000000000000000000095
:102B40000000000000000000000000000000000085
:102B50000000000000000000000000000000000075
:102B60000000000000000000000000000000000065
:102B70000000000000000000000000000000000055
:102B80000000000000000000000000000000000045
:102B90000000000000000000000000000000000035
:102BA0000000000000000000000000000000000025
:102BB00001000000000000000E33CDAB34126DE6C2
:102BC000ECDE05000B00000000000000000000002B
:102BD00000000000000000000000000000000000F5
:102BE00000000000000000000000000000000000E5
:102BF00000000000000000000000000000000000D5
:102C000000000000000000000000000000000000C4
:102F30000C31002000000000000000000000000034
:040000052000019145
:00000001FF
