:020000042000DA
:1000000000000120910100207F03002081030020D7
:1000100083030020850300208703002000000000E8
:100020000000000000000000000000008903002024
:100030008B030020000000008D0300208F030020B0
:1000400091030020930300201D1000204110002088
:10005000990300209B0300209D0300209F030020A4
:10006000A1030020A3030020A5030020A703002074
:10007000A9030020AB03002061250020AF0300206E
:10008000B1030020B3030020B5030020AD0500201C
:10009000B9030020BB030020BD030020BF030020E4
:1000A000C1030020C3030020C5030020B5110020B8
:1000B000AD120020CB030020CD030020CF03002091
:1000C000D1030020D3030020D5030020AD2500205C
:1000D000D9030020DB030020DD030020DF03002024
:1000E000E1030020E3030020E5030020E7030020F4
:1000F000E9030020EB030020ED030020EF030020C4
:10010000F1030020F3030020F5030020F703002093
:10011000F9030020FB030020FD030020FF03002063
:10012000010400200304002005040020070400202F
:10013000090400200B0400200D0400200F040020FF
:1001400011040020130400201504002017040020CF
:10015000190400201B0400201D0400201F0400209F
:10016000210400202304002025040020270400206F
:10017000290400202B0400202D0400202F0400203F
:1001800031040020330400200000000000000000C3
:100190004FF0000BDFF8BE020068DFF8B612096806
:1001A00001F0030100F01C00142801D14BF0020BF8
:1001B000002901D04BF0010BBBF1000F05D0A7487F
:1001C000A749DFF8722200F09FF8A64880470BF09D
:1001D000020ABAF1000F0CD0DFF86E02DFF86E12DF
:1001E00002680B680FB44FF000024FF0FF0302608B
:1001F0000B609D4800220123022808D1DFF83E123F
:100200000A60DFF842120A60DFF836120B6001283C
:1002100008D1DFF82E120A60DFF82A120A60DFF830
:100220001E120B609148002809D191489149924AC9
:1002300000F032F891489249924A00F02DF8924825
:100240009249934A00F028F892489349DFF8E62152
:1002500000F05AF8BBF1000F12D090489049DFF837
:10026000DA2100F051F80BF0020ABAF1000F07D0C2
:100270000FBC02600B6000BFAFF30080AFF30080E3
:10028000DFF820020FF2030E00474FF000004FF09E
:100290000001DFF814F2FEE72DE9F841884225D08D
:1002A000B2EB010200D5FEE740EA010313F00303BD
:1002B00002D000F01DF819E04FF000039046121133
:1002C000F7D09A421CBFF0C8F0C103F10103F8D186
:1002D00008F00F08B8F1000F08D004780C7000F196
:1002E000010001F10101B8F10108F6D1BDE8F88182
:1002F00008B54FF0000303780B7000F1010001F125
:100300000101013AF7D108BD884237D000F0030659
:10031000002E14D04FF00405A5EB06044FF008079B
:1003200007FB06F8914669FA08F9002C07D080F817
:10033000009069FA07F900F10100013CF5E74FF080
:1003400000060F46091A88460911914614461546BB
:10035000B14206D018BFA0E8340206F10106B1424E
:10036000F8D108F00F08B8F1000F07D002704FEA7B
:10037000322200F10100B8F10108F4E77047FEE70E
:10038000FEE7FEE7FEE7FEE7FEE7FEE7FEE7FEE745
:10039000FEE7FEE7FEE7FEE7FEE7FEE7FEE7FEE735
:1003A000FEE7FEE7FEE7FEE7FEE7FEE7FEE7FEE725
:1003B000FEE7FEE7FEE7FEE7FEE7FEE7FEE7FEE715
:1003C000FEE7FEE7FEE7FEE7FEE7FEE7FEE7FEE705
:1003D000FEE7FEE7FEE7FEE7FEE7FEE7FEE7FEE7F5
:1003E000FEE7FEE7FEE7FEE7FEE7FEE7FEE7FEE7E5
:1003F000FEE7FEE7FEE7FEE7FEE7FEE7FEE7FEE7D5
:10040000FEE7FEE7FEE7FEE7FEE7FEE7FEE7FEE7C4
:10041000FEE7FEE7FEE7FEE7FEE7FEE7FEE7FEE7B4
:10042000FEE7FEE7FEE7FEE7FEE7FEE7FEE7FEE7A4
:10043000FEE7FEE7704700000000A2A2A2A2008033
:100440000340088003401080034030800340348024
:1004500003403880034018080240000000F00020EC
:1004600000000120351E00200000000000000000F8
:10047000000000200000002090010020B0040020B7
:10048000B0040020F0610020F0610020F061002045
:100490008062002080620020C0640020C0640020D0
:1004A00000F00020D54A0020E121002000000000DB
:1004B00010B5054C237833B9044B13B10448AFF39E
:1004C00000800123237010BD806200200000000026
:1004D000D06100200C4B43B10C4810B50C49AFF370
:1004E00000800C48036823B910BD0A48036833B97B
:1004F0007047094B002BF7D0BDE810401847064B5A
:10050000002BF5D0184700BF00000000D06100208C
:1005100084620020F061002000000000016070474C
:10052000006870470EB503FA01F303EA020301689D
:100530006FEA020201EA020141EA030101600EBD15
:10054000006800EA020020FA01F07047018070475D
:10055000008870470EB503FA01F303EA020301882D
:100560006FEA020201EA020141EA030101800EBDC5
:10057000008800EA020020FA01F07047017070471D
:10058000007870470EB503FA01F303EA020301781D
:100590006FEA020201EA020141EA030101700EBDA5
:1005A000007800EA020020FA01F0704780B582B0BE
:1005B00000AF0F4B5B68FB710D4B9B68DAB2FB79A8
:1005C0001340FB71FB7903F00203BB71BB79002B75
:1005D00001D000F0E5F8FB7903F001037B717B7932
:1005E000002B01D000F006F800BF0837BD4680BDE3
:1005F0000060014080B584B000AF624B1B78022BD5
:100600003DD0052B68D0012B40F0AA805E4B1B88A3
:100610009BB2002B2FD05D4B1A685B4B1B889BB2A3
:100620001946104600F00AFAF860574B1B889BB237
:100630001A46FB689A420FD9534B1B889AB2FB6843
:100640009BB2D31A9AB2504B1A80504B1A68FB686F
:1006500013444E4A136090E04B4B00221A804C4BDF
:100660001B68002B03D0474B02221A7085E0454BD4
:1006700003221A7081E000BE00F0BAF97DE0444B1D
:100680001B68002B24D0434B1A68414B1B6819464A
:10069000104600F0D3F9B8603D4B1B68BA689A4227
:1006A0000CD23B4B1A68BB68D31A394A1360394BDA
:1006B0001A68BB681344374A13605EE0364A364B0B
:1006C0009B6823F0010393602E4B03221A7054E0C1
:1006D00000BE00F08DF950E02D4B1B68002B1BD1A4
:1006E0002E4B1B68002B14D02C4B1B6829489847B5
:1006F0000246274B1A60264B1B68002B0CD1264A5A
:10070000254B9B6823F0010393601E4B03221A7054
:1007100002E000BE00F06CF91D4B1B68002B09D1F4
:100720001D4A1D4B9B6823F001039360154B032268
:100730001A7022E0174B1A68154B1B6819461046B1
:1007400000F07CF97860124B1A687B68D31A104A63
:100750001360104B1A687B6813440E4A13600CE058
:100760000D4A0D4B9B6823F001039360002000F0BD
:100770001FF9044B00221A7000BF00BF1037BD469E
:1007800080BD00BFC1620020A4620020A0620020E2
:10079000AC620020A862002000600140BC62002022
:1007A00080B584B000AF7C4B1B69FB81FB8923F4CF
:1007B000FF4323F07F03BB81FB89FB72774B1B78E0
:1007C000052B00F2D68001A252F823F0E5070020A5
:1007D0005F0900205F0900203D0800208B080020F1
:1007E00033090020BB89002B00F0CA80FB7AF12B73
:1007F00006D0FB7ABB72BB7A184600F04FF9BFE017
:10080000674B00221A80674B1B68654A128892B2B8
:100810001344FA7A1A70624B1B889BB201339AB266
:100820005F4B1A805F4B1B685D4A128892B213447B
:1008300000221A70594B04221A70A1E0BB89002BC8
:1008400000F0A080FB7A7B72574B1B78DBB27A7A80
:100850009A4215D1524B00221A80524B1B68504AC3
:10086000128892B213447A7A1A704D4B1B889BB24D
:1008700001339AB24A4B1A80484B04221A7081E025
:100880007B7A184600F00AF97CE0BB89002B06D081
:10089000FB7A3B723B7A184600F000F974E0414B5A
:1008A0001A683F4B1B889BB2013B13441B78F12B0A
:1008B00016D13C4B1B683A4A128892B21344FA7A1A
:1008C0001A70384B1A68364B1B889BB2013B134495
:1008D0001B78184600F0E2F8304B00221A7053E003
:1008E0002F4B1B889AB2314B1B889A4210D2FB7A4D
:1008F000FB712C4B1B682A4A128892B21344FA7976
:100900001A70274B1B889BB201339AB2244B1A8072
:10091000234B1B889AB2254B1B889A4234D1204B1B
:100920001B889BB2184600F043F81C4B00221A703B
:100930002AE0BB89002B0BD11A4B1B680133FA7AD2
:100940001A70022000F034F8144B00221A701EE0D6
:10095000FB7ABB71BB79184600F0A0F817E0BB89A1
:10096000002B13D0FB7A7B717B79184600F096F848
:100970000CE0002000F01CF8084B00221A7006E082
:1009800000BF04E000BF02E000BF00E000BF00BF06
:100990001037BD4680BD00BF00600140C16200202D
:1009A000B6620020B06200209C620020B462002089
:1009B00080B582B000AF0346FB800A4B1B68002B5A
:1009C0000CD0084B1B68084A1268F98810469847F3
:1009D000044B00221A60054B00221A7000BF083732
:1009E000BD4680BDB8620020B0620020C062002019
:1009F00080B582B000AF0E4B1B78DBB2002B13D05A
:100A00000C4B1B889BB21846FFF7D2FF0A4A0A4BD1
:100A10001B6843F001031360074B1B6803F00103DD
:100A20007B607B68002BF7D100BF0837BD4680BDD7
:100A3000C0620020B66200200060014080B485B032
:100A400000AF78603960144A134B1B6823F004032D
:100A500013600023FB60104B5B6803F00103BB6075
:100A60000DE00D497A68FB6813441B780B61FB6845
:100A70000133FB60084B5B6803F00103BB60BB689C
:100A8000002B03D0FA683B689A42EAD3FB68184609
:100A90001437BD4680BC70470060014080B582B00D
:100AA00000AF0346FB71064B1B68002B04D0044BC0
:100AB0001B68FA791046984700BF0837BD4680BDCD
:100AC000C462002080B483B000AF0346FB710949C3
:100AD00097F907305B09FA7902F01F02012000FA4A
:100AE00002F2603341F8232000BF0C37BD4680BCC2
:100AF000704700BF00E100E080B58AB000AF7860C9
:100B00007B681B681B687B627B681B689B693B6218
:100B10007B681B685B68FB617B681B689B6ABB61C9
:100B20007B681B681B6B7B617B681B685B6B3B6135
:100B30007B681B68DB69FB607B68354A93421DD18B
:100B40007B68344A1A607B6802221A71324A324B3F
:100B50009B6C43F4007393640220FFF7B3FF2E4AAB
:100B60002D4B9B6C23F4007393647B681B687A683D
:100B70001268126822F000421A601CE07B68274A63
:100B80001A607B6803221A71234A234B9B6C43F43F
:100B9000806393640320FFF795FF1F4A1E4B9B6CF5
:100BA00023F4806393647B681B687A681268126818
:100BB00022F000421A607B6A23F001037B627B68AB
:100BC0001B687A6A1A607B681B683A6A9A617B685C
:100BD0001B68FA695A607B681B687A681268126839
:100BE00042F001021A607B681B68BA699A627B68EE
:100BF0001B687A691A637B681B683A695A637B6869
:100C00001B68FA68DA6100BF2837BD4680BD00BFA7
:100C100024640020001000400080034000100140C8
:100C200080B485B000AF78600023FB600DE07B6886
:100C30001B687A6891687A6812690A4412785A6166
:100C40007B681B695A1C7B681A617B681B689B6800
:100C500003F48073002B05D17B681A697B68DB681D
:100C60009A42E4D37B681A697B68DB689A421BD39B
:100C70000DE07B681B687A6851697A68D2690A441A
:100C800012785A617B68DB695A1C7B68DA617B6881
:100C90001B689B6803F48073002B05D17B68DA69BD
:100CA0007B689B699A42E4D37B685B6A002B1DD00A
:100CB0007B681A697B68DB689A4217D37B68DA69BC
:100CC0007B689B699A4211D306E07B681B6800220F
:100CD0005A61FB680133FB607B681B689B6803F407
:100CE0008073002B02D1FB681F2BEED900BF143795
:100CF000BD4680BC704780B584B000AF78607B682B
:100D000093F88030022B15D10CE07B681B681B69BF
:100D1000FB607B685B6F002B04D07B685B6FFA68BD
:100D2000104698477B681B689B6803F04003002BC4
:100D3000EBD02FE07B6893F88030012B23D116E0B5
:100D40007B681B681B69FB607B681A6B7B68DB6ACE
:100D50009A4207D27B689A6A7B681B6B1344FA68D5
:100D6000D2B21A707B681B6B5A1C7B681A637B6853
:100D70001B689B6803F04003002BE1D00AE07B680E
:100D80001B681B69FB607B681B689B6803F0400362
:100D9000002BF4D000BF1037BD4680BD80B586B0B3
:100DA00000AF78607B681B6820337B617B686B4A8F
:100DB000934204D07B686A4A934200D000BE7B69AC
:100DC0001B6803F00203002B4ED07B6893F8803041
:100DD000022B15D10CE07B681B681B69FB607B68EC
:100DE0005B6F002B04D07B685B6FFA6810469847F6
:100DF0007B681B689B6803F04003002BEBD02FE05F
:100E00007B6893F88030012B23D116E07B681B6848
:100E10001B69FB607B681A6B7B68DB6A9A4207D2AE
:100E20007B689A6A7B681B6B1344FA68D2B21A70AB
:100E30007B681B6B5A1C7B681A637B681B689B680A
:100E400003F04003002BE1D00AE07B681B681B69BC
:100E5000FB607B681B689B6803F04003002BF4D0A9
:100E60007B681B680222DA607B691B6803F0010360
:100E7000002B11D07B6893F88030022B05D17B6862
:100E80001B687A68926F5A6102E07868FFF7C8FEC3
:100E90007B681B680122DA607B691B6803F0100322
:100EA000002B20D07868FFF726FF7B681B6A002B99
:100EB0000AD07B681B6A7A68906A7A68126B11465E
:100EC00098477868FFF7ACFE7B6801225A627B681E
:100ED0001B687A681268926A22F010029A627B6834
:100EE0001B681022DA607B691B6803F00403002B87
:100EF0000ED07B681B687A681268D26A42F00402DE
:100F0000DA627868FFF7F8FD7B681B680422DA6014
:100F10007B691B6803F00803002B32D07B681B68D9
:100F20007A681268D26A42F00802DA627B6893F843
:100F30008030022B16D17B681A687B681B681B689F
:100F400023F47F0323F47F4343F4807313607B68AF
:100F50001B687A68926F5A610FE000BF246400201A
:100F6000A06300207B6893F88030012B05D17B685B
:100F700000221A617868FFF753FE7B681B6808221D
:100F8000DA607B691B6803F02003002B41D078688E
:100F9000FFF7B1FE7B681B6B3B617B681B6A002B14
:100FA00017D07B6800225A627B6800225A617B68F6
:100FB00000229A617B680022DA617B681B6810223C
:100FC000DA607B681B687A681268926A42F01002E5
:100FD0009A627B6800221A617B681B687A681268D3
:100FE000D26A42F00C02DA627868FFF719FE7B6879
:100FF00000221A637B68DB6F002B06D07B68DB6FF7
:101000007A68926A3969104698477B681B68202283
:10101000DA6000BF1837BD4680BD00BF684620F0CB
:1010200007018D4689B500AF0448FFF7B7FE00BF42
:10103000BD46BDE889408546704700BF2464002056
:10104000684620F007018D4689B500AF0448FFF7D8
:10105000A5FE00BFBD46BDE889408546704700BF7C
:10106000A063002090B484B000AFF860B9607A60EB
:10107000FB704C484C4B1A68F97813469B0013449C
:10108000DB01034403F5E27319604849464B1A68D3
:1010900013469B0013449B000B440433FA681A6008
:1010A0004249414B1A6813469B0013449B000B4472
:1010B0000833BA681A603D483B4B19683B4C3A4BC1
:1010C0001A6813469B0013449B0023440C331B688F
:1010D0001A0C12040B469B000B449B0003440C3378
:1010E0001A607B68B3F5803F0FD97B68A3F5803326
:1010F0002F4A1361BB6803F580332D4AD360FB6828
:1011000003F580332A4A936019E02848264B1A6871
:10111000264C254B19680B469B000B449B0023442F
:101120000C331B68796889B2194313469B0013443A
:101130009B0003440C3319601D4B00221A611B48AD
:10114000194B1A68194C184B19680B469B000B4435
:101150009B0023440C331B6843F4E00113469B00BF
:1011600013449B0003440C3319600E490E4B1A685C
:1011700013469B001344DB010B4403F5E07301228B
:101180001A600849084B1A6813469B001344DB0198
:101190000B4403F5E67300221A6000BF1037BD460A
:1011A00090BC704700002842E062002000400140EF
:1011B000C8620020684620F007018D4691B500AF57
:1011C000354A364B1B6803F52873012142F823107A
:1011D0003348324B1A68324C304B19680B469B002F
:1011E0000B449B0023440C331B6823F4E00113469B
:1011F0009B0013449B0003440C331960274B1B686E
:101200000133264A1360254B1B68042B02D1234B64
:1012100000221A60234B1B69002B17D0224B1B683E
:10122000042B03D1204B00221A6004E01E4B1B68E4
:1012300001331D4A13601B4B98681A4BD968194B30
:101240001A69184B1B7DFFF70DFF1EE01449134B65
:101250001A6813469B0013449B000B440C331B6815
:1012600003F4E003002B10D10C4B00221A600E4B4C
:1012700000221A600B4B01221A700A4B5B68002B8C
:1012800003D0084B5B680120984700BFBD46BDE80E
:1012900091408546704700BF00002842E46200206C
:1012A00000400140C8620020E0620020684620F053
:1012B00007018D4681B583B000AF384B1B683B609A
:1012C0003B6803F470633B603B68002B2FD03449CC
:1012D000344B1A6813469B001344DB010B4403F59F
:1012E00002731B68002B0AD02F4B02221A702E4B60
:1012F0005B68002B03D02C4B5B6802209847284981
:10130000284B1A6813469B001344DB010B4403F57A
:1013100003731B68002B0AD0234B03221A70224B45
:101320005B68002B03D0204B5B68032098471B4B66
:101330001B683B603B6803F470433B603B68002BD9
:101340000AD0194B04221A70174B5B68002B03D08C
:10135000154B5B680420984700237B6014E010491C
:101360007A6813469B001344DB010B4403F5E473D6
:1013700001221A600A4A7B6803F52873012142F8AA
:1013800023107B6801337B607B68032BE7D900BFA8
:101390000C37BD46BDE8814085467047004001409E
:1013A00000002842E4620020C862002080B586B0B8
:1013B00000AFF860B96011461A460B46FB80134631
:1013C0007B71FB68002B00D100BE7B79072B00D915
:1013D00000BEFB88B3F5005F00D300BEFB68002BA6
:1013E00069D07B79072B66D8FB88B3F5005F62D2A2
:1013F000BB680833FA88D2B211461846FFF7BEF828
:10140000BB6803F10C007A79FB885B1103F4FF637E
:1014100013431946FFF7B2F8FB68BA681A60FB6815
:101420001B6808331846FFF7ABF80346BB82FB681E
:101430001B680C331846FFF7A3F80346FB74FB7CCC
:1014400023F00703BB74BB7C9BB25B019AB2BB8ADF
:101450001343BB82FB7C03F00703FB74BA8AFB884F
:101460009A4200D000BEFA7C7B799A4200D000BE3E
:10147000FB681B6810331846FFF782F8034603F039
:101480000203FB7511E0FB681B6804331846FFF785
:1014900077F803467B74FB681B6810331846FFF728
:1014A0006FF8034603F00203FB75FB7D002BEAD1C6
:1014B000FB6800221A7100BF1837BD4680BD80B599
:1014C00086B000AFF860B9607A60FB68002B00D18D
:1014D00000BEBB68002B00D100BE7B68002B00D192
:1014E00000BEFB68002B25D0BB68002B22D07B6898
:1014F000002B1FD000237B6118E0FB681B681033B2
:101500001846FFF73DF8034603F00103FB74FB7C2C
:10151000002BF2D0FB681868BA687B6913441B780B
:101520001946FFF72BF87B6901337B617A697B6889
:101530009A42E2D300BF1837BD4680BD90B589B04E
:1015400000AFF860B9607A600023BB61FB68002BD4
:1015500000D100BEBB68002B00D100BE7B68002B11
:1015600000D100BEFB68002B43D0BB68002B40D0ED
:101570007B68002B3DD00023BB61FB681B681033E8
:101580001846FEF7FDFF0346FB75FB681A79FB7DE5
:101590001343DAB2FB681A71FB7D03F00203FB7799
:1015A00020E0BA68BB69D418FB681B68043318468E
:1015B000FEF7E6FF03462370BB690133BB61FB689E
:1015C0001B6810331846FEF7DBFF0346FB75FB680C
:1015D0001A79FB7D1343DAB2FB681A71FB7D03F0C5
:1015E0000203FB77FB7F002B03D0BA697B689A422A
:1015F000D7D3BB6918462437BD4690BD80B485B0AB
:1016000000AF7860FF23FB737B68002B00D100BE26
:101610007B68002B09D07B681B799B10DBB203F041
:101620000703FB737B6800221A71FB7B1846143793
:10163000BD4680BC704780B584B000AFF860B9602B
:101640007A603B60FB68BA681A60FB681B68083305
:1016500000211846FEF792FFFB681B680C3300213F
:101660001846FEF78BFFFB681B6879681846FEF783
:1016700055FF3B68002B00D100BEFB681B6804339C
:1016800039681846FEF74AFFFB681B6810330021D3
:101690001846FEF743FFFB681B6818330021184605
:1016A000FEF73CFFFB681B68203300211846FEF75D
:1016B00035FFFB681B68283300211846FEF72EFF14
:1016C000FB681B68303300211846FEF727FFFB68D4
:1016D0001B68383300211846FEF720FFFB681B68A3
:1016E000403300211846FEF719FFFB681B6848339A
:1016F00000211846FEF712FFFB681B6850330021DB
:101700001846FEF70BFFFB681B685833002118468C
:10171000FEF704FFFB681B68603300211846FEF7E4
:10172000FDFEFB681B68683300211846FEF7F6FED5
:10173000FB681B68703300211846FEF7EFFEFB685C
:101740001B68783300211846FEF7E8FEFB681B682B
:10175000803300211846FEF7E1FEFB681B688833E2
:1017600000211846FEF7DAFE00BF1037BD4680BDE7
:1017700080B584B000AF78600B46FB70FB78002B1F
:1017800000D100BEFB78102B00D900BEFB78002BE7
:1017900032D0FB78102B2FD8FB78194AD35CFB731F
:1017A000FB78082B14D87B681B6808331846FEF7B3
:1017B000E7FE0346BB73BA7BFB7B1343BB737B68BB
:1017C0001B680833BA7B11461846FEF7D7FE13E0B4
:1017D0007B681B680C331846FEF7D2FE0346BB73CA
:1017E000BA7BFB7B1343BB737B681B680C33BA7BF0
:1017F00011461846FEF7C2FE00BF1037BD4680BD39
:10180000CC5C002080B584B000AF78600B46FB70E4
:10181000FB78002B00D100BEFB78102B00D900BE56
:10182000FB78002B36D0FB78102B33D8FB781B4A83
:10183000D35CFB73FB78082B16D87B681B680833D6
:101840001846FEF79DFE0346BB73FB7BDB43DAB213
:10185000BB7B1340BB737B681B680833BA7B1146A4
:101860001846FEF78BFE15E07B681B680C331846A4
:10187000FEF786FE0346BB73FB7BDB43DAB2BB7B22
:101880001340BB737B681B680C33BA7B1146184648
:10189000FEF774FE00BF1037BD4680BDCC5C002053
:1018A00080B588B000AFF8600B467A60FB72FB7AB7
:1018B000002B00D100BEFB7A102B00D900BEFB68C4
:1018C0001B6804331846FEF72BFEF8617A68FB6943
:1018D0009A4200D900BEFB7A002B3AD0FB7A102B3B
:1018E00037D87B68002B05D1FB7A1946F868FFF7DB
:1018F00089FF2EE0FB681A68FB7A184951F82330FB
:10190000134400211846FEF709FEFB681A68FB7AAB
:10191000134951F82330134479681846FEF7FEFD49
:10192000FB7A0F4A52F82330BB61FB681A68BB6927
:1019300013441846FEF724FE0346FB757B68DBB2B2
:10194000FA7D9A4200D000BEFB7A1946F868FFF78C
:101950000FFF00BF2037BD4680BD00BFE05C002008
:10196000245D002080B586B000AFF860B9601346F2
:10197000FB710023FB75BB683B61FB68BA681A60AA
:10198000FB68FA791A710023FB75BB683B6109E0BB
:1019900000213869FEF7F2FD3B6904333B61FB7DB2
:1019A0000133FB75FB7D1F2BF2D9FB681B79012BE3
:1019B0000DD0022B02D0002B1AD036E0FB681B683A
:1019C00080334FF0FF311846FEF7A8FD2FE0FB688B
:1019D0001B6880334FF6FF711846FEF7B7FDFB68B2
:1019E0001B6884334FF6FF711846FEF7AFFD1EE00B
:1019F000FB681B688033FF211846FEF7BFFDFB68BC
:101A00001B688433FF211846FEF7B8FDFB681B688E
:101A10008833FF211846FEF7B1FDFB681B688C3345
:101A2000FF211846FEF7AAFD01E000BE00BF00BF7F
:101A30001837BD4680BD80B586B000AFF8600B4654
:101A40007A60FB72FB7A1F2B00D900BEFB7A1F2B3A
:101A500014D8FB681B687B61FB7A9B001A467B6984
:101A600013447B6179687869FEF758FD7869FEF761
:101A700057FD02467B689A4200D000BE00BF18376F
:101A8000BD4680BD80B582B000AF786039607B68AC
:101A90001B79012B0CD0022B02D0002B1DD047E06C
:101AA0007B681B68A03339681846FEF737FD41E0B4
:101AB0007B681B68A0333A6892B211461846FEF75D
:101AC00045FD7B681B6803F1A4023B681B0C9BB2BD
:101AD00019461046FEF73AFD2CE07B681B68A033E0
:101AE0003A68D2B211461846FEF748FD7B681B687B
:101AF00003F1A4023B681B0ADBB219461046FEF74D
:101B00003DFD7B681B6803F1A8023B681B0CDBB240
:101B100019461046FEF732FD7B681B6803F1AC02E4
:101B20003B681B0EDBB219461046FEF727FD01E0AD
:101B300000BE00BF786800F06FF802463B689A422A
:101B400000D000BE00BF0837BD4680BD80B584B060
:101B500000AF78600023FB607B681B79012B0CD001
:101B6000022B02D0002B20D04FE07B681B68903303
:101B70001846FEF7D5FCF86049E07B681B68903397
:101B80001846FEF7E5FC03461A46FB681343FB6064
:101B90007B681B6894331846FEF7DAFC03461B0487
:101BA0001A46FB681343FB6031E07B681B68903387
:101BB0001846FEF7E5FC03461A46FB681343FB6034
:101BC0007B681B6894331846FEF7DAFC03461B0259
:101BD0001A46FB681343FB607B681B689833184602
:101BE000FEF7CEFC03461B041A46FB681343FB605A
:101BF0007B681B689C331846FEF7C2FC03461B0635
:101C00001A46FB681343FB6001E000BE00BFFB689F
:101C100018461037BD4680BD80B584B000AF7860EF
:101C20000023FB607B681B79012B0CD0022B02D0B8
:101C3000002B20D04FE07B681B68A0331846FEF7CE
:101C40006FFCF86049E07B681B68A0331846FEF71C
:101C50007FFC03461A46FB681343FB607B681B68E6
:101C6000A4331846FEF774FC03461B041A46FB68AF
:101C70001343FB6031E07B681B68A0331846FEF716
:101C800067FC03461A46FB681343FB607B681B68CE
:101C9000A4331846FEF75CFC03461B021A46FB6899
:101CA0001343FB607B681B68A8331846FEF750FCA3
:101CB00003461B041A46FB681343FB607B681B68E2
:101CC000AC331846FEF744FC03461B061A46FB6875
:101CD0001343FB6001E000BE00BFFB6818461037ED
:101CE000BD4680BD80B584B000AF78600B46FB7008
:101CF0007B681B68FB60FB781F2B00D900BEFB785C
:101D00001F2B12D8FB789B001A46FB681344FB601C
:101D1000F868FEF735FC0346BB60BB6843F0080378
:101D2000BB60B968F868FEF729FC00BF1037BD46F4
:101D300080BD80B584B000AF78600B46FB707B68D7
:101D40001B68FB60FB781F2B00D900BEFB781F2BA4
:101D500012D8FB789B001A46FB681344FB60F868B6
:101D6000FEF70EFC0346BB60BB6823F00803BB60B4
:101D7000B968F868FEF702FC00BF1037BD4680BDA9
:101D800080B584B000AF78600B46FB70FB78012211
:101D900002FA03F3FB607B681B79012B0CD0022B4A
:101DA00002D0002B1AD03FE07B681B688033F968B3
:101DB0001846FEF7B3FB39E07B681B688033F9688F
:101DC0001846FEF7C3FB7B681B6803F18402FB68BF
:101DD0001B0C19461046FEF7B9FB27E07B681B6811
:101DE0008033F9681846FEF7C9FB7B681B6803F16E
:101DF0008402FB681B0A19461046FEF7BFFB7B688E
:101E00001B6803F18802FB681B0C19461046FEF79D
:101E1000B5FB7B681B6803F18C02FB681B0E19463F
:101E20001046FEF7ABFB01E000BE00BF00BF10375D
:101E3000BD4680BD80B500AF00F0FAF8044A044BFF
:101E40005B6943F400735361FEF7F4FA00BF80BD91
:101E500000ED00E080B588B000AF304BD3F898308B
:101E600003F08063FB61FB69002B4CD12B4BD3F853
:101E7000983003F48053BB61BB69002B15D1284B0C
:101E8000284A1A60284B274A1A60284B254A1A60AC
:101E9000274B284A1A60284B284A1A60284B214AA7
:101EA0001A60284B1F4A1A6034E0274A3B1D92E80B
:101EB000030083E80300194BD3F89C309B0903F01F
:101EC00007037B613A1D7B6913441B78FB74FB7C21
:101ED000012B0AD0022B0DD0002B0FD100F038F8C7
:101EE000F860F86800F052F814E04FF4004000F099
:101EF0004DF80FE0154800F049F80BE0134800F0EA
:101F000045F800BF06E000F023F8F860F86800F03C
:101F10003DF8FFE700BF2037BD4680BD008003408D
:101F2000F4610020003B5808F8610020FC610020AB
:101F300000620020C00E160204620020801D2C04E6
:101F4000086200200C620020685D002040420F0003
:101F500080B483B000AF0A4BD3F8503103F00403D0
:101F60003B603B68002B02D1064B7B6001E0064BD7
:101F70007B607B6818460C37BD4680BC704700BF4D
:101F80000080034040787D0180F0FA0280B483B085
:101F900000AF78600C4A7B6813600C4A7B68136062
:101FA0000B4A7B6813600B4B0B4A1A600B4A7B6829
:101FB00013600B4A7B6813600A4A7B68136000BF9A
:101FC0000C37BD4680BC7047F4610020F8610020EA
:101FD000FC61002000620020C00E16020462002096
:101FE000086200200C62002080B483B000AF0E4B6A
:101FF000D3F84C313B603B684FF60202934203D06A
:102000000A4A934203D005E001237B6005E00223E6
:102010007B6002E000237B6000BF7B6818460C37C2
:10202000BD4680BC704700BF0080034002F801003D
:1020300080B582B000AFFFF7D7FF78607B68012BD7
:1020400000D002E000F006F800BF00BF0837BD4630
:1020500080BD000080B400AF094A094BD3F8983026
:1020600043F48073C2F89830054A054BD3F8983092
:1020700023F08063C2F8983000BFBD4680BC704733
:102080000080034080B483B000AF0346FB71084971
:1020900097F907305B09FA7902F01F02012000FA74
:1020A00002F241F8232000BF0C37BD4680BC7047C8
:1020B00000E100E080B483B000AF0346FB71094942
:1020C00097F907305B09FA7902F01F02012000FA44
:1020D00002F2203341F8232000BF0C37BD4680BCFC
:1020E000704700BF00E100E080B483B000AF03465A
:1020F000FB71094997F907305B09FA7902F01F0271
:10210000012000FA02F2603341F8232000BF0C37AF
:10211000BD4680BC704700BF00E100E080B582B0E2
:1021200000AF0346FB710E20FFF7C4FF104A104BAF
:102130009B6C23F0400393644FF0402300225A65C8
:102140000C4B0022C3F880210A4B0022C3F88821DF
:10215000084AFB79C2F884314FF0402301221A610A
:102160000E20FFF7C1FF00BF0837BD4680BD00BF8E
:10217000008003400000084280B400AF034B0122FE
:10218000C3F8802100BFBD4680BC704700000842F4
:1021900080B483B000AF78604FF040227B6853601A
:1021A00000BF0C37BD4680BC7047000080B500AF53
:1021B000044B0122C3F888210E20FFF763FF00BF04
:1021C00080BD00BF0000084280B400AF4FF0402344
:1021D00001221A61BFF34F8F00BFBD4680BC70471C
:1021E00080B58AB000AF03F0DDFBBC4802F09EFC76
:1021F00040F28F1331224FF0A041B948FFF71BFA8C
:10220000C82000F09BFA0621B64800F0B1FA04217C
:10221000B54800F0ADFA0521B44800F0A9FA022152
:10222000B34800F0A5FA0321B24800F0A1FA072153
:10223000AF4800F09DFA0821AF4800F099FA4FF43A
:10224000FA7000F07BFA0621AC4800F091FA042104
:10225000AB4800F08DFA0521AA4800F089FA022166
:10226000A94800F085FA0321A84800F081FA072167
:10227000A74800F07DFA0821A54800F079FA4FF44C
:10228000FA7000F05BFA06219C4800F071FA042114
:102290009B4800F06DFA05219A4800F069FA022186
:1022A000994800F065FA0321984800F061FA072187
:1022B000974800F05DFA0821954800F059FA9548D2
:1022C00002F034FC4FF4FA7000F038FA3B4620225A
:1022D0000021184602F022FC012325228E498F4856
:1022E000FFF764F88E4802F021FC02228D498B48EA
:1022F000FFF7E5F8FFF7AEFD02228B498B48FFF7A9
:1023000031FB052200218948FFF795FB05220121B9
:102310008648FFF790FB052202218448FFF78BFBDC
:10232000834B1B6819468148FFF7ACFB4322002111
:102330007E48FFF780FB432201217C48FFF77BFBAF
:10234000052202217948FFF776FB7A4802F0EEFB7E
:1023500000217648FFF7C6FC01217448FFF7C2FC54
:102360002320FFF78FFE744B1A6813469B0013441B
:102370005B003B620020FFF7D1FE386AFFF708FFE1
:10238000FFF7FAFEFFF712FF6C4802F0CFFB684B35
:102390001B6819466548FFF775FB6048FFF72EF983
:1023A0000346002B06D13B46202219465B48FFF727
:1023B000C5F878627B6A002B0ED03B78412B0BD19D
:1023C0005F4802F0B3FB00233B7003215748FFF73F
:1023D00059FB01F0C1FC7CE07B6A002B0ED03B78FE
:1023E000422B0BD1574802F0A1FB00233B70032185
:1023F0004E48FFF747FB01F0E2FC6AE07B6A002BE6
:102400000ED03B78432B0BD14F4802F08FFB0023BB
:102410003B7003214548FFF735FB01F0FFFC58E016
:102420007B6A002B0ED03B78442B0BD1474802F03F
:102430007DFB00233B7003213C48FFF723FB01F0A9
:1024400013FD46E07B6A002B0ED03B78452B0BD169
:102450003F4802F06BFB01213448FFF713FB0023D8
:102460003B7001F02DFD34E07B6A002B0ED03B78F1
:10247000472B0BD1374802F059FB00233B70012159
:102480002A48FFF7FFFA01F040FD22E07B6A002BAB
:102490000ED03B78492B0BD12F4802F047FB062189
:1024A0002248FFF7EFFA00233B7001F04DFB10E0EC
:1024B0007B6A002B0DD03B784A2B0AD1274802F0CB
:1024C00035FB00233B7005211848FFF7DBFA00F0CD
:1024D00065FB0A2000F032F959E700BF705D00206B
:1024E000B8640020000020420000F042000070426A
:1024F0000000B44200000C420000C8410000484205
:102500000000024300008C420000B8420000F0418D
:102510000000C842A05D002000200050B0640020F0
:10252000D85D00201062002000100030A864002058
:1025300014620020F45D0020F86100200C5E002091
:102540002C5E0020605E0020945E0020C85E0020AB
:10255000085F0020405F0020785F0020B45F00200B
:1025600080B500AF0D48FFF757FB02460C4B1A60D1
:102570000B4B1B6883F00703094A1360084B1B6869
:1025800019460648FFF77EFA022206490648FEF77A
:1025900096FFFFF719FE00BF80BD00BFA8640020B2
:1025A0001462002010620020B064002080B582B068
:1025B00000AF00237B6000215848FFF7BAFB0121E0
:1025C0005648FFF7B6FB5548FFF7C0FA786003F0AE
:1025D000E9F9534802F0AAFA04215048FFF752FAE9
:1025E0007B68012B43D14F4802F0A0FA00214B48F1
:1025F000FFF7C6FB01214948FFF7C2FB002147480E
:10260000FFF770FB01214548FFF76CFB464802F0DD
:102610008DFA01F099FA4FF47A6000F08FF83F4894
:10262000FFF794FA78607B68022BEFD101213F48D5
:10263000FFF7E8F802213D48FFF7E4F803213B48A3
:10264000FFF7E0F804213948FFF7DCF805213748A7
:10265000FFF7D8F806213548FFF7D4F807213348AB
:10266000FFF7D0F808213148FFF7CCF83CE07B6851
:10267000022B33D12E4802F059FA00212748FFF7E8
:102680007FFB01212548FFF77BFB00212348FFF753
:1026900050FB01212148FFF74CFB01212348FFF7A4
:1026A000B1F802212148FFF7ADF803211F48FFF7D9
:1026B000A9F804211D48FFF7A5F805211B48FFF7DD
:1026C000A1F806211948FFF79DF807211748FFF7E1
:1026D00099F808211548FFF795F8FEE77B68032B6A
:1026E00002D1144802F022FA00210C48FFF748FBFF
:1026F00001210A48FFF744FB2320FFF7F5FC0021E6
:102700000648FFF7EFFA01210448FFF7EBFA0A4801
:1027100002F00CFA00BF0837BD4680BDA864002057
:10272000F85F0020146000203C600020B8640020A6
:1027300090600020C0600020E060002080B485B080
:1027400000AF78600023FB6002E0FB680133FB60B0
:102750007B6841F6641202FB03F2FB689A42F4DCE8
:1027600000BF1437BD4680BC704700000000000069
:1027700090B585B000AF786039603B68012B2CD1F3
:10278000786801F047FD4FF000024FF0000301F0C0
:10279000E3FB03460C4618462146BFA3D3E90023BA
:1027A00001F08CFD03460C46184621464FF000020E
:1027B000C14B01F0D1FB03460C461846214601F0FF
:1027C0008FFF0346FB60F86802F05EF903461A4685
:1027D0000121BA48FFF764F857E13B68022B2CD17E
:1027E000786801F017FD4FF000024FF0000301F090
:1027F000B3FB03460C4618462146A7A3D3E90023A2
:1028000001F05CFD03460C46184621464FF00002DD
:10281000A94B01F0A1FB03460C461846214601F0E6
:102820005FFF0346FB60F86802F02EF903461A4684
:102830000221A248FFF734F827E13B68032B35D18A
:10284000786801F0E7FC4FF000029D4B01F084FB3B
:1028500003460C46184621464FF000024FF0000395
:1028600001F07AFB03460C46184621468CA3D3E9B7
:10287000002301F023FD03460C46184621464FF085
:102880000002904B01F068FB03460C4618462146B7
:1028900001F026FF0346FB60F86802F0F5F80346F6
:1028A0001A4603218548FEF7FBFFEEE03B68042B48
:1028B0002CD1786801F0AEFC4FF000024FF000031D
:1028C00001F04AFB03460C461846214672A3D3E9A1
:1028D000002301F0F3FC03460C46184621464FF056
:1028E0000002754B01F038FB03460C4618462146A2
:1028F00001F0F6FE0346FB60F86802F0C5F80346F7
:102900001A4604216D48FEF7CBFFBEE03B68052B5D
:102910002CD1786801F07EFC4FF000024FF00003EC
:1029200001F01AFB03460C46184621465EA3D3E984
:10293000002301F0C3FC03460C46184621464FF025
:102940000002614B01F008FB03460C461846214685
:1029500001F0C6FE0346FB60F86802F095F80346F6
:102960001A4605215548FEF79BFF8EE03B68062B73
:102970002CD1786801F04EFC4FF000024FF00003BC
:1029800001F0EAFA03460C461846214648A3D3E96B
:10299000002301F093FC03460C46184621464FF0F5
:1029A00000024A4B01F0D8FA03460C46184621466D
:1029B00001F096FE0346FB60F86802F065F80346F6
:1029C0001A4606213D48FEF76BFF5EE03B68062B8A
:1029D0002CD1786801F01EFC4FF000024FF000038C
:1029E00001F0BAFA03460C46184621462AA3D3E959
:1029F000002301F063FC03460C46184621464FF0C5
:102A000000022D4B01F0A8FA03460C461846214659
:102A100001F066FE0346FB60F86802F035F80346F5
:102A20001A4607212548FEF73BFF2EE03B68062BA0
:102A30002BD1786801F0EEFB4FF000024FF000035D
:102A400001F08AFA03460C461846214612A3D3E940
:102A5000002301F033FC03460C46184621464FF094
:102A60000002154B01F078FA03460C461846214641
:102A700001F036FE0346FB60F86802F005F80346F5
:102A80001A4608210D48FEF70BFF00BF1437BD465C
:102A900090BD00BFAFF30080181818181818C83F71
:102AA0001B1B1B1B1B1BCB3F5A5A5A5A5A5ACA3F55
:102AB000D9D8D8D8D8D8C83F00002840B86400205A
:102AC00000804440000020400000224000002640DA
:102AD00080B500AF06211148FFF74AFE04211048D7
:102AE000FFF746FE05210F48FFF742FE02210E4880
:102AF000FFF73EFE03210D48FFF73AFE07210C4881
:102B0000FFF736FE08210A48FFF732FE02F04AFFBF
:102B1000084802F00BF800BF80BD00BF000048422B
:102B20000000024300008C420000B8420000F04167
:102B30000000C8422061002080B582B000AF7860FC
:102B40007B68002B04D106211048FFF711FE16E028
:102B50007B68012B04D106210D48FFF709FE0EE02A
:102B60007B68022B04D106210A48FFF701FE06E02C
:102B70007B68032B03D106210748FFF7F9FD3220BC
:102B8000FFF7DCFD00BF0837BD4680BD0000F04206
:102B900000000243000048420000DC4280B582B0E1
:102BA00002AF02230193052300934FF07E530022CE
:102BB0003849394800F07AF84FF47A70FFF7BEFDD3
:102BC0000220FFF7B9FF032301930A2300934FF07C
:102BD0007E5301223149324800F068F84FF47A7090
:102BE000FFF7ACFD42F21070FFF7A8FD0320FFF7DE
:102BF000A3FF4FF4FA50FFF7A1FD032301930A232B
:102C000000934FF07E5300222549264800F04EF8ED
:102C10004FF47A70FFF792FD032301930A23009388
:102C20004FF07E5301221F491D4800F03FF84FF43A
:102C3000FA70FFF783FD0220FFF77EFF4FF4FA7072
:102C4000FFF77CFD032301930A2300934FF07E538B
:102C500000221349114800F029F8022301930A23A6
:102C600000934FF07E5301220B490A4800F01EF8F2
:102C700007210D48FFF77CFD08210B48FFF778FD81
:102C80004FF4FA70FFF75AFDFFF722FF00BFBD4671
:102C900080BD00BF0000B8420000B6420000F04115
:102CA0000000A042000082420000C84280B588B007
:102CB00000AFF860B9607A603B607B68012B19D186
:102CC000BB68BB610EE0F96AB869FFF751FDB86AED
:102CD000FFF734FDBB69FB613968B86901F056FD47
:102CE0000346BB61F968B86901F0B0FE0346002BEA
:102CF000E9D11BE07B68002B18D1BB687B610EE03B
:102D0000F96A7869FFF734FDB86AFFF717FD7B6948
:102D1000FB613968786901F037FD03467B61F9682A
:102D2000786901F09DFE0346002BE9D1FB69184646
:102D30002037BD4680BD000080B582B002AF0223BF
:102D400001930A2300934FF07E530122264927481E
:102D5000FFF7ACFF4FF4FA70FFF7F0FC0323019389
:102D60000A2300934FF07E53012221492148FFF7A7
:102D70009DFF4FF4FA70FFF7E1FC042301930A234F
:102D800000934FF07E5300221B491C48FFF78EFF33
:102D90004FF4FA70FFF7D2FC0320FFF7CDFE4FF49B
:102DA0002F70FFF7CBFC042301930A2300934FF00D
:102DB0007E53002211491248FFF778FF4FF49670B6
:102DC000FFF7BCFC032301930A2300934FF07E53CB
:102DD000002208490B48FFF769FF4FF4FA70FFF72C
:102DE000ADFC00BFBD4680BD0000B8420000E0421F
:102DF0000000F0410000C842000002430000C4424D
:102E00000000C0420000704280B582B002AF0223D1
:102E10000193052300934FF07C5300221B491C486B
:102E2000FFF744FF4FF4FA70FFF788FC0523019386
:102E3000012300934FF07E53002216491448FFF7F8
:102E400035FFC820FFF77AFC042301930A2300937F
:102E50004FF07E53002210491048FFF727FF4FF430
:102E60009670FFF76BFC032301930A2300934FF046
:102E70007E5301220A490B48FFF718FF4FF4FA70FE
:102E8000FFF75CFC00BFBD4680BD00BF0000E04214
:102E90000000824200008C420000C0420000A042BC
:102EA000000070420000A84280B582B002AF032348
:102EB00001930A2300934FF07E53012219491A48C7
:102EC000FFF7F4FE4FF4FA70FFF738FC022301938A
:102ED000052300934FF07C53012214491448FFF757
:102EE000E5FE032301930A2300934FF07E53002253
:102EF0000D491048FFF7DAFE4FF4FA70FFF71EFC99
:102F0000052301930A2300934FF07E5300220A49C0
:102F10000948FFF7CBFE4FF4FA70FFF70FFC00BF34
:102F2000BD4680BD0000A8420000B44200008242BD
:102F300000008442000048420000704280B582B028
:102F400002AF062301930A2300934FF07E53012220
:102F500019491948FFF7AAFE042301930A23009395
:102F60004FF07E53012215491548FFF79FFE0223BB
:102F700001930A2300934FF07E5301221149124816
:102F8000FFF794FE032301930A2300934FF07E532F
:102F900000220E490E48FFF789FE07210D48FFF772
:102FA000E7FB08210B48FFF7E3FB4FF4FA70FFF74C
:102FB000C5FB00BFBD4680BD0000DC420000A04252
:102FC00000000243000082420000B8420000484274
:102FD0000000F0410000C84280B582B002AF022379
:102FE00001930A2300934FF07E5300222C492D4871
:102FF000FFF75CFE4FF47A70FFF7A0FB0323019309
:103000000A2300934FF07E53012227492748FFF7F8
:103010004DFE4FF47A70FFF791FB042301930A23CE
:1030200000934FF07E53002221492248FFF73EFED5
:103030004FF47A70FFF782FB032301930A23009376
:103040004FF07E53012219491B48FFF72FFE4FF422
:103050002F70FFF773FB0320FFF76EFD4FF42F7007
:10306000FFF76CFB042301930A2300934FF07E5378
:10307000002210490A48FFF719FE032301930A238F
:1030800000934FF07E5300220B490C48FFF70EFED1
:103090004FF47A70FFF752FB00BFBD4680BD00BF02
:1030A0000000B842000082420000F0410000AA4245
:1030B000000002430000C0420000C84200008C42F1
:1030C00080B582B002AF4FF47A70FFF737FB02236E
:1030D0000193052300934FF07E530122214922489A
:1030E000FFF7E4FD4FF47A70FFF728FB0523019307
:1030F0000A2300934FF07E5300221C491C48FFF71F
:10310000D5FD4FF4FA70FFF719FB042301930A234E
:1031100000934FF07E53002216491748FFF7C6FD73
:103120004FF47A70FFF70AFB032301930A230093FD
:103130004FF07E5301220D491048FFF7B7FD4FF4C1
:103140007A70FFF7FBFA052301930A2300934FF0EF
:103150007E53012206490548FFF7A8FD00BFBD4682
:1031600080BD00BF000082420000E04200008C42AF
:10317000000078420000F4420000A04200009E429D
:1031800080B582B002AF032301930A2300934FF06E
:103190007E53012211491248FFF788FD0223019353
:1031A000052300934FF07E5300220E490E48FFF78F
:1031B0007DFDC820FFF7C2FA032301930A23009381
:1031C0004FF07E53002206490848FFF76FFD4FF489
:1031D000FA70FFF7B3FA00BFBD4680BD00009C4205
:1031E0000000B4420000E0420000DA420000484221
:1031F00080B582B002AF062301930A2300934FF0FB
:103200007E5301221F491F48FFF750FD04230193FD
:103210000A2300934FF07E5301221B491B48FFF7FE
:1032200045FD052301930A2300934FF07E530122AD
:1032300017491848FFF73AFD022301930A23009328
:103240004FF07E53012214491448FFF72FFD03234A
:1032500001930A2300934FF07E5300221049114836
:10326000FFF724FD07211048FFF782FA08210E48D6
:10327000FFF77EFA4FF4FA70FFF760FA00BFBD4621
:1032800080BD00BF0000DC420000A04200000243FD
:103290000000784200008C420000DE420000B8428C
:1032A000000048420000F0410000C84280B582B0F2
:1032B00002AF022301930A2300934FF07C530022B4
:1032C0002B492C48FFF7F2FC4FF4FA70FFF736FA5F
:1032D000032301930A2300934FF07E5301222649D2
:1032E0002648FFF7E3FC4FF41670FFF727FA042394
:1032F00001930A2300934FF07E53002220491F4878
:10330000FFF7D4FCC820FFF719FA0320FFF714FCDD
:103310004FF42F70FFF712FA032301930F2300934A
:103320004FF07E53002215491648FFF7BFFC0423D7
:1033300001930A2300934FF07E5300220F49124855
:10334000FFF7B4FC4FF4FA70FFF7F8F90323019389
:103350000F2300934FF07E5300220A490B48FFF7DA
:10336000A5FC4FF4FA70FFF7E9F900BFBD4680BD38
:103370000000B8420000AC420000F0410000C8422A
:10338000000002430000A0420000C64200008C4240
:1033900080B582B002AF022301930A2300934FF05D
:1033A0007E53002214491548FFF780FC4FF4167035
:1033B000FFF7C4F9042301930A2300934FF07E53CF
:1033C00000220F490F48FFF771FC4FF4FA70FFF726
:1033D000B5F9032301930F2300934FF07E5301228D
:1033E00009490A48FFF762FC4FF44870FFF7A6F955
:1033F00000BFBD4680BD00BF0000AC42000040429F
:103400000000C64200009E4200008C420000A44220
:1034100080B582B002AF032301930A2300934FF0DB
:103420007E53012223492448FFF740FCC820FFF7C0
:1034300085F9022301930A2300934FF07E53012262
:103440001E491F48FFF732FCC820FFF777F9032316
:1034500001930A2300934FF07E5300221649194826
:10346000FFF724FC042301930A2300934FF07E53BB
:10347000012215491548FFF719FC052301930A237A
:1034800000934FF07E53012211491148FFF70EFCC3
:10349000022301930A2300934FF07E5301220D492A
:1034A0000D48FFF703FC4FF4FA70FFF747F900BF30
:1034B000BD4680BD0000A4420000B442000040426E
:1034C000000048420000F04100009E42000002431C
:1034D00000008C42000038420000B84280B582B043
:1034E00002AF022301930A2300934FF07E53002280
:1034F00026492748FFF7DAFB4FF4FA70FFF71EF969
:10350000042301930A2300934FF07E5300222149A4
:103510002148FFF7CBFB6420FFF710F90323019349
:103520000A2300934FF07E5301221C491C48FFF7E9
:10353000BDFB4FF41670FFF701F90320FFF7FCFA0B
:103540004FF42F70FFF7FAF8042301930A23009336
:103550004FF07E53002210491248FFF7A7FB4FF4AB
:10356000FA70FFF7EBF8032301930A2300934FF05F
:103570007E5300220A490C48FFF798FB4FF4FA707B
:10358000FFF7DCF800BFBD4680BD00BF0000B842B9
:1035900000005042000002430000A4420000F0413D
:1035A0000000B0420000A0420000824280B582B01C
:1035B00002AF022301930A2300934FF07E530122AE
:1035C00015491648FFF772FB4FF4FA70FFF7B6F88B
:1035D000042301930A2300934FF07E5300221049E5
:1035E0001048FFF763FB4FF42F70FFF7A7F8C820D0
:1035F000FFF7A4F8032301930A2300934FF07E53AF
:10360000012209490948FFF751FB4FF4FA70FFF70F
:1036100095F800BFBD4680BD000050420000BE428C
:103620000000A04200008E420000824200009C4246
:1036300080B582B002AF032301930A2300934FF0B9
:103640007E5301220C490D48FFF730FB4FF4FA700E
:10365000FFF774F802230193052300934FF07C5386
:10366000012207490748FFF721FBC820FFF766F84A
:1036700000BFBD4680BD00BF00009C420000AE42BE
:103680000000BE420000B64280B582B002AF052302
:1036900001930A2300934FF07E53002219491A48E0
:1036A000FFF704FB042301930A2300934FF07E539A
:1036B000012216491648FFF7F9FA4FF4FA70FFF79E
:1036C0003DF8032301930A2300934FF07E53002219
:1036D00010491148FFF7EAFA4FF4FA70FFF72EF895
:1036E000022301930A2300934FF07E5301220B49DA
:1036F0000B48FFF7DBFA4FF4FA70FFF71FF800BF33
:10370000BD4680BD000082420000404200008E4263
:10371000000002430000AE420000F0410000B6424B
:103720000000B84280B582B002AF042301930A239F
:1037300000934FF07E53012221492248FFF7B6FA49
:1037400005230193052300934FF07E5301221E4968
:103750001E48FFF7ABFA4FF41670FEF7EFFF052394
:103760000193052300934FF07E5300221749184818
:10377000FFF79CFA4FF4FA70FEF7E0FF0523019380
:10378000052300934FF07E53012211490F48FFF7A4
:103790008DFA4FF4FA70FEF7D1FF0523019305234C
:1037A00000934FF07E53002208490748FFF77EFA46
:1037B0004FF41670FEF7C2FF00BFBD4680BD00BFCC
:1037C0000000C84200000243000070420000344381
:1037D0000000A04080B582B002AF052301930A2308
:1037E00000934FF07E53012231493248FFF75EFAD1
:1037F0004FF4FA70FEF7A2FF042301930A2300930B
:103800004FF07E5300222C492C48FFF74FFA4FF41B
:10381000FA70FEF793FF032301930A2300934FF0FE
:103820007E53012222492548FFF740FA40F2DC503E
:10383000FEF784FF0220FFF77FF94FF4FA70FEF7DE
:103840007DFF032301930A2300934FF07E5301224F
:103850001A491B48FFF72AFA052301930A2300930C
:103860004FF07E53012213491648FFF71FFA032336
:1038700001930A2300934FF07E530022104912480F
:10388000FFF714FA4FF4FA70FEF758FF0423019380
:103890000A2300934FF07E53012208490748FFF79F
:1038A00005FA4FF4FA70FEF749FF00BFBD4680BD30
:1038B0000000704200008C42000002430000A6425B
:1038C0000000B442000090420000484280B582B03F
:1038D00002AF042301930A2300934FF07E53012289
:1038E0003F494048FFF7E2F9052301930523009380
:1038F0004FF07E5301223C493C48FFF7D7F94FF483
:103900001670FEF71BFF05230193052300934FF06C
:103910007E53002235493448FFF7C8F94FF4FA7056
:10392000FEF70CFF05230193052300934FF07E5310
:1039300001222D492E48FFF7B9F94FF4FA70FEF72E
:10394000FDFE05230193052300934FF07E530022D3
:1039500027492548FFF7AAF94FF41670FEF7EEFE47
:1039600005230193052300934FF07E5301221E4946
:103970001E48FFF79BF94FF41670FEF7DFFE052394
:103980000193052300934FF07E53002217491648F8
:10399000FFF78CF94FF4FA70FEF7D0FE0523019380
:1039A000052300934FF07E5301220F491048FFF783
:1039B0007DF94FF4FA70FEF7C1FE0523019305234C
:1039C00000934FF07E53002209490748FFF76EF934
:1039D0004FF41670FEF7B2FE00BFBD4680BD00BFBB
:1039E0000000C6420000F04200008C4200002A4362
:1039F0000000204280B582B002AF042301930A2365
:103A000000934FF07E53002226492748FFF74EF9D6
:103A10004FF4FA70FEF792FE0523019305230093FD
:103A20004FF07E53002221492148FFF73FF94FF420
:103A3000FA70FEF783FE032301930F2300934FF0E8
:103A40007E5301221B491C48FFF730F94FF4FA70EE
:103A5000FEF774FE0220FFF76FF84FF4FA70FEF7DE
:103A60006DFE02230193052300934FF07C53012246
:103A700011491248FFF71AF94FF4FA70FEF75EFE8B
:103A8000032301930A2300934FF07E5301220A4936
:103A90000B48FFF70BF9C820FEF750FE00BFBD46EC
:103AA00080BD00BF0000F0420000A84200008C4230
:103AB00000008842000096420000AA420000AC428A
:103AC0000000B04280B582B002AF042301930A2304
:103AD00000934FF07E53012214491548FFF7E6F892
:103AE000052301930A2300934FF07E5301221149CD
:103AF0001148FFF7DBF8032301930A2300934FF0EB
:103B00007E5300220D490E48FFF7D0F807210D48DB
:103B1000FEF72EFE08210B48FEF72AFE4FF4FA703E
:103B2000FEF70CFE00BFBD4680BD00BF0000A842EE
:103B300000000C430000884200008C420000B042AC
:103B40000000F0410000C84280B582B002AF0621FB
:103B50007448FEF70DFE04230193052300934FF0F4
:103B60007E53002270497148FFF7A0F802230193A9
:103B70000A2300934FF07E5301226D496D48FFF7F1
:103B800095F805230193052300934FF07E530122FE
:103B900069496A48FFF78AF80220FEF7CDFFC8207E
:103BA000FEF7CCFD022301930A2300934FF07E53CE
:103BB000012260495C48FFF779F803230193082349
:103BC00000934FF07E5301225D495E48FFF76EF887
:103BD00004230193052300934FF07E5301225349A0
:103BE0005948FFF763F8C820FEF7A8FD0320FEF749
:103BF000A3FF05230193052300934FF07E53012279
:103C00004E494FF00000FFF751F8C820FEF796FD2F
:103C100005230193052300934FF07E5300224FF0BC
:103C200000014648FFF742F8C820FEF787FD03234E
:103C30000193082300934FF07E53002241494048EE
:103C4000FFF734F804230193052300934FF07E53CC
:103C500000223D493948FFF729F80220FEF76CFFA2
:103C6000C820FEF76BFD022301930A2300934FF057
:103C70007E53002235494FF00000FFF717F8C820A7
:103C8000FEF75CFD0320FEF757FF05230193052394
:103C900000934FF07E5301224FF000012C48FFF7B4
:103CA00005F8C820FEF74AFD05230193052300937C
:103CB0004FF07E53002226494FF00000FEF7F6FF3A
:103CC000C820FEF73BFD0220FEF736FF04230193D8
:103CD000052300934FF07E5301221E491248FEF740
:103CE000E5FF05230193052300934FF07E53002247
:103CF0004FF000011048FEF7D9FF022301930A2379
:103D000000934FF07E5301224FF000010848FEF768
:103D1000CDFFFEF7DDFE4FF4FA70FEF70FFD00BF9A
:103D2000BD4680BD0000DC4200000C43000048425C
:103D30000000B8420000C84200008C420000164358
:103D40000000F0410000A0420000F04200002043CB
:103D5000000034430000024380B500AFFEF7B8FE18
:103D60000220FEF7E9FE4FF4FA70FEF7E7FCFEF7DB
:103D7000E3FF4FF4FA70FEF7E1FCFFF745F84FF46C
:103D8000FA70FEF7DBFC0220FEF7D6FE4FF4FA7065
:103D9000FEF7D4FCFFF788F8FFF7D0F8C820FEF74D
:103DA000CDFCFEF795FE4FF4FA70FEF7C7FCFEF768
:103DB0008FFE4FF4FA70FEF7C1FC00BF80BD80B5E6
:103DC00000AFFEF785FE0220FEF7B6FE4FF4FA7054
:103DD000FEF7B4FCFFF700F94FF4FA70FEF7AEFC03
:103DE000FFF76EF94FF4FA70FEF7A8FC0220FEF719
:103DF000A3FEFFF7C5F9FFF7FBF9C820FEF79EFC0D
:103E0000FEF766FE4FF4FA70FEF798FCFEF760FED0
:103E10004FF4FA70FEF792FC00BF80BD80B500AF92
:103E20000220FEF789FEFFF741FA4FF47A70FEF7A1
:103E300085FCFFF7ADFA4FF4FA70FEF77FFC022025
:103E4000FEF77AFE4FF47A70FEF778FCFFF7E0FA9F
:103E50004FF4FA70FEF772FCFEF73AFE4FF4FA7078
:103E6000FEF76CFC00BF80BD80B500AF0220FEF7FE
:103E700063FEFFF733FB4FF4FA70FEF75FFCFFF7CA
:103E800095FB4FF4FA70FEF759FC0220FEF754FE42
:103E90004FF4FA70FEF752FCFFF7CAFB4FF4FA70CA
:103EA000FEF74CFCFFF7F0FB4FF4FA70FEF746FC10
:103EB000FEF70EFE4FF4FA70FEF740FC00BF80BD27
:103EC00080B500AF0220FEF737FEFEF735FF4FF456
:103ED000FA70FEF733FCFFF725FC4FF4FA70FEF79B
:103EE0002DFCFFF777FC4FF4FA70FEF727FCFFF785
:103EF0007FF94FF4FA70FEF721FCFEF7E9FD4FF46D
:103F0000FA70FEF71BFC00BF80BD80B500AF022039
:103F1000FEF712FEFFF7CAF94FF4FA70FEF70EFC37
:103F2000FFF7D4FC4FF4FA70FEF708FCFFF762FDD0
:103F30004FF4FA70FEF702FCFFF7C4FDFEF7C8FD70
:103F40004FF4FA70FEF7FAFB00BF80BD81F000412C
:103F500002E000BF83F0004330B54FEA41044FEA6E
:103F6000430594EA050F08BF90EA020F1FBF54EA09
:103F7000000C55EA020C7FEA645C7FEA655C00F0A5
:103F8000E2804FEA5454D4EB5555B8BF6D420CDD76
:103F90002C4480EA020281EA030382EA000083EAF9
:103FA000010180EA020281EA0303362D88BF30BD99
:103FB00011F0004F4FEA01314FF4801C4CEA1131EF
:103FC00002D0404261EB410113F0004F4FEA03334E
:103FD0004CEA133302D0524263EB430394EA050FD9
:103FE00000F0A780A4F10104D5F1200E0DDB02FA48
:103FF0000EFC22FA05F2801841F1000103FA0EF2DC
:10400000801843FA05F359410EE0A5F120050EF1A1
:10401000200E012A03FA0EFC28BF4CF0020C43FAD2
:1040200005F3C01851EBE37101F0004507D54FF0DF
:10403000000EDCF1000C7EEB00006EEB0101B1F52F
:10404000801F1BD3B1F5001F0CD349085FEA300075
:104050004FEA3C0C04F101044FEA445212F5800F80
:1040600080F09A80BCF1004F08BF5FEA500C50F11D
:10407000000041EB045141EA050130BD5FEA4C0C00
:10408000404141EB010111F4801FA4F10104E9D189
:1040900091F0000F04BF01460020B1FA81F308BF80
:1040A0002033A3F10B03B3F120020CDA0C3208DD4C
:1040B00002F1140CC2F10C0201FA0CF021FA02F127
:1040C0000CE002F11402D8BFC2F1200C01FA02F197
:1040D00020FA0CFCDCBF41EA0C019040E41AA2BFBC
:1040E00001EB0451294330BD6FEA04041F3C1CDA84
:1040F0000C340EDC04F11404C4F1200220FA04F0A4
:1041000001FA02F340EA030021FA04F345EA03014D
:1041100030BDC4F10C04C4F1200220FA02F001FA0F
:1041200004F340EA0300294630BD21FA04F0294691
:1041300030BD94F0000F83F4801306BF81F480112A
:104140000134013D4EE77FEA645C18BF7FEA655C9D
:1041500029D094EA050F08BF90EA020F05D054EA6F
:10416000000C04BF1946104630BD91EA030F1EBF74
:104170000021002030BD5FEA545C05D14000494178
:1041800028BF41F0004130BD14F580043CBF01F56B
:10419000801130BD01F0004545F0FE4141F4700151
:1041A0004FF0000030BD7FEA645C1ABF194610462C
:1041B0007FEA655C1CBF0B46024650EA013406BF2D
:1041C00052EA033591EA030F41F4002130BD00BFEC
:1041D00090F0000F04BF0021704730B54FF48064A9
:1041E00004F132044FF000054FF0000150E700BF2A
:1041F00090F0000F04BF0021704730B54FF4806489
:1042000004F1320410F0004548BF40424FF0000175
:104210003EE700BF42004FEAE2014FEA31014FEAB8
:1042200002701FBF12F07F4393F07F4F81F0605107
:10423000704792F0000F14BF93F07F4F704730B576
:104240004FF4607401F0004521F0004120E700BF09
:1042500050EA010208BF704730B54FF000050AE090
:1042600050EA010208BF704730B511F0004502D591
:10427000404261EB41014FF4806404F132045FEA93
:10428000915C3FF4DCAE4FF003025FEADC0C18BF38
:1042900003325FEADC0C18BF033202EBDC02C2F12E
:1042A000200300FA03FC20FA02F001FA03FE40EAC0
:1042B0000E0021FA02F11444C1E600BF70B54FF0C0
:1042C000FF0C4CF4E06C1CEA11541DBF1CEA1355A2
:1042D00094EA0C0F95EA0C0F00F0DEF82C4481EA0A
:1042E000030621EA4C5123EA4C5350EA013518BF2A
:1042F00052EA033541F4801143F4801338D0A0FB17
:1043000002CE4FF00005E1FB02E506F00042E0FBC3
:1043100003E54FF00006E1FB03569CF0000F18BFC9
:104320004EF0010EA4F1FF04B6F5007F64F5407471
:1043300004D25FEA4E0E6D4146EB060642EAC62104
:1043400041EA55514FEAC52040EA5E504FEACE2E71
:10435000B4F1FD0C88BFBCF5E06F1ED8BEF1004F74
:1043600008BF5FEA500E50F1000041EB045170BDF0
:1043700006F0004646EA010140EA020081EA030134
:10438000B4EB5C04C2BFD4EB0C0541EA045170BD30
:1043900041F480114FF0000E013C00F3AB8014F1AA
:1043A000360FDEBF002001F0004170BDC4F10004F3
:1043B000203C35DA0C341BDC04F11404C4F1200574
:1043C00000FA05F320FA04F001FA05F240EA0200CF
:1043D00001F0004221F0004110EBD37021FA04F605
:1043E00042EB06015EEA430E08BF20EAD37070BDBF
:1043F000C4F10C04C4F1200500FA04F320FA05F01E
:1044000001FA04F240EA020001F0004110EBD3701F
:1044100041F100015EEA430E08BF20EAD37070BD8F
:10442000C4F1200500FA05F24EEA020E20FA04F368
:1044300001FA05F243EA020321FA04F001F0004117
:1044400021FA04F220EA020000EBD3705EEA430E88
:1044500008BF20EAD37070BD94F0000F0FD101F0B7
:104460000046400041EB010111F4801F08BF013CF0
:10447000F7D041EA060195F0000F18BF704703F02E
:104480000046520043EB030313F4801F08BF013DB5
:10449000F7D043EA0603704794EA0C0F0CEA135571
:1044A00018BF95EA0C0F0CD050EA410618BF52EA2B
:1044B0004306D1D181EA030101F000414FF0000031
:1044C00070BD50EA410606BF1046194652EA43063F
:1044D00019D094EA0C0F02D150EA013613D195EAB3
:1044E0000C0F05D152EA03361CBF104619460AD1FB
:1044F00081EA030101F0004141F0FE4141F4700105
:104500004FF0000070BD41F0FE4141F4780170BDF4
:1045100070B54FF0FF0C4CF4E06C1CEA11541DBF59
:104520001CEA135594EA0C0F95EA0C0F00F0A7F85B
:10453000A4EB050481EA030E52EA03354FEA013188
:1045400000F088804FEA03334FF0805545EA13139B
:1045500043EA12634FEA022245EA111545EA106563
:104560004FEA00260EF000419D4208BF964244F1FA
:10457000FD0404F5407402D25B084FEA3202B61A19
:1045800065EB03055B084FEA32024FF480104FF4ED
:10459000002CB6EB020E75EB030E22BFB61A754661
:1045A00040EA0C005B084FEA3202B6EB020E75EBF4
:1045B000030E22BFB61A754640EA5C005B084FEA5C
:1045C0003202B6EB020E75EB030E22BFB61A754629
:1045D00040EA9C005B084FEA3202B6EB020E75EB34
:1045E000030E22BFB61A754640EADC0055EA060EF5
:1045F00018D04FEA051545EA16754FEA06164FEA38
:10460000C30343EA52734FEAC2025FEA1C1CC0D1E3
:1046100011F4801F0BD141EA00014FF000004FF070
:10462000004CB6E711F4801F04BF01430020B4F131
:10463000FD0C88BFBCF5E06F3FF6AFAEB5EB030CE9
:1046400004BFB6EB020C5FEA500C50F1000041EBE6
:10465000045170BD0EF0004E4EEA113114EB5C04B3
:10466000C2BFD4EB0C0541EA045170BD41F4801186
:104670004FF0000E013C90E645EA060E8DE60CEA8E
:10468000135594EA0C0F08BF95EA0C0F3FF43BAFAB
:1046900094EA0C0F0AD150EA01347FF434AF95EA62
:1046A0000C0F7FF425AF104619462CE795EA0C0F46
:1046B00006D152EA03353FF4FDAE1046194622E713
:1046C00050EA410618BF52EA43067FF4C5AE50EAED
:1046D00041047FF40DAF52EA43057FF4EBAE12E7DD
:1046E0004FEA4102B2F1E04324BFB3F5001CDCF114
:1046F000FE5C0DD901F0004C4FEAC0024CEA50704C
:10470000B2F1004F40EB830008BF20F0010070477A
:1047100011F0804F21D113F13872BCBF01F000407D
:10472000704741F480114FEA5252C2F11802C2F1AF
:10473000200C10FA0CF320FA02F018BF40F0010030
:104740004FEAC1234FEAD32303FA0CFC40EA0C00E2
:1047500023FA02F34FEA4303CCE77FEA625307D11F
:1047600050EA01331EBF4FF0FE4040F44000704756
:1047700001F0004040F0FE4040F40000704700BFF0
:1047800080F0004002E000BF81F0004142001FBF06
:104790005FEA410392EA030F7FEA226C7FEA236C0F
:1047A0006AD04FEA1262D2EB1363C1BFD218414004
:1047B00048404140B8BF5B42192B88BF704710F09A
:1047C000004F40F4000020F07F4018BF404211F03D
:1047D000004F41F4000121F07F4118BF494292EAA5
:1047E000030F3FD0A2F1010241FA03FC10EB0C00D1
:1047F000C3F1200301FA03F100F0004302D549425E
:1048000060EB4000B0F5000F13D3B0F1807F06D30A
:1048100040084FEA310102F10102FE2A51D2B1F102
:10482000004F40EBC25008BF20F0010040EA0300F7
:104830007047490040EB000010F4000FA2F10102A4
:10484000EDD1B0FA80FCACF1080CB2EB0C0200FA2E
:104850000CF0AABF00EBC25052421843BCBFD0407C
:104860001843704792F0000F81F4000106BF80F4F6
:1048700000000132013BB5E74FEA41037FEA226CB9
:1048800018BF7FEA236C21D092EA030F04D092F084
:10489000000F08BF0846704790EA010F1CBF0020B8
:1048A000704712F07F4F04D1400028BF40F0004015
:1048B000704712F100723CBF00F50000704700F035
:1048C000004343F0FE4040F4000070477FEA22625C
:1048D00016BF08467FEA23630146420206BF5FEA2D
:1048E000412390EA010F40F4800070474FF000032D
:1048F00004E000BF10F0004348BF40425FEA000CF4
:1049000008BF704743F0964301464FF000001CE09B
:1049100050EA010208BF70474FF000030AE000BFF1
:1049200050EA010208BF704711F0004302D540422F
:1049300061EB41015FEA010C02BF844601460020A1
:1049400043F0B64308BFA3F18053A3F50003BCFABC
:104950008CF2083AA3EBC25310DB01FA02FC634469
:1049600000FA02FCC2F12002BCF1004F20FA02F270
:1049700043EB020008BF20F00100704702F1200263
:1049800001FA02FCC2F1200250EA4C0021FA02F2C4
:1049900043EB020008BF20EADC7070474FF0FF3C99
:1049A00006E000BF4FF0010C02E000BF4FF0010C29
:1049B0004DF804CD4FEA40024FEA41037FEA226CF2
:1049C00018BF7FEA236C11D001B052EA530C18BF14
:1049D00090EA010F58BFB2EB030088BFC81738BF79
:1049E0006FEAE17018BF40F0010070477FEA226C67
:1049F00002D15FEA402C05D17FEA236CE4D15FEA63
:104A0000412CE1D05DF8040B704700BF8446084696
:104A10006146FFE70FB5FFF7C9FF002848BF10F157
:104A2000000F0FBD4DF808EDFFF7F4FF0CBF01209C
:104A300000205DF808FB00BF4DF808EDFFF7EAFF26
:104A400034BF012000205DF808FB00BF4DF808EDE1
:104A5000FFF7E0FF94BF012000205DF808FB00BFD6
:104A60004DF808EDFFF7D2FF94BF012000205DF85C
:104A700008FB00BF4DF808EDFFF7C8FF34BF012069
:104A800000205DF808FB00BF4FEA4002B2F1FE4F84
:104A90000FD34FF09E03B3EB12620DD94FEA002300
:104AA00043F0004310F0004F23FA02F018BF4042D9
:104AB00070474FF00000704712F1610F01D14202C0
:104AC00005D110F0004008BF6FF0004070474FF074
:104AD0000000704770B500250C4E0D4CA41BA410AF
:104AE000A54209D101F074FB00250A4E0A4CA41B13
:104AF000A410A54205D170BD56F825309847013560
:104B0000EEE756F8253098470135F2E7E8610020D6
:104B1000E8610020E8610020EC61002003460244C7
:104B2000934200D1704703F8011BF9E70FB40A4B19
:104B300013B51C6824B1A36913B9204600F04EF8E0
:104B400005AB049AA1682046019300F057F902B022
:104B5000BDE8104004B0704718620020014900F021
:104B6000A9B800BFD5560020002310B50446036045
:104B70004360836081814366C281036143618361D5
:104B8000194608225C30FFF7C9FF054B24626362B7
:104B9000044BA362044BE362044B236310BD00BFCC
:104BA000795300209B530020D3530020F75300205B
:104BB00070B568254A1E55430E4605F1740100F094
:104BC00097F8044640B1002180E842000C30A06014
:104BD00005F16802FFF7A2FF204670BD836910B59A
:104BE000044633BB8364C3640365124B124A1B68DB
:104BF0008262984204BF0123836100F01FF8606065
:104C0000204600F01BF8A060204600F017F80022B4
:104C1000E06004216068FFF7A7FF01220921A06876
:104C2000FFF7A2FF02221221E068FFF79DFF012398
:104C3000A36110BD346100205D4B0020F8B51C4B12
:104C400007461E68B36913B93046FFF7C7FF4836F9
:104C5000B4687368013B03D5336833B13668F7E74E
:104C6000B4F90C506DB16834F4E704213846FFF70D
:104C70009FFF30600028F1D10C2304463B602046A2
:104C8000F8BD4FF6FF73E38101236566A3812560BC
:104C9000A560656025616561A5610822294604F16A
:104CA0005C00FFF73BFF6563A563A564E564E6E789
:104CB000346100202DE9F84380468946002600F142
:104CC000480414B93046BDE8F883A5686768013F19
:104CD00001D52468F5E7AB89012B07D9B5F90E306A
:104CE000013303D029464046C84706436835EEE7FE
:104CF00070B5CD1C25F0030508350C2D38BF0C25EB
:104D0000002D064601DBA94203D90C2333600020A5
:104D100070BD00F08DFD234A1468214691B9224CE4
:104D200023681BB9304600F017FB20602946304647
:104D300000F012FB431C26D10C233046336000F0F8
:104D400078FDE4E70B685B1B1AD40B2B0FD90B60C3
:104D5000CC18CD50304600F06CFD04F10B00231D43
:104D600020F00700C31A1BD05A42E25070BD8C429B
:104D70000BBF63684B681360636018BF0C46E9E7BC
:104D80000C464968CAE7C41C24F00304A04205D0BD
:104D9000211A304600F0E0FA0130CDD02560D9E785
:104DA00070BD00BFE8620020EC620020936810B480
:104DB000013B002B936008DA9469A34202DBCBB27B
:104DC0000A2B02D110BC00F01BBB1368581C1060EA
:104DD0001970C8B210BC7047F8B506460F461446A5
:104DE000D518AC4201D1002007E03A4614F8011B67
:104DF0003046FFF7DBFF431CF3D1F8BD2DE9F04F40
:104E00009DB00C4617460393064618B183690BB94B
:104E1000FFF7E4FE7C4B9C4257D17468A3891807C6
:104E20005DD52369002B5AD00023099320238DF8E8
:104E3000293030234FF0010B8DF82A30B846454613
:104E400015F8013B002B55D1B8EB070A0BD05346A0
:104E50003A4621463046FFF7BFFF013000F0C480DC
:104E6000099B5344099398F80030002B00F0BC8054
:104E700000234FF0FF3204930793059206938DF8B9
:104E800053301A9305222978604800F0C3FC05F1DD
:104E90000108049B002831D1D90644BF20228DF897
:104EA00053201A0744BF2B228DF853202A782A2A30
:104EB0002CD000210A20079AA84698F80030013526
:104EC000303B092B6DD971B326E0514B9C4201D187
:104ED000B468A3E74F4B9C4208BFF4689EE72146A5
:104EE000304600F0F1FA00289ED04FF0FF301DB0A0
:104EF000BDE8F08F252BA7D0A846A0E7434A45463A
:104F0000801A0BFA00F018430490BBE7039A111DB6
:104F100012680391002A01DB079204E0524243F039
:104F200002030792049398F800302E2B10D198F8C2
:104F3000013008F101012A2B37D1039B08F1020847
:104F40001A1D1B680392002BB8BF4FF0FF33059367
:104F5000314D032298F80010284600F05BFC40B168
:104F60004023401B03FA00F0049B08F101080343AF
:104F7000049398F800100622284808F101078DF8DC
:104F8000281000F047FC002834D0254B03BB039BBE
:104F9000073323F0070308330393099B4B4409931A
:104FA0004CE700FB0232012186E700230A25184660
:104FB0000593884698F800200131303A092A03D930
:104FC000002BC5D00590C3E705FB00200123F0E7C7
:104FD00003AB00932246134B04A93046AFF3008085
:104FE000B0F1FF3F8146D8D1A3895B063FF57DAF85
:104FF00009987CE703AB009322460A4B04A930468C
:1050000000F08AF8ECE700BF5861002098610020AA
:1050100078610020386100209E610020A26100209C
:1050200000000000D94D00202DE9F04791461F46B1
:105030008A680B6906469342B8BF1346C9F8003028
:1050400091F843200C46DDF8208012B10133C9F8F5
:1050500000302368990642BFD9F800300233C9F8FE
:105060000030256815F0060507D104F1190AE36838
:10507000D9F800209B1A9D422ADB94F8433022681D
:10508000003318BF012392062FD404F1430239469E
:105090003046C047013022D02368E56803F006039C
:1050A000042B18BF0025D9F800204FF0000908BFD5
:1050B000AD1AA368226908BF25EAE5759342C4BF0B
:1050C0009B1AED181A344D451BD10020BDE8F0871E
:1050D0000123524639463046C047013003D14FF0D4
:1050E000FF30BDE8F0870135C1E73020E11881F8D5
:1050F00043005A1C94F845102244023382F84310AE
:10510000C3E70123224639463046C0470130E6D086
:1051100009F10109D7E700002DE9F04317460A7E9F
:1051200085B06E2A984606460C460C9B01F1430E4C
:1051300000F0BC801AD8632A2ED00AD8002A00F0CA
:10514000C880582A00F08A8004F1420584F8422081
:105150002AE0642A01D0692AF6D121681A6811F080
:10516000800F23D0111D1960136827E0732A00F007
:10517000B48008D86F2A2AD0702AE5D10A6842F094
:1051800020020A6003E0752A21D0782ADCD1782237
:105190006F4984F8452064E01A6801F14205111D49
:1051A0001960136884F842300123A3E011F0400F26
:1051B00002F104011960D7D0B2F90030002B03DAF4
:1051C0002D225B4284F8432062490A2217E02068BE
:1051D000196810F0800F03D0081D18600B6806E0F6
:1051E00010F0400F01F104001860F7D00B886F2A0F
:1051F00014BF0A2208225749002084F8430065683A
:10520000002DA560C0F29C80206820F00400206082
:10521000002B3FD1002D40F095807546082A0BD118
:105220002368DA0708D5236962689A42DEBF302313
:1052300005F8013C05F1FF35AEEB05032361CDF820
:1052400000803B4603AA21463046FFF7EDFE0130C1
:1052500055D14FF0FF3005B0BDE8F08381F845200F
:105260003C492268186812F0800F00F104051D60A7
:1052700001D0036802E05506FBD50388D00744BF80
:1052800042F0200222601BB9226822F02002226034
:105290001022B1E77546B3FBF2F002FB1033CB5C92
:1052A00005F8013D03460028F5D1B7E708681A68FC
:1052B00010F0800F496904D0101D18601368196040
:1052C00007E010F0400F02F1040018601368F6D0F8
:1052D0001980002375462361B1E71A68111D196012
:1052E000156800216268284600F094FA08B1401B56
:1052F000606063682361002384F843309FE723697B
:105300002A4639463046C0470130A2D023689B0761
:1053100007D5002504F11909E368039A9B1A9D42F9
:1053200005DBE068039B9842B8BF184693E701236A
:105330004A4639463046C04701308AD00135EBE74E
:10534000002BA7D10B7804F1420584F8423065E7C1
:10535000BA610020A961002038B50023054C05463C
:105360000846236000F03CFC431C02D1236803B1D3
:105370002B6038BDBC64002010B50C46B1F90E108E
:1053800000F0A4FA0028ABBF636DA3891B1823F4B7
:105390008053ACBF6365A38110BD2DE9F0411F466A
:1053A0008B890546DB050C46164605D502230022EF
:1053B000B1F90E1000F0B8F9A389324623F48053F6
:1053C000A381B4F90E103B462846BDE8F04100F039
:1053D00069B810B50C46B1F90E1000F0A5F9431CE0
:1053E000A38915BF606523F4805343F48053A381E0
:1053F00018BFA38110BDB1F90E1000F0D3B80000A2
:10540000F8B50E461446054618B183690BB9FFF787
:10541000E5FB214B9C422AD16C68A369A360A38958
:105420001A072ED5236963B323692068F6B2C01A20
:1054300063693746984204DB2146284600F04AF962
:1054400028BBA3680130013BA36023685A1C22607B
:105450001E706369984204D0A389DB0719D50A2E10
:1054600017D12146284600F035F990B10FE00B4BDB
:105470009C4201D1AC68D0E7094B9C4208BFEC6864
:10548000CBE72146284600F01FF80028CCD04FF08B
:10549000FF373846F8BD00BF586100207861002012
:1054A0003861002038B50546084611460022054CF3
:1054B00022601A4600F041FB431C02D1236803B16D
:1054C0002B6038BDBC640020324B70B51D680646A9
:1054D0000C4625B1AB6913B92846FFF77FFB2E4B6D
:1054E0009C420FD16C68B4F90C309AB215072CD4D9
:1054F000D00611D40922326043F04003A3814FF05B
:10550000FF3070BD254B9C4201D1AC68EBE7244BCA
:105510009C4208BFEC68E6E7510712D5616B41B1C8
:1055200004F14403994202D0304600F083F900238D
:105530006363A38923F02403A381002363602369A9
:105540002360A38943F00803A38123694BB9A3898E
:1055500003F42073B3F5007F03D02146304600F0FA
:1055600019F9A28912F001030CD00023A36063692A
:105570005B42A361236953B9B4F90C3013F0800086
:10558000BAD170BD920758BF6369A360F2E70020EB
:10559000F7E700BF18620020586100207861002002
:1055A0003861002038B50023054C054608462360C5
:1055B00000F0F2FA431C02D1236803B12B6038BD1E
:1055C000BC6400208A892DE9F041054610070C468D
:1055D0005AD44B68002B05DC0B6C002B02DC00203E
:1055E000BDE8F081E66A002EF9D0002312F4805263
:1055F0002F682B6033D0606DA3895A0705D5636887
:10560000C01A636B0BB1236CC01A00230246E66A12
:10561000216A2846B047431CA38906D129681D2961
:105620004BD82B4ACA40D60747D500226260226970
:10563000D904226004D5421C01D12B6803B96065EE
:10564000616B2F600029CAD004F14403994202D053
:10565000284600F0EFF800206063BDE8F081216A81
:1056600001232846B047411CC6D12B68002BC3D06C
:105670001D2B01D0162B01D12F60B0E7A38943F079
:105680004003A381BDE8F0810F69002FA7D09307E5
:1056900018BF00230E6808BF4B69A6EB07080F6010
:1056A0008B60B8F1000F9ADD43463A46216A2846DE
:1056B000A66AB047002807DCA38943F04003A38112
:1056C0004FF0FF30BDE8F0810744A8EB0008E8E7A1
:1056D0000100402038B50B6905460C46DBB118B116
:1056E00083690BB9FFF77AFA0C4B9C4209D16C68BD
:1056F000B4F90C307BB121462846BDE83840FFF7AD
:1057000061BF074B9C4201D1AC68F1E7054B9C425D
:1057100008BFEC68ECE7002038BD00BF58610020EE
:10572000786100203861002038B5054608461146EA
:105730000022054C22601A4600F0EDF9431C02D10C
:10574000236803B12B6038BDBC64002070B50E46E1
:10575000B1F90E1090B0002914461D4607DA002357
:105760002B60B3891A0610D44FF480630EE001AAAF
:1057700000F0BEF80028F2DB029A02F47042A2F5B3
:1057800000535A425A412A60EEE74023002023602A
:1057900010B070BD8B8973B59D0706460C4607D5C2
:1057A00004F14703236023610123636102B070BDEC
:1057B00001AB6A46FFF7CAFF009905463046FFF77E
:1057C00097FA48B9B4F90C309A05EFD423F00303E3
:1057D00043F00203A381E3E70D4BB362A38920608A
:1057E00043F08003A381009B20616361019B5BB157
:1057F000B4F90E10304600F08DF828B1A38923F0DB
:10580000030343F00103A381A3891D43A581CDE7D1
:105810005D4B002010B5C9B202449042034601D14D
:10582000002010BD1C7801308C42F6D1184610BD06
:105830007047704738B50546002943D051F8043CFD
:105840000C1F002BB8BFE418FFF7F2FF1E4A1368C5
:10585000104633B9636014602846BDE83840FFF74E
:10586000E8BFA3420BD921686218934201BF1A68AE
:105870005B685218226063600460EDE713465A6863
:105880000AB1A242FAD919685818A0420BD120686F
:105890000144581882421960DED1106852680144F0
:1058A00019605A60D8E702D90C232B60D4E720682E
:1058B00021188A4201BF116852680918216062608C
:1058C0005C60C9E738BD00BFE862002038B5054616
:1058D000084611460022054C22601A4600F0C4F822
:1058E000431C02D1236803B12B6038BDBC64002087
:1058F00038B50023064C054608461146236000F0E3
:10590000B4F9431C02D1236803B12B6038BD00BF3A
:10591000BC64002038B50023054C054608462360CA
:1059200000F0B1F9431C02D1236803B12B6038BDEC
:10593000BC6400200A4B10B50446186818B183698E
:105940000BB9FFF74BF9132C07D8064850F8343041
:10595000013302D000EBC40010BD002010BD00BF19
:105960001862002000630020F8B5431C054609D1E9
:1059700000F0A6F900270646132420463946ABBEA0
:10598000044634602846F8BDF8B5054600F098F99D
:1059900000270646132420463946ABBE0446346031
:1059A0002846F8BD2DE9FF474FF003080023DFF834
:1059B00094900124CDF8049001AFCDF80C800293AF
:1059C00020463946ABBE054604231A4ECDF8049056
:1059D0003560CDF80C80029320463946ABBE824636
:1059E0000823154DCDF80490C5F800A0CDF80C8023
:1059F000029320463946ABBE044600214FF0FF30EB
:105A00000E4A1460013404BF2B6813600C4B43F83A
:105A1000310001311429FAD1316828681960002158
:105A2000126859609860D9601A61596104B0BDE884
:105A3000F08700BFF8620020FC620020F4620020C2
:105A400000630020CB61002030B585B00190029149
:105A5000039201AD062420462946ABBE04462046EB
:105A6000FFF782FF05B030BD70B50E461546FFF753
:105A700061FF044630B900F023F9092303604FF0B9
:105A8000FF3070BD2A4631460068FFF7DDFF431C3A
:105A90001FBF6368281A1B18636070BDF7B50C46FA
:105AA0001646FFF747FF054640B900F009F90923FC
:105AB00003604FF0FF34204603B0F0BD022E03D93F
:105AC00000F0FEF81623F3E7012E12D14368E41824
:105AD000F6D42B686F468DE818000A263046394602
